{
	"data": {
		"bytecode": {
			"linkReferences": {},
			"object": "60806040523480156200001157600080fd5b506040516200307038038062003070833981810160405281019062000037919062000554565b620000697f5f58e3a2316349923ce3780f8d587db2d72378aed66a8261c916544fa6846ca5806200028c60201b60201c565b620000bb7fb09aa5aeb3702cfd50b6b62bc4532604938f21248a27a1d5ca736082b6819cc17f5f58e3a2316349923ce3780f8d587db2d72378aed66a8261c916544fa6846ca56200028c60201b60201c565b6200010d7fd8aa0f3194971a2a116679f7c2090f6939c8d4e01a2a8d7e41d55e5351469e637f5f58e3a2316349923ce3780f8d587db2d72378aed66a8261c916544fa6846ca56200028c60201b60201c565b6200014e7f5f58e3a2316349923ce3780f8d587db2d72378aed66a8261c916544fa6846ca562000142620002ee60201b60201c565b620002f660201b60201c565b620001807f5f58e3a2316349923ce3780f8d587db2d72378aed66a8261c916544fa6846ca530620002f660201b60201c565b60005b8251811015620001df57620001d37fb09aa5aeb3702cfd50b6b62bc4532604938f21248a27a1d5ca736082b6819cc1848381518110620001bf57fe5b6020026020010151620002f660201b60201c565b80600101905062000183565b5060005b81518110156200023f57620002337fd8aa0f3194971a2a116679f7c2090f6939c8d4e01a2a8d7e41d55e5351469e638383815181106200021f57fe5b6020026020010151620002f660201b60201c565b806001019050620001e3565b50826002819055507f11c24f4ead16507c69ac467fbd5e4eed5fb5c699626d2cc6d66421df253886d56000846040516200027b929190620005fe565b60405180910390a150505062000716565b8060008084815260200190815260200160002060020154837fbd79b86ffe0ab8e8776151514217cd7cacd52c909f66475c3af44e129f0b00ff60405160405180910390a480600080848152602001908152602001600020600201819055505050565b600033905090565b6200030882826200030c60201b60201c565b5050565b6200033a81600080858152602001908152602001600020600001620003af60201b6200112f1790919060201c565b15620003ab5762000350620002ee60201b60201c565b73ffffffffffffffffffffffffffffffffffffffff168173ffffffffffffffffffffffffffffffffffffffff16837f2f8788117e7eff1d82e926ec794901d17c78024a50270940304540a733656f0d60405160405180910390a45b5050565b6000620003df836000018373ffffffffffffffffffffffffffffffffffffffff1660001b620003e760201b60201c565b905092915050565b6000620003fb83836200046160201b60201c565b620004565782600001829080600181540180825580915050600190039060005260206000200160009091909190915055826000018054905083600101600084815260200190815260200160002081905550600190506200045b565b600090505b92915050565b600080836001016000848152602001908152602001600020541415905092915050565b60006200049b62000495846200065f565b6200062b565b90508083825260208201905082856020860282011115620004bb57600080fd5b60005b85811015620004ef5781620004d48882620004f9565b845260208401935060208301925050600181019050620004be565b5050509392505050565b6000815190506200050a81620006e2565b92915050565b600082601f8301126200052257600080fd5b81516200053484826020860162000484565b91505092915050565b6000815190506200054e81620006fc565b92915050565b6000806000606084860312156200056a57600080fd5b60006200057a868287016200053d565b935050602084015167ffffffffffffffff8111156200059857600080fd5b620005a68682870162000510565b925050604084015167ffffffffffffffff811115620005c457600080fd5b620005d28682870162000510565b9150509250925092565b620005e781620006cc565b82525050565b620005f881620006c2565b82525050565b6000604082019050620006156000830185620005dc565b620006246020830184620005ed565b9392505050565b6000604051905081810181811067ffffffffffffffff82111715620006555762000654620006e0565b5b8060405250919050565b600067ffffffffffffffff8211156200067d576200067c620006e0565b5b602082029050602081019050919050565b60006200069b82620006a2565b9050919050565b600073ffffffffffffffffffffffffffffffffffffffff82169050919050565b6000819050919050565b6000620006d982620006c2565b9050919050565bfe5b620006ed816200068e565b8114620006f957600080fd5b50565b6200070781620006c2565b81146200071357600080fd5b50565b61294a80620007266000396000f3fe60806040526004361061016a5760003560e01c80638065657f116100d1578063b1c5f4271161008a578063d45c443511610064578063d45c443514610596578063d547741f146105d3578063e38335e5146105fc578063f27a0c921461061857610171565b8063b1c5f427146104f3578063c4d252f514610530578063ca15c8731461055957610171565b80638065657f146103bd5780638f2a0bb0146103fa5780638f61f4f5146104235780639010d07c1461044e57806391d148541461048b578063a217fddf146104c857610171565b80632ab0f529116101235780632ab0f5291461028b5780632f2ff15d146102c857806331d50750146102f157806336568abe1461032e578063584b153e1461035757806364d623531461039457610171565b806301d5062a1461017657806307bd02651461019f5780630d3cf6fc146101ca578063134008d3146101f557806313bc9f2014610211578063248a9ca31461024e57610171565b3661017157005b600080fd5b34801561018257600080fd5b5061019d60048036038101906101989190611a40565b610643565b005b3480156101ab57600080fd5b506101b4610731565b6040516101c191906124ca565b60405180910390f35b3480156101d657600080fd5b506101df610755565b6040516101ec91906124ca565b60405180910390f35b61020f600480360381019061020a91906119ae565b610779565b005b34801561021d57600080fd5b5061023860048036038101906102339190611c92565b610839565b60405161024591906124af565b60405180910390f35b34801561025a57600080fd5b5061027560048036038101906102709190611c92565b61085f565b60405161028291906124ca565b60405180910390f35b34801561029757600080fd5b506102b260048036038101906102ad9190611c92565b61087e565b6040516102bf91906124af565b60405180910390f35b3480156102d457600080fd5b506102ef60048036038101906102ea9190611cbb565b610893565b005b3480156102fd57600080fd5b5061031860048036038101906103139190611c92565b61091c565b60405161032591906124af565b60405180910390f35b34801561033a57600080fd5b5061035560048036038101906103509190611cbb565b610930565b005b34801561036357600080fd5b5061037e60048036038101906103799190611c92565b6109c9565b60405161038b91906124af565b60405180910390f35b3480156103a057600080fd5b506103bb60048036038101906103b69190611d33565b6109de565b005b3480156103c957600080fd5b506103e460048036038101906103df91906119ae565b610a91565b6040516103f191906124ca565b60405180910390f35b34801561040657600080fd5b50610421600480360381019061041c9190611bb3565b610ad0565b005b34801561042f57600080fd5b50610438610cb9565b60405161044591906124ca565b60405180910390f35b34801561045a57600080fd5b5061047560048036038101906104709190611cf7565b610cdd565b604051610482919061232e565b60405180910390f35b34801561049757600080fd5b506104b260048036038101906104ad9190611cbb565b610d0e565b6040516104bf91906124af565b60405180910390f35b3480156104d457600080fd5b506104dd610d3f565b6040516104ea91906124ca565b60405180910390f35b3480156104ff57600080fd5b5061051a60048036038101906105159190611ae7565b610d46565b60405161052791906124ca565b60405180910390f35b34801561053c57600080fd5b5061055760048036038101906105529190611c92565b610d8b565b005b34801561056557600080fd5b50610580600480360381019061057b9190611c92565b610e9e565b60405161058d9190612605565b60405180910390f35b3480156105a257600080fd5b506105bd60048036038101906105b89190611c92565b610ec4565b6040516105ca9190612605565b60405180910390f35b3480156105df57600080fd5b506105fa60048036038101906105f59190611cbb565b610ee1565b005b61061660048036038101906106119190611ae7565b610f6a565b005b34801561062457600080fd5b5061062d611125565b60405161063a9190612605565b60405180910390f35b7fb09aa5aeb3702cfd50b6b62bc4532604938f21248a27a1d5ca736082b6819cc16106758161067061115f565b610d0e565b806106875750610686816000610d0e565b5b6106c6576040517f08c379a00000000000000000000000000000000000000000000000000000000081526004016106bd90612525565b60405180910390fd5b60006106d6898989898989610a91565b90506106e28184611167565b6000817f4cf4410cc57040e44862ef0f45f3dd5a5e02db8eb8add648d4b0e236f1d07dca8b8b8b8b8b8a60405161071e969594939291906123e5565b60405180910390a3505050505050505050565b7fd8aa0f3194971a2a116679f7c2090f6939c8d4e01a2a8d7e41d55e5351469e6381565b7f5f58e3a2316349923ce3780f8d587db2d72378aed66a8261c916544fa6846ca581565b7fd8aa0f3194971a2a116679f7c2090f6939c8d4e01a2a8d7e41d55e5351469e636107ab816107a661115f565b610d0e565b806107bd57506107bc816000610d0e565b5b6107fc576040517f08c379a00000000000000000000000000000000000000000000000000000000081526004016107f390612525565b60405180910390fd5b600061080c888888888888610a91565b90506108178461121f565b6108268160008a8a8a8a611277565b61082f8161136f565b5050505050505050565b60008061084583610ec4565b90506001811180156108575750428111155b915050919050565b6000806000838152602001908152602001600020600201549050919050565b6000600161088b83610ec4565b149050919050565b6108b9600080848152602001908152602001600020600201546108b461115f565b610d0e565b61090e576040517f08c379a000000000000000000000000000000000000000000000000000000000815260040180806020018281038252602f815260200180612887602f913960400191505060405180910390fd5b61091882826113d2565b5050565b60008061092883610ec4565b119050919050565b61093861115f565b73ffffffffffffffffffffffffffffffffffffffff168173ffffffffffffffffffffffffffffffffffffffff16146109bb576040517f08c379a000000000000000000000000000000000000000000000000000000000815260040180806020018281038252602f8152602001806128e6602f913960400191505060405180910390fd5b6109c58282611465565b5050565b600060016109d683610ec4565b119050919050565b3073ffffffffffffffffffffffffffffffffffffffff163373ffffffffffffffffffffffffffffffffffffffff1614610a4c576040517f08c379a0000000000000000000000000000000000000000000000000000000008152600401610a43906125c5565b60405180910390fd5b7f11c24f4ead16507c69ac467fbd5e4eed5fb5c699626d2cc6d66421df253886d560025482604051610a7f929190612620565b60405180910390a18060028190555050565b6000868686868686604051602001610aae96959493929190612389565b6040516020818303038152906040528051906020012090509695505050505050565b7fb09aa5aeb3702cfd50b6b62bc4532604938f21248a27a1d5ca736082b6819cc1610b0281610afd61115f565b610d0e565b80610b145750610b13816000610d0e565b5b610b53576040517f08c379a0000000000000000000000000000000000000000000000000000000008152600401610b4a90612525565b60405180910390fd5b878790508a8a905014610b9b576040517f08c379a0000000000000000000000000000000000000000000000000000000008152600401610b9290612505565b60405180910390fd5b858590508a8a905014610be3576040517f08c379a0000000000000000000000000000000000000000000000000000000008152600401610bda90612505565b60405180910390fd5b6000610bf58b8b8b8b8b8b8b8b610d46565b9050610c018184611167565b60005b8b8b9050811015610cab5780827f4cf4410cc57040e44862ef0f45f3dd5a5e02db8eb8add648d4b0e236f1d07dca8e8e85818110610c3e57fe5b9050602002016020810190610c539190611985565b8d8d86818110610c5f57fe5b905060200201358c8c87818110610c7257fe5b9050602002810190610c849190612649565b8c8b604051610c98969594939291906123e5565b60405180910390a3806001019050610c04565b505050505050505050505050565b7fb09aa5aeb3702cfd50b6b62bc4532604938f21248a27a1d5ca736082b6819cc181565b6000610d06826000808681526020019081526020016000206000016114f890919063ffffffff16565b905092915050565b6000610d378260008086815260200190815260200160002060000161151290919063ffffffff16565b905092915050565b6000801b81565b60008888888888888888604051602001610d67989796959493929190612441565b60405160208183030381529060405280519060200120905098975050505050505050565b7fb09aa5aeb3702cfd50b6b62bc4532604938f21248a27a1d5ca736082b6819cc1610dbd81610db861115f565b610d0e565b80610dcf5750610dce816000610d0e565b5b610e0e576040517f08c379a0000000000000000000000000000000000000000000000000000000008152600401610e0590612525565b60405180910390fd5b610e17826109c9565b610e56576040517f08c379a0000000000000000000000000000000000000000000000000000000008152600401610e4d906125a5565b60405180910390fd5b6001600083815260200190815260200160002060009055817fbaa1eb22f2a492ba1a5fea61b8df4d27c6c8b5f3971e63bb58fa14ff72eedb7060405160405180910390a25050565b6000610ebd600080848152602001908152602001600020600001611542565b9050919050565b600060016000838152602001908152602001600020549050919050565b610f0760008084815260200190815260200160002060020154610f0261115f565b610d0e565b610f5c576040517f08c379a00000000000000000000000000000000000000000000000000000000081526004018080602001828103825260308152602001806128b66030913960400191505060405180910390fd5b610f668282611465565b5050565b7fd8aa0f3194971a2a116679f7c2090f6939c8d4e01a2a8d7e41d55e5351469e63610f9c81610f9761115f565b610d0e565b80610fae5750610fad816000610d0e565b5b610fed576040517f08c379a0000000000000000000000000000000000000000000000000000000008152600401610fe490612525565b60405180910390fd5b868690508989905014611035576040517f08c379a000000000000000000000000000000000000000000000000000000000815260040161102c90612505565b60405180910390fd5b84849050898990501461107d576040517f08c379a000000000000000000000000000000000000000000000000000000000815260040161107490612505565b60405180910390fd5b600061108f8a8a8a8a8a8a8a8a610d46565b905061109a8461121f565b60005b8a8a905081101561110f5761110482828d8d858181106110b957fe5b90506020020160208101906110ce9190611985565b8c8c868181106110da57fe5b905060200201358b8b878181106110ed57fe5b90506020028101906110ff9190612649565b611277565b80600101905061109d565b506111198161136f565b50505050505050505050565b6000600254905090565b6000611157836000018373ffffffffffffffffffffffffffffffffffffffff1660001b611557565b905092915050565b600033905090565b6111708261091c565b156111b0576040517f08c379a00000000000000000000000000000000000000000000000000000000081526004016111a790612565565b60405180910390fd5b6111b8611125565b8110156111fa576040517f08c379a00000000000000000000000000000000000000000000000000000000081526004016111f190612545565b60405180910390fd5b61120442826115c7565b60016000848152602001908152602001600020819055505050565b6000801b81148061123557506112348161087e565b5b611274576040517f08c379a000000000000000000000000000000000000000000000000000000000815260040161126b906124e5565b60405180910390fd5b50565b60008473ffffffffffffffffffffffffffffffffffffffff168484846040516112a1929190612315565b60006040518083038185875af1925050503d80600081146112de576040519150601f19603f3d011682016040523d82523d6000602084013e6112e3565b606091505b5050905080611327576040517f08c379a000000000000000000000000000000000000000000000000000000000815260040161131e906125e5565b60405180910390fd5b85877fc2617efa69bab66782fa219543714338489c4e9e178271560a91b82c3f612b588787878760405161135e9493929190612349565b60405180910390a350505050505050565b61137881610839565b6113b7576040517f08c379a00000000000000000000000000000000000000000000000000000000081526004016113ae90612585565b60405180910390fd5b60018060008381526020019081526020016000208190555050565b6113f98160008085815260200190815260200160002060000161112f90919063ffffffff16565b156114615761140661115f565b73ffffffffffffffffffffffffffffffffffffffff168173ffffffffffffffffffffffffffffffffffffffff16837f2f8788117e7eff1d82e926ec794901d17c78024a50270940304540a733656f0d60405160405180910390a45b5050565b61148c8160008085815260200190815260200160002060000161164f90919063ffffffff16565b156114f45761149961115f565b73ffffffffffffffffffffffffffffffffffffffff168173ffffffffffffffffffffffffffffffffffffffff16837ff6391f5c32d9c69d2a47ea670b442974b53935d1edc7fd64eb21e047a839171b60405160405180910390a45b5050565b6000611507836000018361167f565b60001c905092915050565b600061153a836000018373ffffffffffffffffffffffffffffffffffffffff1660001b611702565b905092915050565b600061155082600001611725565b9050919050565b60006115638383611702565b6115bc5782600001829080600181540180825580915050600190039060005260206000200160009091909190915055826000018054905083600101600084815260200190815260200160002081905550600190506115c1565b600090505b92915050565b600080828401905083811015611645576040517f08c379a000000000000000000000000000000000000000000000000000000000815260040180806020018281038252601b8152602001807f536166654d6174683a206164646974696f6e206f766572666c6f77000000000081525060200191505060405180910390fd5b8091505092915050565b6000611677836000018373ffffffffffffffffffffffffffffffffffffffff1660001b611736565b905092915050565b6000818360000180549050116116e0576040517f08c379a00000000000000000000000000000000000000000000000000000000081526004018080602001828103825260228152602001806128656022913960400191505060405180910390fd5b8260000182815481106116ef57fe5b9060005260206000200154905092915050565b600080836001016000848152602001908152602001600020541415905092915050565b600081600001805490509050919050565b60008083600101600084815260200190815260200160002054905060008114611812576000600182039050600060018660000180549050039050600086600001828154811061178157fe5b906000526020600020015490508087600001848154811061179e57fe5b90600052602060002001819055506001830187600101600083815260200190815260200160002081905550866000018054806117d657fe5b60019003818190600052602060002001600090559055866001016000878152602001908152602001600020600090556001945050505050611818565b60009150505b92915050565b60008135905061182d8161281f565b92915050565b60008083601f84011261184557600080fd5b8235905067ffffffffffffffff81111561185e57600080fd5b60208301915083602082028301111561187657600080fd5b9250929050565b60008083601f84011261188f57600080fd5b8235905067ffffffffffffffff8111156118a857600080fd5b6020830191508360208202830111156118c057600080fd5b9250929050565b60008083601f8401126118d957600080fd5b8235905067ffffffffffffffff8111156118f257600080fd5b60208301915083602082028301111561190a57600080fd5b9250929050565b60008135905061192081612836565b92915050565b60008083601f84011261193857600080fd5b8235905067ffffffffffffffff81111561195157600080fd5b60208301915083600182028301111561196957600080fd5b9250929050565b60008135905061197f8161284d565b92915050565b60006020828403121561199757600080fd5b60006119a58482850161181e565b91505092915050565b60008060008060008060a087890312156119c757600080fd5b60006119d589828a0161181e565b96505060206119e689828a01611970565b955050604087013567ffffffffffffffff811115611a0357600080fd5b611a0f89828a01611926565b94509450506060611a2289828a01611911565b9250506080611a3389828a01611911565b9150509295509295509295565b600080600080600080600060c0888a031215611a5b57600080fd5b6000611a698a828b0161181e565b9750506020611a7a8a828b01611970565b965050604088013567ffffffffffffffff811115611a9757600080fd5b611aa38a828b01611926565b95509550506060611ab68a828b01611911565b9350506080611ac78a828b01611911565b92505060a0611ad88a828b01611970565b91505092959891949750929550565b60008060008060008060008060a0898b031215611b0357600080fd5b600089013567ffffffffffffffff811115611b1d57600080fd5b611b298b828c01611833565b9850985050602089013567ffffffffffffffff811115611b4857600080fd5b611b548b828c016118c7565b9650965050604089013567ffffffffffffffff811115611b7357600080fd5b611b7f8b828c0161187d565b94509450506060611b928b828c01611911565b9250506080611ba38b828c01611911565b9150509295985092959890939650565b600080600080600080600080600060c08a8c031215611bd157600080fd5b60008a013567ffffffffffffffff811115611beb57600080fd5b611bf78c828d01611833565b995099505060208a013567ffffffffffffffff811115611c1657600080fd5b611c228c828d016118c7565b975097505060408a013567ffffffffffffffff811115611c4157600080fd5b611c4d8c828d0161187d565b95509550506060611c608c828d01611911565b9350506080611c718c828d01611911565b92505060a0611c828c828d01611970565b9150509295985092959850929598565b600060208284031215611ca457600080fd5b6000611cb284828501611911565b91505092915050565b60008060408385031215611cce57600080fd5b6000611cdc85828601611911565b9250506020611ced8582860161181e565b9150509250929050565b60008060408385031215611d0a57600080fd5b6000611d1885828601611911565b9250506020611d2985828601611970565b9150509250929050565b600060208284031215611d4557600080fd5b6000611d5384828501611970565b91505092915050565b6000611d688383611d8a565b60208301905092915050565b6000611d81848484611ef1565b90509392505050565b611d93816127ad565b82525050565b611da2816127ad565b82525050565b6000611db483856126ce565b9350611dbf826126a0565b8060005b85811015611df857611dd5828461273f565b611ddf8882611d5c565b9750611dea836126b4565b925050600181019050611dc3565b5085925050509392505050565b6000611e1183856126df565b935083602084028501611e23846126aa565b8060005b87811015611e69578484038952611e3e8284612756565b611e49868284611d74565b9550611e54846126c1565b935060208b019a505050600181019050611e27565b50829750879450505050509392505050565b6000611e8783856126f0565b93507f07ffffffffffffffffffffffffffffffffffffffffffffffffffffffffffffff831115611eb657600080fd5b602083029250611ec78385846127ff565b82840190509392505050565b611edc816127bf565b82525050565b611eeb816127cb565b82525050565b6000611efd8385612701565b9350611f0a8385846127ff565b611f138361280e565b840190509392505050565b6000611f2a8385612712565b9350611f378385846127ff565b611f408361280e565b840190509392505050565b6000611f578385612723565b9350611f648385846127ff565b82840190509392505050565b6000611f7d60268361272e565b91507f54696d656c6f636b436f6e74726f6c6c65723a206d697373696e67206465706560008301527f6e64656e637900000000000000000000000000000000000000000000000000006020830152604082019050919050565b6000611fe360238361272e565b91507f54696d656c6f636b436f6e74726f6c6c65723a206c656e677468206d69736d6160008301527f74636800000000000000000000000000000000000000000000000000000000006020830152604082019050919050565b6000612049602e8361272e565b91507f54696d656c6f636b436f6e74726f6c6c65723a2073656e64657220726571756960008301527f726573207065726d697373696f6e0000000000000000000000000000000000006020830152604082019050919050565b60006120af60268361272e565b91507f54696d656c6f636b436f6e74726f6c6c65723a20696e73756666696369656e7460008301527f2064656c617900000000000000000000000000000000000000000000000000006020830152604082019050919050565b6000612115602f8361272e565b91507f54696d656c6f636b436f6e74726f6c6c65723a206f7065726174696f6e20616c60008301527f7265616479207363686564756c656400000000000000000000000000000000006020830152604082019050919050565b600061217b602a8361272e565b91507f54696d656c6f636b436f6e74726f6c6c65723a206f7065726174696f6e20697360008301527f206e6f74207265616479000000000000000000000000000000000000000000006020830152604082019050919050565b60006121e160318361272e565b91507f54696d656c6f636b436f6e74726f6c6c65723a206f7065726174696f6e20636160008301527f6e6e6f742062652063616e63656c6c65640000000000000000000000000000006020830152604082019050919050565b6000612247602b8361272e565b91507f54696d656c6f636b436f6e74726f6c6c65723a2063616c6c6572206d7573742060008301527f62652074696d656c6f636b0000000000000000000000000000000000000000006020830152604082019050919050565b60006122ad60338361272e565b91507f54696d656c6f636b436f6e74726f6c6c65723a20756e6465726c79696e67207460008301527f72616e73616374696f6e207265766572746564000000000000000000000000006020830152604082019050919050565b61230f816127f5565b82525050565b6000612322828486611f4b565b91508190509392505050565b60006020820190506123436000830184611d99565b92915050565b600060608201905061235e6000830187611d99565b61236b6020830186612306565b818103604083015261237e818486611f1e565b905095945050505050565b600060a08201905061239e6000830189611d99565b6123ab6020830188612306565b81810360408301526123be818688611f1e565b90506123cd6060830185611ee2565b6123da6080830184611ee2565b979650505050505050565b600060a0820190506123fa6000830189611d99565b6124076020830188612306565b818103604083015261241a818688611f1e565b90506124296060830185611ee2565b6124366080830184612306565b979650505050505050565b600060a082019050818103600083015261245c818a8c611da8565b9050818103602083015261247181888a611e7b565b90508181036040830152612486818688611e05565b90506124956060830185611ee2565b6124a26080830184611ee2565b9998505050505050505050565b60006020820190506124c46000830184611ed3565b92915050565b60006020820190506124df6000830184611ee2565b92915050565b600060208201905081810360008301526124fe81611f70565b9050919050565b6000602082019050818103600083015261251e81611fd6565b9050919050565b6000602082019050818103600083015261253e8161203c565b9050919050565b6000602082019050818103600083015261255e816120a2565b9050919050565b6000602082019050818103600083015261257e81612108565b9050919050565b6000602082019050818103600083015261259e8161216e565b9050919050565b600060208201905081810360008301526125be816121d4565b9050919050565b600060208201905081810360008301526125de8161223a565b9050919050565b600060208201905081810360008301526125fe816122a0565b9050919050565b600060208201905061261a6000830184612306565b92915050565b60006040820190506126356000830185612306565b6126426020830184612306565b9392505050565b6000808335600160200384360303811261266257600080fd5b80840192508235915067ffffffffffffffff82111561268057600080fd5b60208301925060018202360383131561269857600080fd5b509250929050565b6000819050919050565b6000819050919050565b6000602082019050919050565b6000602082019050919050565b600082825260208201905092915050565b600082825260208201905092915050565b600082825260208201905092915050565b600082825260208201905092915050565b600082825260208201905092915050565b600081905092915050565b600082825260208201905092915050565b600061274e602084018461181e565b905092915050565b6000808335600160200384360303811261276f57600080fd5b83810192508235915060208301925067ffffffffffffffff82111561279357600080fd5b6001820236038413156127a557600080fd5b509250929050565b60006127b8826127d5565b9050919050565b60008115159050919050565b6000819050919050565b600073ffffffffffffffffffffffffffffffffffffffff82169050919050565b6000819050919050565b82818337600083830152505050565b6000601f19601f8301169050919050565b612828816127ad565b811461283357600080fd5b50565b61283f816127cb565b811461284a57600080fd5b50565b612856816127f5565b811461286157600080fd5b5056fe456e756d657261626c655365743a20696e646578206f7574206f6620626f756e6473416363657373436f6e74726f6c3a2073656e646572206d75737420626520616e2061646d696e20746f206772616e74416363657373436f6e74726f6c3a2073656e646572206d75737420626520616e2061646d696e20746f207265766f6b65416363657373436f6e74726f6c3a2063616e206f6e6c792072656e6f756e636520726f6c657320666f722073656c66a26469706673582212206d25524c6de0e62dad0697d77b7b2c4c6d4de398a1084b5d9da1c18eb5b958bc64736f6c63430007060033",
			"opcodes": "PUSH1 0x80 PUSH1 0x40 MSTORE CALLVALUE DUP1 ISZERO PUSH3 0x11 JUMPI PUSH1 0x0 DUP1 REVERT JUMPDEST POP PUSH1 0x40 MLOAD PUSH3 0x3070 CODESIZE SUB DUP1 PUSH3 0x3070 DUP4 CODECOPY DUP2 DUP2 ADD PUSH1 0x40 MSTORE DUP2 ADD SWAP1 PUSH3 0x37 SWAP2 SWAP1 PUSH3 0x554 JUMP JUMPDEST PUSH3 0x69 PUSH32 0x5F58E3A2316349923CE3780F8D587DB2D72378AED66A8261C916544FA6846CA5 DUP1 PUSH3 0x28C PUSH1 0x20 SHL PUSH1 0x20 SHR JUMP JUMPDEST PUSH3 0xBB PUSH32 0xB09AA5AEB3702CFD50B6B62BC4532604938F21248A27A1D5CA736082B6819CC1 PUSH32 0x5F58E3A2316349923CE3780F8D587DB2D72378AED66A8261C916544FA6846CA5 PUSH3 0x28C PUSH1 0x20 SHL PUSH1 0x20 SHR JUMP JUMPDEST PUSH3 0x10D PUSH32 0xD8AA0F3194971A2A116679F7C2090F6939C8D4E01A2A8D7E41D55E5351469E63 PUSH32 0x5F58E3A2316349923CE3780F8D587DB2D72378AED66A8261C916544FA6846CA5 PUSH3 0x28C PUSH1 0x20 SHL PUSH1 0x20 SHR JUMP JUMPDEST PUSH3 0x14E PUSH32 0x5F58E3A2316349923CE3780F8D587DB2D72378AED66A8261C916544FA6846CA5 PUSH3 0x142 PUSH3 0x2EE PUSH1 0x20 SHL PUSH1 0x20 SHR JUMP JUMPDEST PUSH3 0x2F6 PUSH1 0x20 SHL PUSH1 0x20 SHR JUMP JUMPDEST PUSH3 0x180 PUSH32 0x5F58E3A2316349923CE3780F8D587DB2D72378AED66A8261C916544FA6846CA5 ADDRESS PUSH3 0x2F6 PUSH1 0x20 SHL PUSH1 0x20 SHR JUMP JUMPDEST PUSH1 0x0 JUMPDEST DUP3 MLOAD DUP2 LT ISZERO PUSH3 0x1DF JUMPI PUSH3 0x1D3 PUSH32 0xB09AA5AEB3702CFD50B6B62BC4532604938F21248A27A1D5CA736082B6819CC1 DUP5 DUP4 DUP2 MLOAD DUP2 LT PUSH3 0x1BF JUMPI INVALID JUMPDEST PUSH1 0x20 MUL PUSH1 0x20 ADD ADD MLOAD PUSH3 0x2F6 PUSH1 0x20 SHL PUSH1 0x20 SHR JUMP JUMPDEST DUP1 PUSH1 0x1 ADD SWAP1 POP PUSH3 0x183 JUMP JUMPDEST POP PUSH1 0x0 JUMPDEST DUP2 MLOAD DUP2 LT ISZERO PUSH3 0x23F JUMPI PUSH3 0x233 PUSH32 0xD8AA0F3194971A2A116679F7C2090F6939C8D4E01A2A8D7E41D55E5351469E63 DUP4 DUP4 DUP2 MLOAD DUP2 LT PUSH3 0x21F JUMPI INVALID JUMPDEST PUSH1 0x20 MUL PUSH1 0x20 ADD ADD MLOAD PUSH3 0x2F6 PUSH1 0x20 SHL PUSH1 0x20 SHR JUMP JUMPDEST DUP1 PUSH1 0x1 ADD SWAP1 POP PUSH3 0x1E3 JUMP JUMPDEST POP DUP3 PUSH1 0x2 DUP2 SWAP1 SSTORE POP PUSH32 0x11C24F4EAD16507C69AC467FBD5E4EED5FB5C699626D2CC6D66421DF253886D5 PUSH1 0x0 DUP5 PUSH1 0x40 MLOAD PUSH3 0x27B SWAP3 SWAP2 SWAP1 PUSH3 0x5FE JUMP JUMPDEST PUSH1 0x40 MLOAD DUP1 SWAP2 SUB SWAP1 LOG1 POP POP POP PUSH3 0x716 JUMP JUMPDEST DUP1 PUSH1 0x0 DUP1 DUP5 DUP2 MSTORE PUSH1 0x20 ADD SWAP1 DUP2 MSTORE PUSH1 0x20 ADD PUSH1 0x0 KECCAK256 PUSH1 0x2 ADD SLOAD DUP4 PUSH32 0xBD79B86FFE0AB8E8776151514217CD7CACD52C909F66475C3AF44E129F0B00FF PUSH1 0x40 MLOAD PUSH1 0x40 MLOAD DUP1 SWAP2 SUB SWAP1 LOG4 DUP1 PUSH1 0x0 DUP1 DUP5 DUP2 MSTORE PUSH1 0x20 ADD SWAP1 DUP2 MSTORE PUSH1 0x20 ADD PUSH1 0x0 KECCAK256 PUSH1 0x2 ADD DUP2 SWAP1 SSTORE POP POP POP JUMP JUMPDEST PUSH1 0x0 CALLER SWAP1 POP SWAP1 JUMP JUMPDEST PUSH3 0x308 DUP3 DUP3 PUSH3 0x30C PUSH1 0x20 SHL PUSH1 0x20 SHR JUMP JUMPDEST POP POP JUMP JUMPDEST PUSH3 0x33A DUP2 PUSH1 0x0 DUP1 DUP6 DUP2 MSTORE PUSH1 0x20 ADD SWAP1 DUP2 MSTORE PUSH1 0x20 ADD PUSH1 0x0 KECCAK256 PUSH1 0x0 ADD PUSH3 0x3AF PUSH1 0x20 SHL PUSH3 0x112F OR SWAP1 SWAP2 SWAP1 PUSH1 0x20 SHR JUMP JUMPDEST ISZERO PUSH3 0x3AB JUMPI PUSH3 0x350 PUSH3 0x2EE PUSH1 0x20 SHL PUSH1 0x20 SHR JUMP JUMPDEST PUSH20 0xFFFFFFFFFFFFFFFFFFFFFFFFFFFFFFFFFFFFFFFF AND DUP2 PUSH20 0xFFFFFFFFFFFFFFFFFFFFFFFFFFFFFFFFFFFFFFFF AND DUP4 PUSH32 0x2F8788117E7EFF1D82E926EC794901D17C78024A50270940304540A733656F0D PUSH1 0x40 MLOAD PUSH1 0x40 MLOAD DUP1 SWAP2 SUB SWAP1 LOG4 JUMPDEST POP POP JUMP JUMPDEST PUSH1 0x0 PUSH3 0x3DF DUP4 PUSH1 0x0 ADD DUP4 PUSH20 0xFFFFFFFFFFFFFFFFFFFFFFFFFFFFFFFFFFFFFFFF AND PUSH1 0x0 SHL PUSH3 0x3E7 PUSH1 0x20 SHL PUSH1 0x20 SHR JUMP JUMPDEST SWAP1 POP SWAP3 SWAP2 POP POP JUMP JUMPDEST PUSH1 0x0 PUSH3 0x3FB DUP4 DUP4 PUSH3 0x461 PUSH1 0x20 SHL PUSH1 0x20 SHR JUMP JUMPDEST PUSH3 0x456 JUMPI DUP3 PUSH1 0x0 ADD DUP3 SWAP1 DUP1 PUSH1 0x1 DUP2 SLOAD ADD DUP1 DUP3 SSTORE DUP1 SWAP2 POP POP PUSH1 0x1 SWAP1 SUB SWAP1 PUSH1 0x0 MSTORE PUSH1 0x20 PUSH1 0x0 KECCAK256 ADD PUSH1 0x0 SWAP1 SWAP2 SWAP1 SWAP2 SWAP1 SWAP2 POP SSTORE DUP3 PUSH1 0x0 ADD DUP1 SLOAD SWAP1 POP DUP4 PUSH1 0x1 ADD PUSH1 0x0 DUP5 DUP2 MSTORE PUSH1 0x20 ADD SWAP1 DUP2 MSTORE PUSH1 0x20 ADD PUSH1 0x0 KECCAK256 DUP2 SWAP1 SSTORE POP PUSH1 0x1 SWAP1 POP PUSH3 0x45B JUMP JUMPDEST PUSH1 0x0 SWAP1 POP JUMPDEST SWAP3 SWAP2 POP POP JUMP JUMPDEST PUSH1 0x0 DUP1 DUP4 PUSH1 0x1 ADD PUSH1 0x0 DUP5 DUP2 MSTORE PUSH1 0x20 ADD SWAP1 DUP2 MSTORE PUSH1 0x20 ADD PUSH1 0x0 KECCAK256 SLOAD EQ ISZERO SWAP1 POP SWAP3 SWAP2 POP POP JUMP JUMPDEST PUSH1 0x0 PUSH3 0x49B PUSH3 0x495 DUP5 PUSH3 0x65F JUMP JUMPDEST PUSH3 0x62B JUMP JUMPDEST SWAP1 POP DUP1 DUP4 DUP3 MSTORE PUSH1 0x20 DUP3 ADD SWAP1 POP DUP3 DUP6 PUSH1 0x20 DUP7 MUL DUP3 ADD GT ISZERO PUSH3 0x4BB JUMPI PUSH1 0x0 DUP1 REVERT JUMPDEST PUSH1 0x0 JUMPDEST DUP6 DUP2 LT ISZERO PUSH3 0x4EF JUMPI DUP2 PUSH3 0x4D4 DUP9 DUP3 PUSH3 0x4F9 JUMP JUMPDEST DUP5 MSTORE PUSH1 0x20 DUP5 ADD SWAP4 POP PUSH1 0x20 DUP4 ADD SWAP3 POP POP PUSH1 0x1 DUP2 ADD SWAP1 POP PUSH3 0x4BE JUMP JUMPDEST POP POP POP SWAP4 SWAP3 POP POP POP JUMP JUMPDEST PUSH1 0x0 DUP2 MLOAD SWAP1 POP PUSH3 0x50A DUP2 PUSH3 0x6E2 JUMP JUMPDEST SWAP3 SWAP2 POP POP JUMP JUMPDEST PUSH1 0x0 DUP3 PUSH1 0x1F DUP4 ADD SLT PUSH3 0x522 JUMPI PUSH1 0x0 DUP1 REVERT JUMPDEST DUP2 MLOAD PUSH3 0x534 DUP5 DUP3 PUSH1 0x20 DUP7 ADD PUSH3 0x484 JUMP JUMPDEST SWAP2 POP POP SWAP3 SWAP2 POP POP JUMP JUMPDEST PUSH1 0x0 DUP2 MLOAD SWAP1 POP PUSH3 0x54E DUP2 PUSH3 0x6FC JUMP JUMPDEST SWAP3 SWAP2 POP POP JUMP JUMPDEST PUSH1 0x0 DUP1 PUSH1 0x0 PUSH1 0x60 DUP5 DUP7 SUB SLT ISZERO PUSH3 0x56A JUMPI PUSH1 0x0 DUP1 REVERT JUMPDEST PUSH1 0x0 PUSH3 0x57A DUP7 DUP3 DUP8 ADD PUSH3 0x53D JUMP JUMPDEST SWAP4 POP POP PUSH1 0x20 DUP5 ADD MLOAD PUSH8 0xFFFFFFFFFFFFFFFF DUP2 GT ISZERO PUSH3 0x598 JUMPI PUSH1 0x0 DUP1 REVERT JUMPDEST PUSH3 0x5A6 DUP7 DUP3 DUP8 ADD PUSH3 0x510 JUMP JUMPDEST SWAP3 POP POP PUSH1 0x40 DUP5 ADD MLOAD PUSH8 0xFFFFFFFFFFFFFFFF DUP2 GT ISZERO PUSH3 0x5C4 JUMPI PUSH1 0x0 DUP1 REVERT JUMPDEST PUSH3 0x5D2 DUP7 DUP3 DUP8 ADD PUSH3 0x510 JUMP JUMPDEST SWAP2 POP POP SWAP3 POP SWAP3 POP SWAP3 JUMP JUMPDEST PUSH3 0x5E7 DUP2 PUSH3 0x6CC JUMP JUMPDEST DUP3 MSTORE POP POP JUMP JUMPDEST PUSH3 0x5F8 DUP2 PUSH3 0x6C2 JUMP JUMPDEST DUP3 MSTORE POP POP JUMP JUMPDEST PUSH1 0x0 PUSH1 0x40 DUP3 ADD SWAP1 POP PUSH3 0x615 PUSH1 0x0 DUP4 ADD DUP6 PUSH3 0x5DC JUMP JUMPDEST PUSH3 0x624 PUSH1 0x20 DUP4 ADD DUP5 PUSH3 0x5ED JUMP JUMPDEST SWAP4 SWAP3 POP POP POP JUMP JUMPDEST PUSH1 0x0 PUSH1 0x40 MLOAD SWAP1 POP DUP2 DUP2 ADD DUP2 DUP2 LT PUSH8 0xFFFFFFFFFFFFFFFF DUP3 GT OR ISZERO PUSH3 0x655 JUMPI PUSH3 0x654 PUSH3 0x6E0 JUMP JUMPDEST JUMPDEST DUP1 PUSH1 0x40 MSTORE POP SWAP2 SWAP1 POP JUMP JUMPDEST PUSH1 0x0 PUSH8 0xFFFFFFFFFFFFFFFF DUP3 GT ISZERO PUSH3 0x67D JUMPI PUSH3 0x67C PUSH3 0x6E0 JUMP JUMPDEST JUMPDEST PUSH1 0x20 DUP3 MUL SWAP1 POP PUSH1 0x20 DUP2 ADD SWAP1 POP SWAP2 SWAP1 POP JUMP JUMPDEST PUSH1 0x0 PUSH3 0x69B DUP3 PUSH3 0x6A2 JUMP JUMPDEST SWAP1 POP SWAP2 SWAP1 POP JUMP JUMPDEST PUSH1 0x0 PUSH20 0xFFFFFFFFFFFFFFFFFFFFFFFFFFFFFFFFFFFFFFFF DUP3 AND SWAP1 POP SWAP2 SWAP1 POP JUMP JUMPDEST PUSH1 0x0 DUP2 SWAP1 POP SWAP2 SWAP1 POP JUMP JUMPDEST PUSH1 0x0 PUSH3 0x6D9 DUP3 PUSH3 0x6C2 JUMP JUMPDEST SWAP1 POP SWAP2 SWAP1 POP JUMP JUMPDEST INVALID JUMPDEST PUSH3 0x6ED DUP2 PUSH3 0x68E JUMP JUMPDEST DUP2 EQ PUSH3 0x6F9 JUMPI PUSH1 0x0 DUP1 REVERT JUMPDEST POP JUMP JUMPDEST PUSH3 0x707 DUP2 PUSH3 0x6C2 JUMP JUMPDEST DUP2 EQ PUSH3 0x713 JUMPI PUSH1 0x0 DUP1 REVERT JUMPDEST POP JUMP JUMPDEST PUSH2 0x294A DUP1 PUSH3 0x726 PUSH1 0x0 CODECOPY PUSH1 0x0 RETURN INVALID PUSH1 0x80 PUSH1 0x40 MSTORE PUSH1 0x4 CALLDATASIZE LT PUSH2 0x16A JUMPI PUSH1 0x0 CALLDATALOAD PUSH1 0xE0 SHR DUP1 PUSH4 0x8065657F GT PUSH2 0xD1 JUMPI DUP1 PUSH4 0xB1C5F427 GT PUSH2 0x8A JUMPI DUP1 PUSH4 0xD45C4435 GT PUSH2 0x64 JUMPI DUP1 PUSH4 0xD45C4435 EQ PUSH2 0x596 JUMPI DUP1 PUSH4 0xD547741F EQ PUSH2 0x5D3 JUMPI DUP1 PUSH4 0xE38335E5 EQ PUSH2 0x5FC JUMPI DUP1 PUSH4 0xF27A0C92 EQ PUSH2 0x618 JUMPI PUSH2 0x171 JUMP JUMPDEST DUP1 PUSH4 0xB1C5F427 EQ PUSH2 0x4F3 JUMPI DUP1 PUSH4 0xC4D252F5 EQ PUSH2 0x530 JUMPI DUP1 PUSH4 0xCA15C873 EQ PUSH2 0x559 JUMPI PUSH2 0x171 JUMP JUMPDEST DUP1 PUSH4 0x8065657F EQ PUSH2 0x3BD JUMPI DUP1 PUSH4 0x8F2A0BB0 EQ PUSH2 0x3FA JUMPI DUP1 PUSH4 0x8F61F4F5 EQ PUSH2 0x423 JUMPI DUP1 PUSH4 0x9010D07C EQ PUSH2 0x44E JUMPI DUP1 PUSH4 0x91D14854 EQ PUSH2 0x48B JUMPI DUP1 PUSH4 0xA217FDDF EQ PUSH2 0x4C8 JUMPI PUSH2 0x171 JUMP JUMPDEST DUP1 PUSH4 0x2AB0F529 GT PUSH2 0x123 JUMPI DUP1 PUSH4 0x2AB0F529 EQ PUSH2 0x28B JUMPI DUP1 PUSH4 0x2F2FF15D EQ PUSH2 0x2C8 JUMPI DUP1 PUSH4 0x31D50750 EQ PUSH2 0x2F1 JUMPI DUP1 PUSH4 0x36568ABE EQ PUSH2 0x32E JUMPI DUP1 PUSH4 0x584B153E EQ PUSH2 0x357 JUMPI DUP1 PUSH4 0x64D62353 EQ PUSH2 0x394 JUMPI PUSH2 0x171 JUMP JUMPDEST DUP1 PUSH4 0x1D5062A EQ PUSH2 0x176 JUMPI DUP1 PUSH4 0x7BD0265 EQ PUSH2 0x19F JUMPI DUP1 PUSH4 0xD3CF6FC EQ PUSH2 0x1CA JUMPI DUP1 PUSH4 0x134008D3 EQ PUSH2 0x1F5 JUMPI DUP1 PUSH4 0x13BC9F20 EQ PUSH2 0x211 JUMPI DUP1 PUSH4 0x248A9CA3 EQ PUSH2 0x24E JUMPI PUSH2 0x171 JUMP JUMPDEST CALLDATASIZE PUSH2 0x171 JUMPI STOP JUMPDEST PUSH1 0x0 DUP1 REVERT JUMPDEST CALLVALUE DUP1 ISZERO PUSH2 0x182 JUMPI PUSH1 0x0 DUP1 REVERT JUMPDEST POP PUSH2 0x19D PUSH1 0x4 DUP1 CALLDATASIZE SUB DUP2 ADD SWAP1 PUSH2 0x198 SWAP2 SWAP1 PUSH2 0x1A40 JUMP JUMPDEST PUSH2 0x643 JUMP JUMPDEST STOP JUMPDEST CALLVALUE DUP1 ISZERO PUSH2 0x1AB JUMPI PUSH1 0x0 DUP1 REVERT JUMPDEST POP PUSH2 0x1B4 PUSH2 0x731 JUMP JUMPDEST PUSH1 0x40 MLOAD PUSH2 0x1C1 SWAP2 SWAP1 PUSH2 0x24CA JUMP JUMPDEST PUSH1 0x40 MLOAD DUP1 SWAP2 SUB SWAP1 RETURN JUMPDEST CALLVALUE DUP1 ISZERO PUSH2 0x1D6 JUMPI PUSH1 0x0 DUP1 REVERT JUMPDEST POP PUSH2 0x1DF PUSH2 0x755 JUMP JUMPDEST PUSH1 0x40 MLOAD PUSH2 0x1EC SWAP2 SWAP1 PUSH2 0x24CA JUMP JUMPDEST PUSH1 0x40 MLOAD DUP1 SWAP2 SUB SWAP1 RETURN JUMPDEST PUSH2 0x20F PUSH1 0x4 DUP1 CALLDATASIZE SUB DUP2 ADD SWAP1 PUSH2 0x20A SWAP2 SWAP1 PUSH2 0x19AE JUMP JUMPDEST PUSH2 0x779 JUMP JUMPDEST STOP JUMPDEST CALLVALUE DUP1 ISZERO PUSH2 0x21D JUMPI PUSH1 0x0 DUP1 REVERT JUMPDEST POP PUSH2 0x238 PUSH1 0x4 DUP1 CALLDATASIZE SUB DUP2 ADD SWAP1 PUSH2 0x233 SWAP2 SWAP1 PUSH2 0x1C92 JUMP JUMPDEST PUSH2 0x839 JUMP JUMPDEST PUSH1 0x40 MLOAD PUSH2 0x245 SWAP2 SWAP1 PUSH2 0x24AF JUMP JUMPDEST PUSH1 0x40 MLOAD DUP1 SWAP2 SUB SWAP1 RETURN JUMPDEST CALLVALUE DUP1 ISZERO PUSH2 0x25A JUMPI PUSH1 0x0 DUP1 REVERT JUMPDEST POP PUSH2 0x275 PUSH1 0x4 DUP1 CALLDATASIZE SUB DUP2 ADD SWAP1 PUSH2 0x270 SWAP2 SWAP1 PUSH2 0x1C92 JUMP JUMPDEST PUSH2 0x85F JUMP JUMPDEST PUSH1 0x40 MLOAD PUSH2 0x282 SWAP2 SWAP1 PUSH2 0x24CA JUMP JUMPDEST PUSH1 0x40 MLOAD DUP1 SWAP2 SUB SWAP1 RETURN JUMPDEST CALLVALUE DUP1 ISZERO PUSH2 0x297 JUMPI PUSH1 0x0 DUP1 REVERT JUMPDEST POP PUSH2 0x2B2 PUSH1 0x4 DUP1 CALLDATASIZE SUB DUP2 ADD SWAP1 PUSH2 0x2AD SWAP2 SWAP1 PUSH2 0x1C92 JUMP JUMPDEST PUSH2 0x87E JUMP JUMPDEST PUSH1 0x40 MLOAD PUSH2 0x2BF SWAP2 SWAP1 PUSH2 0x24AF JUMP JUMPDEST PUSH1 0x40 MLOAD DUP1 SWAP2 SUB SWAP1 RETURN JUMPDEST CALLVALUE DUP1 ISZERO PUSH2 0x2D4 JUMPI PUSH1 0x0 DUP1 REVERT JUMPDEST POP PUSH2 0x2EF PUSH1 0x4 DUP1 CALLDATASIZE SUB DUP2 ADD SWAP1 PUSH2 0x2EA SWAP2 SWAP1 PUSH2 0x1CBB JUMP JUMPDEST PUSH2 0x893 JUMP JUMPDEST STOP JUMPDEST CALLVALUE DUP1 ISZERO PUSH2 0x2FD JUMPI PUSH1 0x0 DUP1 REVERT JUMPDEST POP PUSH2 0x318 PUSH1 0x4 DUP1 CALLDATASIZE SUB DUP2 ADD SWAP1 PUSH2 0x313 SWAP2 SWAP1 PUSH2 0x1C92 JUMP JUMPDEST PUSH2 0x91C JUMP JUMPDEST PUSH1 0x40 MLOAD PUSH2 0x325 SWAP2 SWAP1 PUSH2 0x24AF JUMP JUMPDEST PUSH1 0x40 MLOAD DUP1 SWAP2 SUB SWAP1 RETURN JUMPDEST CALLVALUE DUP1 ISZERO PUSH2 0x33A JUMPI PUSH1 0x0 DUP1 REVERT JUMPDEST POP PUSH2 0x355 PUSH1 0x4 DUP1 CALLDATASIZE SUB DUP2 ADD SWAP1 PUSH2 0x350 SWAP2 SWAP1 PUSH2 0x1CBB JUMP JUMPDEST PUSH2 0x930 JUMP JUMPDEST STOP JUMPDEST CALLVALUE DUP1 ISZERO PUSH2 0x363 JUMPI PUSH1 0x0 DUP1 REVERT JUMPDEST POP PUSH2 0x37E PUSH1 0x4 DUP1 CALLDATASIZE SUB DUP2 ADD SWAP1 PUSH2 0x379 SWAP2 SWAP1 PUSH2 0x1C92 JUMP JUMPDEST PUSH2 0x9C9 JUMP JUMPDEST PUSH1 0x40 MLOAD PUSH2 0x38B SWAP2 SWAP1 PUSH2 0x24AF JUMP JUMPDEST PUSH1 0x40 MLOAD DUP1 SWAP2 SUB SWAP1 RETURN JUMPDEST CALLVALUE DUP1 ISZERO PUSH2 0x3A0 JUMPI PUSH1 0x0 DUP1 REVERT JUMPDEST POP PUSH2 0x3BB PUSH1 0x4 DUP1 CALLDATASIZE SUB DUP2 ADD SWAP1 PUSH2 0x3B6 SWAP2 SWAP1 PUSH2 0x1D33 JUMP JUMPDEST PUSH2 0x9DE JUMP JUMPDEST STOP JUMPDEST CALLVALUE DUP1 ISZERO PUSH2 0x3C9 JUMPI PUSH1 0x0 DUP1 REVERT JUMPDEST POP PUSH2 0x3E4 PUSH1 0x4 DUP1 CALLDATASIZE SUB DUP2 ADD SWAP1 PUSH2 0x3DF SWAP2 SWAP1 PUSH2 0x19AE JUMP JUMPDEST PUSH2 0xA91 JUMP JUMPDEST PUSH1 0x40 MLOAD PUSH2 0x3F1 SWAP2 SWAP1 PUSH2 0x24CA JUMP JUMPDEST PUSH1 0x40 MLOAD DUP1 SWAP2 SUB SWAP1 RETURN JUMPDEST CALLVALUE DUP1 ISZERO PUSH2 0x406 JUMPI PUSH1 0x0 DUP1 REVERT JUMPDEST POP PUSH2 0x421 PUSH1 0x4 DUP1 CALLDATASIZE SUB DUP2 ADD SWAP1 PUSH2 0x41C SWAP2 SWAP1 PUSH2 0x1BB3 JUMP JUMPDEST PUSH2 0xAD0 JUMP JUMPDEST STOP JUMPDEST CALLVALUE DUP1 ISZERO PUSH2 0x42F JUMPI PUSH1 0x0 DUP1 REVERT JUMPDEST POP PUSH2 0x438 PUSH2 0xCB9 JUMP JUMPDEST PUSH1 0x40 MLOAD PUSH2 0x445 SWAP2 SWAP1 PUSH2 0x24CA JUMP JUMPDEST PUSH1 0x40 MLOAD DUP1 SWAP2 SUB SWAP1 RETURN JUMPDEST CALLVALUE DUP1 ISZERO PUSH2 0x45A JUMPI PUSH1 0x0 DUP1 REVERT JUMPDEST POP PUSH2 0x475 PUSH1 0x4 DUP1 CALLDATASIZE SUB DUP2 ADD SWAP1 PUSH2 0x470 SWAP2 SWAP1 PUSH2 0x1CF7 JUMP JUMPDEST PUSH2 0xCDD JUMP JUMPDEST PUSH1 0x40 MLOAD PUSH2 0x482 SWAP2 SWAP1 PUSH2 0x232E JUMP JUMPDEST PUSH1 0x40 MLOAD DUP1 SWAP2 SUB SWAP1 RETURN JUMPDEST CALLVALUE DUP1 ISZERO PUSH2 0x497 JUMPI PUSH1 0x0 DUP1 REVERT JUMPDEST POP PUSH2 0x4B2 PUSH1 0x4 DUP1 CALLDATASIZE SUB DUP2 ADD SWAP1 PUSH2 0x4AD SWAP2 SWAP1 PUSH2 0x1CBB JUMP JUMPDEST PUSH2 0xD0E JUMP JUMPDEST PUSH1 0x40 MLOAD PUSH2 0x4BF SWAP2 SWAP1 PUSH2 0x24AF JUMP JUMPDEST PUSH1 0x40 MLOAD DUP1 SWAP2 SUB SWAP1 RETURN JUMPDEST CALLVALUE DUP1 ISZERO PUSH2 0x4D4 JUMPI PUSH1 0x0 DUP1 REVERT JUMPDEST POP PUSH2 0x4DD PUSH2 0xD3F JUMP JUMPDEST PUSH1 0x40 MLOAD PUSH2 0x4EA SWAP2 SWAP1 PUSH2 0x24CA JUMP JUMPDEST PUSH1 0x40 MLOAD DUP1 SWAP2 SUB SWAP1 RETURN JUMPDEST CALLVALUE DUP1 ISZERO PUSH2 0x4FF JUMPI PUSH1 0x0 DUP1 REVERT JUMPDEST POP PUSH2 0x51A PUSH1 0x4 DUP1 CALLDATASIZE SUB DUP2 ADD SWAP1 PUSH2 0x515 SWAP2 SWAP1 PUSH2 0x1AE7 JUMP JUMPDEST PUSH2 0xD46 JUMP JUMPDEST PUSH1 0x40 MLOAD PUSH2 0x527 SWAP2 SWAP1 PUSH2 0x24CA JUMP JUMPDEST PUSH1 0x40 MLOAD DUP1 SWAP2 SUB SWAP1 RETURN JUMPDEST CALLVALUE DUP1 ISZERO PUSH2 0x53C JUMPI PUSH1 0x0 DUP1 REVERT JUMPDEST POP PUSH2 0x557 PUSH1 0x4 DUP1 CALLDATASIZE SUB DUP2 ADD SWAP1 PUSH2 0x552 SWAP2 SWAP1 PUSH2 0x1C92 JUMP JUMPDEST PUSH2 0xD8B JUMP JUMPDEST STOP JUMPDEST CALLVALUE DUP1 ISZERO PUSH2 0x565 JUMPI PUSH1 0x0 DUP1 REVERT JUMPDEST POP PUSH2 0x580 PUSH1 0x4 DUP1 CALLDATASIZE SUB DUP2 ADD SWAP1 PUSH2 0x57B SWAP2 SWAP1 PUSH2 0x1C92 JUMP JUMPDEST PUSH2 0xE9E JUMP JUMPDEST PUSH1 0x40 MLOAD PUSH2 0x58D SWAP2 SWAP1 PUSH2 0x2605 JUMP JUMPDEST PUSH1 0x40 MLOAD DUP1 SWAP2 SUB SWAP1 RETURN JUMPDEST CALLVALUE DUP1 ISZERO PUSH2 0x5A2 JUMPI PUSH1 0x0 DUP1 REVERT JUMPDEST POP PUSH2 0x5BD PUSH1 0x4 DUP1 CALLDATASIZE SUB DUP2 ADD SWAP1 PUSH2 0x5B8 SWAP2 SWAP1 PUSH2 0x1C92 JUMP JUMPDEST PUSH2 0xEC4 JUMP JUMPDEST PUSH1 0x40 MLOAD PUSH2 0x5CA SWAP2 SWAP1 PUSH2 0x2605 JUMP JUMPDEST PUSH1 0x40 MLOAD DUP1 SWAP2 SUB SWAP1 RETURN JUMPDEST CALLVALUE DUP1 ISZERO PUSH2 0x5DF JUMPI PUSH1 0x0 DUP1 REVERT JUMPDEST POP PUSH2 0x5FA PUSH1 0x4 DUP1 CALLDATASIZE SUB DUP2 ADD SWAP1 PUSH2 0x5F5 SWAP2 SWAP1 PUSH2 0x1CBB JUMP JUMPDEST PUSH2 0xEE1 JUMP JUMPDEST STOP JUMPDEST PUSH2 0x616 PUSH1 0x4 DUP1 CALLDATASIZE SUB DUP2 ADD SWAP1 PUSH2 0x611 SWAP2 SWAP1 PUSH2 0x1AE7 JUMP JUMPDEST PUSH2 0xF6A JUMP JUMPDEST STOP JUMPDEST CALLVALUE DUP1 ISZERO PUSH2 0x624 JUMPI PUSH1 0x0 DUP1 REVERT JUMPDEST POP PUSH2 0x62D PUSH2 0x1125 JUMP JUMPDEST PUSH1 0x40 MLOAD PUSH2 0x63A SWAP2 SWAP1 PUSH2 0x2605 JUMP JUMPDEST PUSH1 0x40 MLOAD DUP1 SWAP2 SUB SWAP1 RETURN JUMPDEST PUSH32 0xB09AA5AEB3702CFD50B6B62BC4532604938F21248A27A1D5CA736082B6819CC1 PUSH2 0x675 DUP2 PUSH2 0x670 PUSH2 0x115F JUMP JUMPDEST PUSH2 0xD0E JUMP JUMPDEST DUP1 PUSH2 0x687 JUMPI POP PUSH2 0x686 DUP2 PUSH1 0x0 PUSH2 0xD0E JUMP JUMPDEST JUMPDEST PUSH2 0x6C6 JUMPI PUSH1 0x40 MLOAD PUSH32 0x8C379A000000000000000000000000000000000000000000000000000000000 DUP2 MSTORE PUSH1 0x4 ADD PUSH2 0x6BD SWAP1 PUSH2 0x2525 JUMP JUMPDEST PUSH1 0x40 MLOAD DUP1 SWAP2 SUB SWAP1 REVERT JUMPDEST PUSH1 0x0 PUSH2 0x6D6 DUP10 DUP10 DUP10 DUP10 DUP10 DUP10 PUSH2 0xA91 JUMP JUMPDEST SWAP1 POP PUSH2 0x6E2 DUP2 DUP5 PUSH2 0x1167 JUMP JUMPDEST PUSH1 0x0 DUP2 PUSH32 0x4CF4410CC57040E44862EF0F45F3DD5A5E02DB8EB8ADD648D4B0E236F1D07DCA DUP12 DUP12 DUP12 DUP12 DUP12 DUP11 PUSH1 0x40 MLOAD PUSH2 0x71E SWAP7 SWAP6 SWAP5 SWAP4 SWAP3 SWAP2 SWAP1 PUSH2 0x23E5 JUMP JUMPDEST PUSH1 0x40 MLOAD DUP1 SWAP2 SUB SWAP1 LOG3 POP POP POP POP POP POP POP POP POP JUMP JUMPDEST PUSH32 0xD8AA0F3194971A2A116679F7C2090F6939C8D4E01A2A8D7E41D55E5351469E63 DUP2 JUMP JUMPDEST PUSH32 0x5F58E3A2316349923CE3780F8D587DB2D72378AED66A8261C916544FA6846CA5 DUP2 JUMP JUMPDEST PUSH32 0xD8AA0F3194971A2A116679F7C2090F6939C8D4E01A2A8D7E41D55E5351469E63 PUSH2 0x7AB DUP2 PUSH2 0x7A6 PUSH2 0x115F JUMP JUMPDEST PUSH2 0xD0E JUMP JUMPDEST DUP1 PUSH2 0x7BD JUMPI POP PUSH2 0x7BC DUP2 PUSH1 0x0 PUSH2 0xD0E JUMP JUMPDEST JUMPDEST PUSH2 0x7FC JUMPI PUSH1 0x40 MLOAD PUSH32 0x8C379A000000000000000000000000000000000000000000000000000000000 DUP2 MSTORE PUSH1 0x4 ADD PUSH2 0x7F3 SWAP1 PUSH2 0x2525 JUMP JUMPDEST PUSH1 0x40 MLOAD DUP1 SWAP2 SUB SWAP1 REVERT JUMPDEST PUSH1 0x0 PUSH2 0x80C DUP9 DUP9 DUP9 DUP9 DUP9 DUP9 PUSH2 0xA91 JUMP JUMPDEST SWAP1 POP PUSH2 0x817 DUP5 PUSH2 0x121F JUMP JUMPDEST PUSH2 0x826 DUP2 PUSH1 0x0 DUP11 DUP11 DUP11 DUP11 PUSH2 0x1277 JUMP JUMPDEST PUSH2 0x82F DUP2 PUSH2 0x136F JUMP JUMPDEST POP POP POP POP POP POP POP POP JUMP JUMPDEST PUSH1 0x0 DUP1 PUSH2 0x845 DUP4 PUSH2 0xEC4 JUMP JUMPDEST SWAP1 POP PUSH1 0x1 DUP2 GT DUP1 ISZERO PUSH2 0x857 JUMPI POP TIMESTAMP DUP2 GT ISZERO JUMPDEST SWAP2 POP POP SWAP2 SWAP1 POP JUMP JUMPDEST PUSH1 0x0 DUP1 PUSH1 0x0 DUP4 DUP2 MSTORE PUSH1 0x20 ADD SWAP1 DUP2 MSTORE PUSH1 0x20 ADD PUSH1 0x0 KECCAK256 PUSH1 0x2 ADD SLOAD SWAP1 POP SWAP2 SWAP1 POP JUMP JUMPDEST PUSH1 0x0 PUSH1 0x1 PUSH2 0x88B DUP4 PUSH2 0xEC4 JUMP JUMPDEST EQ SWAP1 POP SWAP2 SWAP1 POP JUMP JUMPDEST PUSH2 0x8B9 PUSH1 0x0 DUP1 DUP5 DUP2 MSTORE PUSH1 0x20 ADD SWAP1 DUP2 MSTORE PUSH1 0x20 ADD PUSH1 0x0 KECCAK256 PUSH1 0x2 ADD SLOAD PUSH2 0x8B4 PUSH2 0x115F JUMP JUMPDEST PUSH2 0xD0E JUMP JUMPDEST PUSH2 0x90E JUMPI PUSH1 0x40 MLOAD PUSH32 0x8C379A000000000000000000000000000000000000000000000000000000000 DUP2 MSTORE PUSH1 0x4 ADD DUP1 DUP1 PUSH1 0x20 ADD DUP3 DUP2 SUB DUP3 MSTORE PUSH1 0x2F DUP2 MSTORE PUSH1 0x20 ADD DUP1 PUSH2 0x2887 PUSH1 0x2F SWAP2 CODECOPY PUSH1 0x40 ADD SWAP2 POP POP PUSH1 0x40 MLOAD DUP1 SWAP2 SUB SWAP1 REVERT JUMPDEST PUSH2 0x918 DUP3 DUP3 PUSH2 0x13D2 JUMP JUMPDEST POP POP JUMP JUMPDEST PUSH1 0x0 DUP1 PUSH2 0x928 DUP4 PUSH2 0xEC4 JUMP JUMPDEST GT SWAP1 POP SWAP2 SWAP1 POP JUMP JUMPDEST PUSH2 0x938 PUSH2 0x115F JUMP JUMPDEST PUSH20 0xFFFFFFFFFFFFFFFFFFFFFFFFFFFFFFFFFFFFFFFF AND DUP2 PUSH20 0xFFFFFFFFFFFFFFFFFFFFFFFFFFFFFFFFFFFFFFFF AND EQ PUSH2 0x9BB JUMPI PUSH1 0x40 MLOAD PUSH32 0x8C379A000000000000000000000000000000000000000000000000000000000 DUP2 MSTORE PUSH1 0x4 ADD DUP1 DUP1 PUSH1 0x20 ADD DUP3 DUP2 SUB DUP3 MSTORE PUSH1 0x2F DUP2 MSTORE PUSH1 0x20 ADD DUP1 PUSH2 0x28E6 PUSH1 0x2F SWAP2 CODECOPY PUSH1 0x40 ADD SWAP2 POP POP PUSH1 0x40 MLOAD DUP1 SWAP2 SUB SWAP1 REVERT JUMPDEST PUSH2 0x9C5 DUP3 DUP3 PUSH2 0x1465 JUMP JUMPDEST POP POP JUMP JUMPDEST PUSH1 0x0 PUSH1 0x1 PUSH2 0x9D6 DUP4 PUSH2 0xEC4 JUMP JUMPDEST GT SWAP1 POP SWAP2 SWAP1 POP JUMP JUMPDEST ADDRESS PUSH20 0xFFFFFFFFFFFFFFFFFFFFFFFFFFFFFFFFFFFFFFFF AND CALLER PUSH20 0xFFFFFFFFFFFFFFFFFFFFFFFFFFFFFFFFFFFFFFFF AND EQ PUSH2 0xA4C JUMPI PUSH1 0x40 MLOAD PUSH32 0x8C379A000000000000000000000000000000000000000000000000000000000 DUP2 MSTORE PUSH1 0x4 ADD PUSH2 0xA43 SWAP1 PUSH2 0x25C5 JUMP JUMPDEST PUSH1 0x40 MLOAD DUP1 SWAP2 SUB SWAP1 REVERT JUMPDEST PUSH32 0x11C24F4EAD16507C69AC467FBD5E4EED5FB5C699626D2CC6D66421DF253886D5 PUSH1 0x2 SLOAD DUP3 PUSH1 0x40 MLOAD PUSH2 0xA7F SWAP3 SWAP2 SWAP1 PUSH2 0x2620 JUMP JUMPDEST PUSH1 0x40 MLOAD DUP1 SWAP2 SUB SWAP1 LOG1 DUP1 PUSH1 0x2 DUP2 SWAP1 SSTORE POP POP JUMP JUMPDEST PUSH1 0x0 DUP7 DUP7 DUP7 DUP7 DUP7 DUP7 PUSH1 0x40 MLOAD PUSH1 0x20 ADD PUSH2 0xAAE SWAP7 SWAP6 SWAP5 SWAP4 SWAP3 SWAP2 SWAP1 PUSH2 0x2389 JUMP JUMPDEST PUSH1 0x40 MLOAD PUSH1 0x20 DUP2 DUP4 SUB SUB DUP2 MSTORE SWAP1 PUSH1 0x40 MSTORE DUP1 MLOAD SWAP1 PUSH1 0x20 ADD KECCAK256 SWAP1 POP SWAP7 SWAP6 POP POP POP POP POP POP JUMP JUMPDEST PUSH32 0xB09AA5AEB3702CFD50B6B62BC4532604938F21248A27A1D5CA736082B6819CC1 PUSH2 0xB02 DUP2 PUSH2 0xAFD PUSH2 0x115F JUMP JUMPDEST PUSH2 0xD0E JUMP JUMPDEST DUP1 PUSH2 0xB14 JUMPI POP PUSH2 0xB13 DUP2 PUSH1 0x0 PUSH2 0xD0E JUMP JUMPDEST JUMPDEST PUSH2 0xB53 JUMPI PUSH1 0x40 MLOAD PUSH32 0x8C379A000000000000000000000000000000000000000000000000000000000 DUP2 MSTORE PUSH1 0x4 ADD PUSH2 0xB4A SWAP1 PUSH2 0x2525 JUMP JUMPDEST PUSH1 0x40 MLOAD DUP1 SWAP2 SUB SWAP1 REVERT JUMPDEST DUP8 DUP8 SWAP1 POP DUP11 DUP11 SWAP1 POP EQ PUSH2 0xB9B JUMPI PUSH1 0x40 MLOAD PUSH32 0x8C379A000000000000000000000000000000000000000000000000000000000 DUP2 MSTORE PUSH1 0x4 ADD PUSH2 0xB92 SWAP1 PUSH2 0x2505 JUMP JUMPDEST PUSH1 0x40 MLOAD DUP1 SWAP2 SUB SWAP1 REVERT JUMPDEST DUP6 DUP6 SWAP1 POP DUP11 DUP11 SWAP1 POP EQ PUSH2 0xBE3 JUMPI PUSH1 0x40 MLOAD PUSH32 0x8C379A000000000000000000000000000000000000000000000000000000000 DUP2 MSTORE PUSH1 0x4 ADD PUSH2 0xBDA SWAP1 PUSH2 0x2505 JUMP JUMPDEST PUSH1 0x40 MLOAD DUP1 SWAP2 SUB SWAP1 REVERT JUMPDEST PUSH1 0x0 PUSH2 0xBF5 DUP12 DUP12 DUP12 DUP12 DUP12 DUP12 DUP12 DUP12 PUSH2 0xD46 JUMP JUMPDEST SWAP1 POP PUSH2 0xC01 DUP2 DUP5 PUSH2 0x1167 JUMP JUMPDEST PUSH1 0x0 JUMPDEST DUP12 DUP12 SWAP1 POP DUP2 LT ISZERO PUSH2 0xCAB JUMPI DUP1 DUP3 PUSH32 0x4CF4410CC57040E44862EF0F45F3DD5A5E02DB8EB8ADD648D4B0E236F1D07DCA DUP15 DUP15 DUP6 DUP2 DUP2 LT PUSH2 0xC3E JUMPI INVALID JUMPDEST SWAP1 POP PUSH1 0x20 MUL ADD PUSH1 0x20 DUP2 ADD SWAP1 PUSH2 0xC53 SWAP2 SWAP1 PUSH2 0x1985 JUMP JUMPDEST DUP14 DUP14 DUP7 DUP2 DUP2 LT PUSH2 0xC5F JUMPI INVALID JUMPDEST SWAP1 POP PUSH1 0x20 MUL ADD CALLDATALOAD DUP13 DUP13 DUP8 DUP2 DUP2 LT PUSH2 0xC72 JUMPI INVALID JUMPDEST SWAP1 POP PUSH1 0x20 MUL DUP2 ADD SWAP1 PUSH2 0xC84 SWAP2 SWAP1 PUSH2 0x2649 JUMP JUMPDEST DUP13 DUP12 PUSH1 0x40 MLOAD PUSH2 0xC98 SWAP7 SWAP6 SWAP5 SWAP4 SWAP3 SWAP2 SWAP1 PUSH2 0x23E5 JUMP JUMPDEST PUSH1 0x40 MLOAD DUP1 SWAP2 SUB SWAP1 LOG3 DUP1 PUSH1 0x1 ADD SWAP1 POP PUSH2 0xC04 JUMP JUMPDEST POP POP POP POP POP POP POP POP POP POP POP POP JUMP JUMPDEST PUSH32 0xB09AA5AEB3702CFD50B6B62BC4532604938F21248A27A1D5CA736082B6819CC1 DUP2 JUMP JUMPDEST PUSH1 0x0 PUSH2 0xD06 DUP3 PUSH1 0x0 DUP1 DUP7 DUP2 MSTORE PUSH1 0x20 ADD SWAP1 DUP2 MSTORE PUSH1 0x20 ADD PUSH1 0x0 KECCAK256 PUSH1 0x0 ADD PUSH2 0x14F8 SWAP1 SWAP2 SWAP1 PUSH4 0xFFFFFFFF AND JUMP JUMPDEST SWAP1 POP SWAP3 SWAP2 POP POP JUMP JUMPDEST PUSH1 0x0 PUSH2 0xD37 DUP3 PUSH1 0x0 DUP1 DUP7 DUP2 MSTORE PUSH1 0x20 ADD SWAP1 DUP2 MSTORE PUSH1 0x20 ADD PUSH1 0x0 KECCAK256 PUSH1 0x0 ADD PUSH2 0x1512 SWAP1 SWAP2 SWAP1 PUSH4 0xFFFFFFFF AND JUMP JUMPDEST SWAP1 POP SWAP3 SWAP2 POP POP JUMP JUMPDEST PUSH1 0x0 DUP1 SHL DUP2 JUMP JUMPDEST PUSH1 0x0 DUP9 DUP9 DUP9 DUP9 DUP9 DUP9 DUP9 DUP9 PUSH1 0x40 MLOAD PUSH1 0x20 ADD PUSH2 0xD67 SWAP9 SWAP8 SWAP7 SWAP6 SWAP5 SWAP4 SWAP3 SWAP2 SWAP1 PUSH2 0x2441 JUMP JUMPDEST PUSH1 0x40 MLOAD PUSH1 0x20 DUP2 DUP4 SUB SUB DUP2 MSTORE SWAP1 PUSH1 0x40 MSTORE DUP1 MLOAD SWAP1 PUSH1 0x20 ADD KECCAK256 SWAP1 POP SWAP9 SWAP8 POP POP POP POP POP POP POP POP JUMP JUMPDEST PUSH32 0xB09AA5AEB3702CFD50B6B62BC4532604938F21248A27A1D5CA736082B6819CC1 PUSH2 0xDBD DUP2 PUSH2 0xDB8 PUSH2 0x115F JUMP JUMPDEST PUSH2 0xD0E JUMP JUMPDEST DUP1 PUSH2 0xDCF JUMPI POP PUSH2 0xDCE DUP2 PUSH1 0x0 PUSH2 0xD0E JUMP JUMPDEST JUMPDEST PUSH2 0xE0E JUMPI PUSH1 0x40 MLOAD PUSH32 0x8C379A000000000000000000000000000000000000000000000000000000000 DUP2 MSTORE PUSH1 0x4 ADD PUSH2 0xE05 SWAP1 PUSH2 0x2525 JUMP JUMPDEST PUSH1 0x40 MLOAD DUP1 SWAP2 SUB SWAP1 REVERT JUMPDEST PUSH2 0xE17 DUP3 PUSH2 0x9C9 JUMP JUMPDEST PUSH2 0xE56 JUMPI PUSH1 0x40 MLOAD PUSH32 0x8C379A000000000000000000000000000000000000000000000000000000000 DUP2 MSTORE PUSH1 0x4 ADD PUSH2 0xE4D SWAP1 PUSH2 0x25A5 JUMP JUMPDEST PUSH1 0x40 MLOAD DUP1 SWAP2 SUB SWAP1 REVERT JUMPDEST PUSH1 0x1 PUSH1 0x0 DUP4 DUP2 MSTORE PUSH1 0x20 ADD SWAP1 DUP2 MSTORE PUSH1 0x20 ADD PUSH1 0x0 KECCAK256 PUSH1 0x0 SWAP1 SSTORE DUP2 PUSH32 0xBAA1EB22F2A492BA1A5FEA61B8DF4D27C6C8B5F3971E63BB58FA14FF72EEDB70 PUSH1 0x40 MLOAD PUSH1 0x40 MLOAD DUP1 SWAP2 SUB SWAP1 LOG2 POP POP JUMP JUMPDEST PUSH1 0x0 PUSH2 0xEBD PUSH1 0x0 DUP1 DUP5 DUP2 MSTORE PUSH1 0x20 ADD SWAP1 DUP2 MSTORE PUSH1 0x20 ADD PUSH1 0x0 KECCAK256 PUSH1 0x0 ADD PUSH2 0x1542 JUMP JUMPDEST SWAP1 POP SWAP2 SWAP1 POP JUMP JUMPDEST PUSH1 0x0 PUSH1 0x1 PUSH1 0x0 DUP4 DUP2 MSTORE PUSH1 0x20 ADD SWAP1 DUP2 MSTORE PUSH1 0x20 ADD PUSH1 0x0 KECCAK256 SLOAD SWAP1 POP SWAP2 SWAP1 POP JUMP JUMPDEST PUSH2 0xF07 PUSH1 0x0 DUP1 DUP5 DUP2 MSTORE PUSH1 0x20 ADD SWAP1 DUP2 MSTORE PUSH1 0x20 ADD PUSH1 0x0 KECCAK256 PUSH1 0x2 ADD SLOAD PUSH2 0xF02 PUSH2 0x115F JUMP JUMPDEST PUSH2 0xD0E JUMP JUMPDEST PUSH2 0xF5C JUMPI PUSH1 0x40 MLOAD PUSH32 0x8C379A000000000000000000000000000000000000000000000000000000000 DUP2 MSTORE PUSH1 0x4 ADD DUP1 DUP1 PUSH1 0x20 ADD DUP3 DUP2 SUB DUP3 MSTORE PUSH1 0x30 DUP2 MSTORE PUSH1 0x20 ADD DUP1 PUSH2 0x28B6 PUSH1 0x30 SWAP2 CODECOPY PUSH1 0x40 ADD SWAP2 POP POP PUSH1 0x40 MLOAD DUP1 SWAP2 SUB SWAP1 REVERT JUMPDEST PUSH2 0xF66 DUP3 DUP3 PUSH2 0x1465 JUMP JUMPDEST POP POP JUMP JUMPDEST PUSH32 0xD8AA0F3194971A2A116679F7C2090F6939C8D4E01A2A8D7E41D55E5351469E63 PUSH2 0xF9C DUP2 PUSH2 0xF97 PUSH2 0x115F JUMP JUMPDEST PUSH2 0xD0E JUMP JUMPDEST DUP1 PUSH2 0xFAE JUMPI POP PUSH2 0xFAD DUP2 PUSH1 0x0 PUSH2 0xD0E JUMP JUMPDEST JUMPDEST PUSH2 0xFED JUMPI PUSH1 0x40 MLOAD PUSH32 0x8C379A000000000000000000000000000000000000000000000000000000000 DUP2 MSTORE PUSH1 0x4 ADD PUSH2 0xFE4 SWAP1 PUSH2 0x2525 JUMP JUMPDEST PUSH1 0x40 MLOAD DUP1 SWAP2 SUB SWAP1 REVERT JUMPDEST DUP7 DUP7 SWAP1 POP DUP10 DUP10 SWAP1 POP EQ PUSH2 0x1035 JUMPI PUSH1 0x40 MLOAD PUSH32 0x8C379A000000000000000000000000000000000000000000000000000000000 DUP2 MSTORE PUSH1 0x4 ADD PUSH2 0x102C SWAP1 PUSH2 0x2505 JUMP JUMPDEST PUSH1 0x40 MLOAD DUP1 SWAP2 SUB SWAP1 REVERT JUMPDEST DUP5 DUP5 SWAP1 POP DUP10 DUP10 SWAP1 POP EQ PUSH2 0x107D JUMPI PUSH1 0x40 MLOAD PUSH32 0x8C379A000000000000000000000000000000000000000000000000000000000 DUP2 MSTORE PUSH1 0x4 ADD PUSH2 0x1074 SWAP1 PUSH2 0x2505 JUMP JUMPDEST PUSH1 0x40 MLOAD DUP1 SWAP2 SUB SWAP1 REVERT JUMPDEST PUSH1 0x0 PUSH2 0x108F DUP11 DUP11 DUP11 DUP11 DUP11 DUP11 DUP11 DUP11 PUSH2 0xD46 JUMP JUMPDEST SWAP1 POP PUSH2 0x109A DUP5 PUSH2 0x121F JUMP JUMPDEST PUSH1 0x0 JUMPDEST DUP11 DUP11 SWAP1 POP DUP2 LT ISZERO PUSH2 0x110F JUMPI PUSH2 0x1104 DUP3 DUP3 DUP14 DUP14 DUP6 DUP2 DUP2 LT PUSH2 0x10B9 JUMPI INVALID JUMPDEST SWAP1 POP PUSH1 0x20 MUL ADD PUSH1 0x20 DUP2 ADD SWAP1 PUSH2 0x10CE SWAP2 SWAP1 PUSH2 0x1985 JUMP JUMPDEST DUP13 DUP13 DUP7 DUP2 DUP2 LT PUSH2 0x10DA JUMPI INVALID JUMPDEST SWAP1 POP PUSH1 0x20 MUL ADD CALLDATALOAD DUP12 DUP12 DUP8 DUP2 DUP2 LT PUSH2 0x10ED JUMPI INVALID JUMPDEST SWAP1 POP PUSH1 0x20 MUL DUP2 ADD SWAP1 PUSH2 0x10FF SWAP2 SWAP1 PUSH2 0x2649 JUMP JUMPDEST PUSH2 0x1277 JUMP JUMPDEST DUP1 PUSH1 0x1 ADD SWAP1 POP PUSH2 0x109D JUMP JUMPDEST POP PUSH2 0x1119 DUP2 PUSH2 0x136F JUMP JUMPDEST POP POP POP POP POP POP POP POP POP POP JUMP JUMPDEST PUSH1 0x0 PUSH1 0x2 SLOAD SWAP1 POP SWAP1 JUMP JUMPDEST PUSH1 0x0 PUSH2 0x1157 DUP4 PUSH1 0x0 ADD DUP4 PUSH20 0xFFFFFFFFFFFFFFFFFFFFFFFFFFFFFFFFFFFFFFFF AND PUSH1 0x0 SHL PUSH2 0x1557 JUMP JUMPDEST SWAP1 POP SWAP3 SWAP2 POP POP JUMP JUMPDEST PUSH1 0x0 CALLER SWAP1 POP SWAP1 JUMP JUMPDEST PUSH2 0x1170 DUP3 PUSH2 0x91C JUMP JUMPDEST ISZERO PUSH2 0x11B0 JUMPI PUSH1 0x40 MLOAD PUSH32 0x8C379A000000000000000000000000000000000000000000000000000000000 DUP2 MSTORE PUSH1 0x4 ADD PUSH2 0x11A7 SWAP1 PUSH2 0x2565 JUMP JUMPDEST PUSH1 0x40 MLOAD DUP1 SWAP2 SUB SWAP1 REVERT JUMPDEST PUSH2 0x11B8 PUSH2 0x1125 JUMP JUMPDEST DUP2 LT ISZERO PUSH2 0x11FA JUMPI PUSH1 0x40 MLOAD PUSH32 0x8C379A000000000000000000000000000000000000000000000000000000000 DUP2 MSTORE PUSH1 0x4 ADD PUSH2 0x11F1 SWAP1 PUSH2 0x2545 JUMP JUMPDEST PUSH1 0x40 MLOAD DUP1 SWAP2 SUB SWAP1 REVERT JUMPDEST PUSH2 0x1204 TIMESTAMP DUP3 PUSH2 0x15C7 JUMP JUMPDEST PUSH1 0x1 PUSH1 0x0 DUP5 DUP2 MSTORE PUSH1 0x20 ADD SWAP1 DUP2 MSTORE PUSH1 0x20 ADD PUSH1 0x0 KECCAK256 DUP2 SWAP1 SSTORE POP POP POP JUMP JUMPDEST PUSH1 0x0 DUP1 SHL DUP2 EQ DUP1 PUSH2 0x1235 JUMPI POP PUSH2 0x1234 DUP2 PUSH2 0x87E JUMP JUMPDEST JUMPDEST PUSH2 0x1274 JUMPI PUSH1 0x40 MLOAD PUSH32 0x8C379A000000000000000000000000000000000000000000000000000000000 DUP2 MSTORE PUSH1 0x4 ADD PUSH2 0x126B SWAP1 PUSH2 0x24E5 JUMP JUMPDEST PUSH1 0x40 MLOAD DUP1 SWAP2 SUB SWAP1 REVERT JUMPDEST POP JUMP JUMPDEST PUSH1 0x0 DUP5 PUSH20 0xFFFFFFFFFFFFFFFFFFFFFFFFFFFFFFFFFFFFFFFF AND DUP5 DUP5 DUP5 PUSH1 0x40 MLOAD PUSH2 0x12A1 SWAP3 SWAP2 SWAP1 PUSH2 0x2315 JUMP JUMPDEST PUSH1 0x0 PUSH1 0x40 MLOAD DUP1 DUP4 SUB DUP2 DUP6 DUP8 GAS CALL SWAP3 POP POP POP RETURNDATASIZE DUP1 PUSH1 0x0 DUP2 EQ PUSH2 0x12DE JUMPI PUSH1 0x40 MLOAD SWAP2 POP PUSH1 0x1F NOT PUSH1 0x3F RETURNDATASIZE ADD AND DUP3 ADD PUSH1 0x40 MSTORE RETURNDATASIZE DUP3 MSTORE RETURNDATASIZE PUSH1 0x0 PUSH1 0x20 DUP5 ADD RETURNDATACOPY PUSH2 0x12E3 JUMP JUMPDEST PUSH1 0x60 SWAP2 POP JUMPDEST POP POP SWAP1 POP DUP1 PUSH2 0x1327 JUMPI PUSH1 0x40 MLOAD PUSH32 0x8C379A000000000000000000000000000000000000000000000000000000000 DUP2 MSTORE PUSH1 0x4 ADD PUSH2 0x131E SWAP1 PUSH2 0x25E5 JUMP JUMPDEST PUSH1 0x40 MLOAD DUP1 SWAP2 SUB SWAP1 REVERT JUMPDEST DUP6 DUP8 PUSH32 0xC2617EFA69BAB66782FA219543714338489C4E9E178271560A91B82C3F612B58 DUP8 DUP8 DUP8 DUP8 PUSH1 0x40 MLOAD PUSH2 0x135E SWAP5 SWAP4 SWAP3 SWAP2 SWAP1 PUSH2 0x2349 JUMP JUMPDEST PUSH1 0x40 MLOAD DUP1 SWAP2 SUB SWAP1 LOG3 POP POP POP POP POP POP POP JUMP JUMPDEST PUSH2 0x1378 DUP2 PUSH2 0x839 JUMP JUMPDEST PUSH2 0x13B7 JUMPI PUSH1 0x40 MLOAD PUSH32 0x8C379A000000000000000000000000000000000000000000000000000000000 DUP2 MSTORE PUSH1 0x4 ADD PUSH2 0x13AE SWAP1 PUSH2 0x2585 JUMP JUMPDEST PUSH1 0x40 MLOAD DUP1 SWAP2 SUB SWAP1 REVERT JUMPDEST PUSH1 0x1 DUP1 PUSH1 0x0 DUP4 DUP2 MSTORE PUSH1 0x20 ADD SWAP1 DUP2 MSTORE PUSH1 0x20 ADD PUSH1 0x0 KECCAK256 DUP2 SWAP1 SSTORE POP POP JUMP JUMPDEST PUSH2 0x13F9 DUP2 PUSH1 0x0 DUP1 DUP6 DUP2 MSTORE PUSH1 0x20 ADD SWAP1 DUP2 MSTORE PUSH1 0x20 ADD PUSH1 0x0 KECCAK256 PUSH1 0x0 ADD PUSH2 0x112F SWAP1 SWAP2 SWAP1 PUSH4 0xFFFFFFFF AND JUMP JUMPDEST ISZERO PUSH2 0x1461 JUMPI PUSH2 0x1406 PUSH2 0x115F JUMP JUMPDEST PUSH20 0xFFFFFFFFFFFFFFFFFFFFFFFFFFFFFFFFFFFFFFFF AND DUP2 PUSH20 0xFFFFFFFFFFFFFFFFFFFFFFFFFFFFFFFFFFFFFFFF AND DUP4 PUSH32 0x2F8788117E7EFF1D82E926EC794901D17C78024A50270940304540A733656F0D PUSH1 0x40 MLOAD PUSH1 0x40 MLOAD DUP1 SWAP2 SUB SWAP1 LOG4 JUMPDEST POP POP JUMP JUMPDEST PUSH2 0x148C DUP2 PUSH1 0x0 DUP1 DUP6 DUP2 MSTORE PUSH1 0x20 ADD SWAP1 DUP2 MSTORE PUSH1 0x20 ADD PUSH1 0x0 KECCAK256 PUSH1 0x0 ADD PUSH2 0x164F SWAP1 SWAP2 SWAP1 PUSH4 0xFFFFFFFF AND JUMP JUMPDEST ISZERO PUSH2 0x14F4 JUMPI PUSH2 0x1499 PUSH2 0x115F JUMP JUMPDEST PUSH20 0xFFFFFFFFFFFFFFFFFFFFFFFFFFFFFFFFFFFFFFFF AND DUP2 PUSH20 0xFFFFFFFFFFFFFFFFFFFFFFFFFFFFFFFFFFFFFFFF AND DUP4 PUSH32 0xF6391F5C32D9C69D2A47EA670B442974B53935D1EDC7FD64EB21E047A839171B PUSH1 0x40 MLOAD PUSH1 0x40 MLOAD DUP1 SWAP2 SUB SWAP1 LOG4 JUMPDEST POP POP JUMP JUMPDEST PUSH1 0x0 PUSH2 0x1507 DUP4 PUSH1 0x0 ADD DUP4 PUSH2 0x167F JUMP JUMPDEST PUSH1 0x0 SHR SWAP1 POP SWAP3 SWAP2 POP POP JUMP JUMPDEST PUSH1 0x0 PUSH2 0x153A DUP4 PUSH1 0x0 ADD DUP4 PUSH20 0xFFFFFFFFFFFFFFFFFFFFFFFFFFFFFFFFFFFFFFFF AND PUSH1 0x0 SHL PUSH2 0x1702 JUMP JUMPDEST SWAP1 POP SWAP3 SWAP2 POP POP JUMP JUMPDEST PUSH1 0x0 PUSH2 0x1550 DUP3 PUSH1 0x0 ADD PUSH2 0x1725 JUMP JUMPDEST SWAP1 POP SWAP2 SWAP1 POP JUMP JUMPDEST PUSH1 0x0 PUSH2 0x1563 DUP4 DUP4 PUSH2 0x1702 JUMP JUMPDEST PUSH2 0x15BC JUMPI DUP3 PUSH1 0x0 ADD DUP3 SWAP1 DUP1 PUSH1 0x1 DUP2 SLOAD ADD DUP1 DUP3 SSTORE DUP1 SWAP2 POP POP PUSH1 0x1 SWAP1 SUB SWAP1 PUSH1 0x0 MSTORE PUSH1 0x20 PUSH1 0x0 KECCAK256 ADD PUSH1 0x0 SWAP1 SWAP2 SWAP1 SWAP2 SWAP1 SWAP2 POP SSTORE DUP3 PUSH1 0x0 ADD DUP1 SLOAD SWAP1 POP DUP4 PUSH1 0x1 ADD PUSH1 0x0 DUP5 DUP2 MSTORE PUSH1 0x20 ADD SWAP1 DUP2 MSTORE PUSH1 0x20 ADD PUSH1 0x0 KECCAK256 DUP2 SWAP1 SSTORE POP PUSH1 0x1 SWAP1 POP PUSH2 0x15C1 JUMP JUMPDEST PUSH1 0x0 SWAP1 POP JUMPDEST SWAP3 SWAP2 POP POP JUMP JUMPDEST PUSH1 0x0 DUP1 DUP3 DUP5 ADD SWAP1 POP DUP4 DUP2 LT ISZERO PUSH2 0x1645 JUMPI PUSH1 0x40 MLOAD PUSH32 0x8C379A000000000000000000000000000000000000000000000000000000000 DUP2 MSTORE PUSH1 0x4 ADD DUP1 DUP1 PUSH1 0x20 ADD DUP3 DUP2 SUB DUP3 MSTORE PUSH1 0x1B DUP2 MSTORE PUSH1 0x20 ADD DUP1 PUSH32 0x536166654D6174683A206164646974696F6E206F766572666C6F770000000000 DUP2 MSTORE POP PUSH1 0x20 ADD SWAP2 POP POP PUSH1 0x40 MLOAD DUP1 SWAP2 SUB SWAP1 REVERT JUMPDEST DUP1 SWAP2 POP POP SWAP3 SWAP2 POP POP JUMP JUMPDEST PUSH1 0x0 PUSH2 0x1677 DUP4 PUSH1 0x0 ADD DUP4 PUSH20 0xFFFFFFFFFFFFFFFFFFFFFFFFFFFFFFFFFFFFFFFF AND PUSH1 0x0 SHL PUSH2 0x1736 JUMP JUMPDEST SWAP1 POP SWAP3 SWAP2 POP POP JUMP JUMPDEST PUSH1 0x0 DUP2 DUP4 PUSH1 0x0 ADD DUP1 SLOAD SWAP1 POP GT PUSH2 0x16E0 JUMPI PUSH1 0x40 MLOAD PUSH32 0x8C379A000000000000000000000000000000000000000000000000000000000 DUP2 MSTORE PUSH1 0x4 ADD DUP1 DUP1 PUSH1 0x20 ADD DUP3 DUP2 SUB DUP3 MSTORE PUSH1 0x22 DUP2 MSTORE PUSH1 0x20 ADD DUP1 PUSH2 0x2865 PUSH1 0x22 SWAP2 CODECOPY PUSH1 0x40 ADD SWAP2 POP POP PUSH1 0x40 MLOAD DUP1 SWAP2 SUB SWAP1 REVERT JUMPDEST DUP3 PUSH1 0x0 ADD DUP3 DUP2 SLOAD DUP2 LT PUSH2 0x16EF JUMPI INVALID JUMPDEST SWAP1 PUSH1 0x0 MSTORE PUSH1 0x20 PUSH1 0x0 KECCAK256 ADD SLOAD SWAP1 POP SWAP3 SWAP2 POP POP JUMP JUMPDEST PUSH1 0x0 DUP1 DUP4 PUSH1 0x1 ADD PUSH1 0x0 DUP5 DUP2 MSTORE PUSH1 0x20 ADD SWAP1 DUP2 MSTORE PUSH1 0x20 ADD PUSH1 0x0 KECCAK256 SLOAD EQ ISZERO SWAP1 POP SWAP3 SWAP2 POP POP JUMP JUMPDEST PUSH1 0x0 DUP2 PUSH1 0x0 ADD DUP1 SLOAD SWAP1 POP SWAP1 POP SWAP2 SWAP1 POP JUMP JUMPDEST PUSH1 0x0 DUP1 DUP4 PUSH1 0x1 ADD PUSH1 0x0 DUP5 DUP2 MSTORE PUSH1 0x20 ADD SWAP1 DUP2 MSTORE PUSH1 0x20 ADD PUSH1 0x0 KECCAK256 SLOAD SWAP1 POP PUSH1 0x0 DUP2 EQ PUSH2 0x1812 JUMPI PUSH1 0x0 PUSH1 0x1 DUP3 SUB SWAP1 POP PUSH1 0x0 PUSH1 0x1 DUP7 PUSH1 0x0 ADD DUP1 SLOAD SWAP1 POP SUB SWAP1 POP PUSH1 0x0 DUP7 PUSH1 0x0 ADD DUP3 DUP2 SLOAD DUP2 LT PUSH2 0x1781 JUMPI INVALID JUMPDEST SWAP1 PUSH1 0x0 MSTORE PUSH1 0x20 PUSH1 0x0 KECCAK256 ADD SLOAD SWAP1 POP DUP1 DUP8 PUSH1 0x0 ADD DUP5 DUP2 SLOAD DUP2 LT PUSH2 0x179E JUMPI INVALID JUMPDEST SWAP1 PUSH1 0x0 MSTORE PUSH1 0x20 PUSH1 0x0 KECCAK256 ADD DUP2 SWAP1 SSTORE POP PUSH1 0x1 DUP4 ADD DUP8 PUSH1 0x1 ADD PUSH1 0x0 DUP4 DUP2 MSTORE PUSH1 0x20 ADD SWAP1 DUP2 MSTORE PUSH1 0x20 ADD PUSH1 0x0 KECCAK256 DUP2 SWAP1 SSTORE POP DUP7 PUSH1 0x0 ADD DUP1 SLOAD DUP1 PUSH2 0x17D6 JUMPI INVALID JUMPDEST PUSH1 0x1 SWAP1 SUB DUP2 DUP2 SWAP1 PUSH1 0x0 MSTORE PUSH1 0x20 PUSH1 0x0 KECCAK256 ADD PUSH1 0x0 SWAP1 SSTORE SWAP1 SSTORE DUP7 PUSH1 0x1 ADD PUSH1 0x0 DUP8 DUP2 MSTORE PUSH1 0x20 ADD SWAP1 DUP2 MSTORE PUSH1 0x20 ADD PUSH1 0x0 KECCAK256 PUSH1 0x0 SWAP1 SSTORE PUSH1 0x1 SWAP5 POP POP POP POP POP PUSH2 0x1818 JUMP JUMPDEST PUSH1 0x0 SWAP2 POP POP JUMPDEST SWAP3 SWAP2 POP POP JUMP JUMPDEST PUSH1 0x0 DUP2 CALLDATALOAD SWAP1 POP PUSH2 0x182D DUP2 PUSH2 0x281F JUMP JUMPDEST SWAP3 SWAP2 POP POP JUMP JUMPDEST PUSH1 0x0 DUP1 DUP4 PUSH1 0x1F DUP5 ADD SLT PUSH2 0x1845 JUMPI PUSH1 0x0 DUP1 REVERT JUMPDEST DUP3 CALLDATALOAD SWAP1 POP PUSH8 0xFFFFFFFFFFFFFFFF DUP2 GT ISZERO PUSH2 0x185E JUMPI PUSH1 0x0 DUP1 REVERT JUMPDEST PUSH1 0x20 DUP4 ADD SWAP2 POP DUP4 PUSH1 0x20 DUP3 MUL DUP4 ADD GT ISZERO PUSH2 0x1876 JUMPI PUSH1 0x0 DUP1 REVERT JUMPDEST SWAP3 POP SWAP3 SWAP1 POP JUMP JUMPDEST PUSH1 0x0 DUP1 DUP4 PUSH1 0x1F DUP5 ADD SLT PUSH2 0x188F JUMPI PUSH1 0x0 DUP1 REVERT JUMPDEST DUP3 CALLDATALOAD SWAP1 POP PUSH8 0xFFFFFFFFFFFFFFFF DUP2 GT ISZERO PUSH2 0x18A8 JUMPI PUSH1 0x0 DUP1 REVERT JUMPDEST PUSH1 0x20 DUP4 ADD SWAP2 POP DUP4 PUSH1 0x20 DUP3 MUL DUP4 ADD GT ISZERO PUSH2 0x18C0 JUMPI PUSH1 0x0 DUP1 REVERT JUMPDEST SWAP3 POP SWAP3 SWAP1 POP JUMP JUMPDEST PUSH1 0x0 DUP1 DUP4 PUSH1 0x1F DUP5 ADD SLT PUSH2 0x18D9 JUMPI PUSH1 0x0 DUP1 REVERT JUMPDEST DUP3 CALLDATALOAD SWAP1 POP PUSH8 0xFFFFFFFFFFFFFFFF DUP2 GT ISZERO PUSH2 0x18F2 JUMPI PUSH1 0x0 DUP1 REVERT JUMPDEST PUSH1 0x20 DUP4 ADD SWAP2 POP DUP4 PUSH1 0x20 DUP3 MUL DUP4 ADD GT ISZERO PUSH2 0x190A JUMPI PUSH1 0x0 DUP1 REVERT JUMPDEST SWAP3 POP SWAP3 SWAP1 POP JUMP JUMPDEST PUSH1 0x0 DUP2 CALLDATALOAD SWAP1 POP PUSH2 0x1920 DUP2 PUSH2 0x2836 JUMP JUMPDEST SWAP3 SWAP2 POP POP JUMP JUMPDEST PUSH1 0x0 DUP1 DUP4 PUSH1 0x1F DUP5 ADD SLT PUSH2 0x1938 JUMPI PUSH1 0x0 DUP1 REVERT JUMPDEST DUP3 CALLDATALOAD SWAP1 POP PUSH8 0xFFFFFFFFFFFFFFFF DUP2 GT ISZERO PUSH2 0x1951 JUMPI PUSH1 0x0 DUP1 REVERT JUMPDEST PUSH1 0x20 DUP4 ADD SWAP2 POP DUP4 PUSH1 0x1 DUP3 MUL DUP4 ADD GT ISZERO PUSH2 0x1969 JUMPI PUSH1 0x0 DUP1 REVERT JUMPDEST SWAP3 POP SWAP3 SWAP1 POP JUMP JUMPDEST PUSH1 0x0 DUP2 CALLDATALOAD SWAP1 POP PUSH2 0x197F DUP2 PUSH2 0x284D JUMP JUMPDEST SWAP3 SWAP2 POP POP JUMP JUMPDEST PUSH1 0x0 PUSH1 0x20 DUP3 DUP5 SUB SLT ISZERO PUSH2 0x1997 JUMPI PUSH1 0x0 DUP1 REVERT JUMPDEST PUSH1 0x0 PUSH2 0x19A5 DUP5 DUP3 DUP6 ADD PUSH2 0x181E JUMP JUMPDEST SWAP2 POP POP SWAP3 SWAP2 POP POP JUMP JUMPDEST PUSH1 0x0 DUP1 PUSH1 0x0 DUP1 PUSH1 0x0 DUP1 PUSH1 0xA0 DUP8 DUP10 SUB SLT ISZERO PUSH2 0x19C7 JUMPI PUSH1 0x0 DUP1 REVERT JUMPDEST PUSH1 0x0 PUSH2 0x19D5 DUP10 DUP3 DUP11 ADD PUSH2 0x181E JUMP JUMPDEST SWAP7 POP POP PUSH1 0x20 PUSH2 0x19E6 DUP10 DUP3 DUP11 ADD PUSH2 0x1970 JUMP JUMPDEST SWAP6 POP POP PUSH1 0x40 DUP8 ADD CALLDATALOAD PUSH8 0xFFFFFFFFFFFFFFFF DUP2 GT ISZERO PUSH2 0x1A03 JUMPI PUSH1 0x0 DUP1 REVERT JUMPDEST PUSH2 0x1A0F DUP10 DUP3 DUP11 ADD PUSH2 0x1926 JUMP JUMPDEST SWAP5 POP SWAP5 POP POP PUSH1 0x60 PUSH2 0x1A22 DUP10 DUP3 DUP11 ADD PUSH2 0x1911 JUMP JUMPDEST SWAP3 POP POP PUSH1 0x80 PUSH2 0x1A33 DUP10 DUP3 DUP11 ADD PUSH2 0x1911 JUMP JUMPDEST SWAP2 POP POP SWAP3 SWAP6 POP SWAP3 SWAP6 POP SWAP3 SWAP6 JUMP JUMPDEST PUSH1 0x0 DUP1 PUSH1 0x0 DUP1 PUSH1 0x0 DUP1 PUSH1 0x0 PUSH1 0xC0 DUP9 DUP11 SUB SLT ISZERO PUSH2 0x1A5B JUMPI PUSH1 0x0 DUP1 REVERT JUMPDEST PUSH1 0x0 PUSH2 0x1A69 DUP11 DUP3 DUP12 ADD PUSH2 0x181E JUMP JUMPDEST SWAP8 POP POP PUSH1 0x20 PUSH2 0x1A7A DUP11 DUP3 DUP12 ADD PUSH2 0x1970 JUMP JUMPDEST SWAP7 POP POP PUSH1 0x40 DUP9 ADD CALLDATALOAD PUSH8 0xFFFFFFFFFFFFFFFF DUP2 GT ISZERO PUSH2 0x1A97 JUMPI PUSH1 0x0 DUP1 REVERT JUMPDEST PUSH2 0x1AA3 DUP11 DUP3 DUP12 ADD PUSH2 0x1926 JUMP JUMPDEST SWAP6 POP SWAP6 POP POP PUSH1 0x60 PUSH2 0x1AB6 DUP11 DUP3 DUP12 ADD PUSH2 0x1911 JUMP JUMPDEST SWAP4 POP POP PUSH1 0x80 PUSH2 0x1AC7 DUP11 DUP3 DUP12 ADD PUSH2 0x1911 JUMP JUMPDEST SWAP3 POP POP PUSH1 0xA0 PUSH2 0x1AD8 DUP11 DUP3 DUP12 ADD PUSH2 0x1970 JUMP JUMPDEST SWAP2 POP POP SWAP3 SWAP6 SWAP9 SWAP2 SWAP5 SWAP8 POP SWAP3 SWAP6 POP JUMP JUMPDEST PUSH1 0x0 DUP1 PUSH1 0x0 DUP1 PUSH1 0x0 DUP1 PUSH1 0x0 DUP1 PUSH1 0xA0 DUP10 DUP12 SUB SLT ISZERO PUSH2 0x1B03 JUMPI PUSH1 0x0 DUP1 REVERT JUMPDEST PUSH1 0x0 DUP10 ADD CALLDATALOAD PUSH8 0xFFFFFFFFFFFFFFFF DUP2 GT ISZERO PUSH2 0x1B1D JUMPI PUSH1 0x0 DUP1 REVERT JUMPDEST PUSH2 0x1B29 DUP12 DUP3 DUP13 ADD PUSH2 0x1833 JUMP JUMPDEST SWAP9 POP SWAP9 POP POP PUSH1 0x20 DUP10 ADD CALLDATALOAD PUSH8 0xFFFFFFFFFFFFFFFF DUP2 GT ISZERO PUSH2 0x1B48 JUMPI PUSH1 0x0 DUP1 REVERT JUMPDEST PUSH2 0x1B54 DUP12 DUP3 DUP13 ADD PUSH2 0x18C7 JUMP JUMPDEST SWAP7 POP SWAP7 POP POP PUSH1 0x40 DUP10 ADD CALLDATALOAD PUSH8 0xFFFFFFFFFFFFFFFF DUP2 GT ISZERO PUSH2 0x1B73 JUMPI PUSH1 0x0 DUP1 REVERT JUMPDEST PUSH2 0x1B7F DUP12 DUP3 DUP13 ADD PUSH2 0x187D JUMP JUMPDEST SWAP5 POP SWAP5 POP POP PUSH1 0x60 PUSH2 0x1B92 DUP12 DUP3 DUP13 ADD PUSH2 0x1911 JUMP JUMPDEST SWAP3 POP POP PUSH1 0x80 PUSH2 0x1BA3 DUP12 DUP3 DUP13 ADD PUSH2 0x1911 JUMP JUMPDEST SWAP2 POP POP SWAP3 SWAP6 SWAP9 POP SWAP3 SWAP6 SWAP9 SWAP1 SWAP4 SWAP7 POP JUMP JUMPDEST PUSH1 0x0 DUP1 PUSH1 0x0 DUP1 PUSH1 0x0 DUP1 PUSH1 0x0 DUP1 PUSH1 0x0 PUSH1 0xC0 DUP11 DUP13 SUB SLT ISZERO PUSH2 0x1BD1 JUMPI PUSH1 0x0 DUP1 REVERT JUMPDEST PUSH1 0x0 DUP11 ADD CALLDATALOAD PUSH8 0xFFFFFFFFFFFFFFFF DUP2 GT ISZERO PUSH2 0x1BEB JUMPI PUSH1 0x0 DUP1 REVERT JUMPDEST PUSH2 0x1BF7 DUP13 DUP3 DUP14 ADD PUSH2 0x1833 JUMP JUMPDEST SWAP10 POP SWAP10 POP POP PUSH1 0x20 DUP11 ADD CALLDATALOAD PUSH8 0xFFFFFFFFFFFFFFFF DUP2 GT ISZERO PUSH2 0x1C16 JUMPI PUSH1 0x0 DUP1 REVERT JUMPDEST PUSH2 0x1C22 DUP13 DUP3 DUP14 ADD PUSH2 0x18C7 JUMP JUMPDEST SWAP8 POP SWAP8 POP POP PUSH1 0x40 DUP11 ADD CALLDATALOAD PUSH8 0xFFFFFFFFFFFFFFFF DUP2 GT ISZERO PUSH2 0x1C41 JUMPI PUSH1 0x0 DUP1 REVERT JUMPDEST PUSH2 0x1C4D DUP13 DUP3 DUP14 ADD PUSH2 0x187D JUMP JUMPDEST SWAP6 POP SWAP6 POP POP PUSH1 0x60 PUSH2 0x1C60 DUP13 DUP3 DUP14 ADD PUSH2 0x1911 JUMP JUMPDEST SWAP4 POP POP PUSH1 0x80 PUSH2 0x1C71 DUP13 DUP3 DUP14 ADD PUSH2 0x1911 JUMP JUMPDEST SWAP3 POP POP PUSH1 0xA0 PUSH2 0x1C82 DUP13 DUP3 DUP14 ADD PUSH2 0x1970 JUMP JUMPDEST SWAP2 POP POP SWAP3 SWAP6 SWAP9 POP SWAP3 SWAP6 SWAP9 POP SWAP3 SWAP6 SWAP9 JUMP JUMPDEST PUSH1 0x0 PUSH1 0x20 DUP3 DUP5 SUB SLT ISZERO PUSH2 0x1CA4 JUMPI PUSH1 0x0 DUP1 REVERT JUMPDEST PUSH1 0x0 PUSH2 0x1CB2 DUP5 DUP3 DUP6 ADD PUSH2 0x1911 JUMP JUMPDEST SWAP2 POP POP SWAP3 SWAP2 POP POP JUMP JUMPDEST PUSH1 0x0 DUP1 PUSH1 0x40 DUP4 DUP6 SUB SLT ISZERO PUSH2 0x1CCE JUMPI PUSH1 0x0 DUP1 REVERT JUMPDEST PUSH1 0x0 PUSH2 0x1CDC DUP6 DUP3 DUP7 ADD PUSH2 0x1911 JUMP JUMPDEST SWAP3 POP POP PUSH1 0x20 PUSH2 0x1CED DUP6 DUP3 DUP7 ADD PUSH2 0x181E JUMP JUMPDEST SWAP2 POP POP SWAP3 POP SWAP3 SWAP1 POP JUMP JUMPDEST PUSH1 0x0 DUP1 PUSH1 0x40 DUP4 DUP6 SUB SLT ISZERO PUSH2 0x1D0A JUMPI PUSH1 0x0 DUP1 REVERT JUMPDEST PUSH1 0x0 PUSH2 0x1D18 DUP6 DUP3 DUP7 ADD PUSH2 0x1911 JUMP JUMPDEST SWAP3 POP POP PUSH1 0x20 PUSH2 0x1D29 DUP6 DUP3 DUP7 ADD PUSH2 0x1970 JUMP JUMPDEST SWAP2 POP POP SWAP3 POP SWAP3 SWAP1 POP JUMP JUMPDEST PUSH1 0x0 PUSH1 0x20 DUP3 DUP5 SUB SLT ISZERO PUSH2 0x1D45 JUMPI PUSH1 0x0 DUP1 REVERT JUMPDEST PUSH1 0x0 PUSH2 0x1D53 DUP5 DUP3 DUP6 ADD PUSH2 0x1970 JUMP JUMPDEST SWAP2 POP POP SWAP3 SWAP2 POP POP JUMP JUMPDEST PUSH1 0x0 PUSH2 0x1D68 DUP4 DUP4 PUSH2 0x1D8A JUMP JUMPDEST PUSH1 0x20 DUP4 ADD SWAP1 POP SWAP3 SWAP2 POP POP JUMP JUMPDEST PUSH1 0x0 PUSH2 0x1D81 DUP5 DUP5 DUP5 PUSH2 0x1EF1 JUMP JUMPDEST SWAP1 POP SWAP4 SWAP3 POP POP POP JUMP JUMPDEST PUSH2 0x1D93 DUP2 PUSH2 0x27AD JUMP JUMPDEST DUP3 MSTORE POP POP JUMP JUMPDEST PUSH2 0x1DA2 DUP2 PUSH2 0x27AD JUMP JUMPDEST DUP3 MSTORE POP POP JUMP JUMPDEST PUSH1 0x0 PUSH2 0x1DB4 DUP4 DUP6 PUSH2 0x26CE JUMP JUMPDEST SWAP4 POP PUSH2 0x1DBF DUP3 PUSH2 0x26A0 JUMP JUMPDEST DUP1 PUSH1 0x0 JUMPDEST DUP6 DUP2 LT ISZERO PUSH2 0x1DF8 JUMPI PUSH2 0x1DD5 DUP3 DUP5 PUSH2 0x273F JUMP JUMPDEST PUSH2 0x1DDF DUP9 DUP3 PUSH2 0x1D5C JUMP JUMPDEST SWAP8 POP PUSH2 0x1DEA DUP4 PUSH2 0x26B4 JUMP JUMPDEST SWAP3 POP POP PUSH1 0x1 DUP2 ADD SWAP1 POP PUSH2 0x1DC3 JUMP JUMPDEST POP DUP6 SWAP3 POP POP POP SWAP4 SWAP3 POP POP POP JUMP JUMPDEST PUSH1 0x0 PUSH2 0x1E11 DUP4 DUP6 PUSH2 0x26DF JUMP JUMPDEST SWAP4 POP DUP4 PUSH1 0x20 DUP5 MUL DUP6 ADD PUSH2 0x1E23 DUP5 PUSH2 0x26AA JUMP JUMPDEST DUP1 PUSH1 0x0 JUMPDEST DUP8 DUP2 LT ISZERO PUSH2 0x1E69 JUMPI DUP5 DUP5 SUB DUP10 MSTORE PUSH2 0x1E3E DUP3 DUP5 PUSH2 0x2756 JUMP JUMPDEST PUSH2 0x1E49 DUP7 DUP3 DUP5 PUSH2 0x1D74 JUMP JUMPDEST SWAP6 POP PUSH2 0x1E54 DUP5 PUSH2 0x26C1 JUMP JUMPDEST SWAP4 POP PUSH1 0x20 DUP12 ADD SWAP11 POP POP POP PUSH1 0x1 DUP2 ADD SWAP1 POP PUSH2 0x1E27 JUMP JUMPDEST POP DUP3 SWAP8 POP DUP8 SWAP5 POP POP POP POP POP SWAP4 SWAP3 POP POP POP JUMP JUMPDEST PUSH1 0x0 PUSH2 0x1E87 DUP4 DUP6 PUSH2 0x26F0 JUMP JUMPDEST SWAP4 POP PUSH32 0x7FFFFFFFFFFFFFFFFFFFFFFFFFFFFFFFFFFFFFFFFFFFFFFFFFFFFFFFFFFFFFF DUP4 GT ISZERO PUSH2 0x1EB6 JUMPI PUSH1 0x0 DUP1 REVERT JUMPDEST PUSH1 0x20 DUP4 MUL SWAP3 POP PUSH2 0x1EC7 DUP4 DUP6 DUP5 PUSH2 0x27FF JUMP JUMPDEST DUP3 DUP5 ADD SWAP1 POP SWAP4 SWAP3 POP POP POP JUMP JUMPDEST PUSH2 0x1EDC DUP2 PUSH2 0x27BF JUMP JUMPDEST DUP3 MSTORE POP POP JUMP JUMPDEST PUSH2 0x1EEB DUP2 PUSH2 0x27CB JUMP JUMPDEST DUP3 MSTORE POP POP JUMP JUMPDEST PUSH1 0x0 PUSH2 0x1EFD DUP4 DUP6 PUSH2 0x2701 JUMP JUMPDEST SWAP4 POP PUSH2 0x1F0A DUP4 DUP6 DUP5 PUSH2 0x27FF JUMP JUMPDEST PUSH2 0x1F13 DUP4 PUSH2 0x280E JUMP JUMPDEST DUP5 ADD SWAP1 POP SWAP4 SWAP3 POP POP POP JUMP JUMPDEST PUSH1 0x0 PUSH2 0x1F2A DUP4 DUP6 PUSH2 0x2712 JUMP JUMPDEST SWAP4 POP PUSH2 0x1F37 DUP4 DUP6 DUP5 PUSH2 0x27FF JUMP JUMPDEST PUSH2 0x1F40 DUP4 PUSH2 0x280E JUMP JUMPDEST DUP5 ADD SWAP1 POP SWAP4 SWAP3 POP POP POP JUMP JUMPDEST PUSH1 0x0 PUSH2 0x1F57 DUP4 DUP6 PUSH2 0x2723 JUMP JUMPDEST SWAP4 POP PUSH2 0x1F64 DUP4 DUP6 DUP5 PUSH2 0x27FF JUMP JUMPDEST DUP3 DUP5 ADD SWAP1 POP SWAP4 SWAP3 POP POP POP JUMP JUMPDEST PUSH1 0x0 PUSH2 0x1F7D PUSH1 0x26 DUP4 PUSH2 0x272E JUMP JUMPDEST SWAP2 POP PUSH32 0x54696D656C6F636B436F6E74726F6C6C65723A206D697373696E672064657065 PUSH1 0x0 DUP4 ADD MSTORE PUSH32 0x6E64656E63790000000000000000000000000000000000000000000000000000 PUSH1 0x20 DUP4 ADD MSTORE PUSH1 0x40 DUP3 ADD SWAP1 POP SWAP2 SWAP1 POP JUMP JUMPDEST PUSH1 0x0 PUSH2 0x1FE3 PUSH1 0x23 DUP4 PUSH2 0x272E JUMP JUMPDEST SWAP2 POP PUSH32 0x54696D656C6F636B436F6E74726F6C6C65723A206C656E677468206D69736D61 PUSH1 0x0 DUP4 ADD MSTORE PUSH32 0x7463680000000000000000000000000000000000000000000000000000000000 PUSH1 0x20 DUP4 ADD MSTORE PUSH1 0x40 DUP3 ADD SWAP1 POP SWAP2 SWAP1 POP JUMP JUMPDEST PUSH1 0x0 PUSH2 0x2049 PUSH1 0x2E DUP4 PUSH2 0x272E JUMP JUMPDEST SWAP2 POP PUSH32 0x54696D656C6F636B436F6E74726F6C6C65723A2073656E646572207265717569 PUSH1 0x0 DUP4 ADD MSTORE PUSH32 0x726573207065726D697373696F6E000000000000000000000000000000000000 PUSH1 0x20 DUP4 ADD MSTORE PUSH1 0x40 DUP3 ADD SWAP1 POP SWAP2 SWAP1 POP JUMP JUMPDEST PUSH1 0x0 PUSH2 0x20AF PUSH1 0x26 DUP4 PUSH2 0x272E JUMP JUMPDEST SWAP2 POP PUSH32 0x54696D656C6F636B436F6E74726F6C6C65723A20696E73756666696369656E74 PUSH1 0x0 DUP4 ADD MSTORE PUSH32 0x2064656C61790000000000000000000000000000000000000000000000000000 PUSH1 0x20 DUP4 ADD MSTORE PUSH1 0x40 DUP3 ADD SWAP1 POP SWAP2 SWAP1 POP JUMP JUMPDEST PUSH1 0x0 PUSH2 0x2115 PUSH1 0x2F DUP4 PUSH2 0x272E JUMP JUMPDEST SWAP2 POP PUSH32 0x54696D656C6F636B436F6E74726F6C6C65723A206F7065726174696F6E20616C PUSH1 0x0 DUP4 ADD MSTORE PUSH32 0x7265616479207363686564756C65640000000000000000000000000000000000 PUSH1 0x20 DUP4 ADD MSTORE PUSH1 0x40 DUP3 ADD SWAP1 POP SWAP2 SWAP1 POP JUMP JUMPDEST PUSH1 0x0 PUSH2 0x217B PUSH1 0x2A DUP4 PUSH2 0x272E JUMP JUMPDEST SWAP2 POP PUSH32 0x54696D656C6F636B436F6E74726F6C6C65723A206F7065726174696F6E206973 PUSH1 0x0 DUP4 ADD MSTORE PUSH32 0x206E6F7420726561647900000000000000000000000000000000000000000000 PUSH1 0x20 DUP4 ADD MSTORE PUSH1 0x40 DUP3 ADD SWAP1 POP SWAP2 SWAP1 POP JUMP JUMPDEST PUSH1 0x0 PUSH2 0x21E1 PUSH1 0x31 DUP4 PUSH2 0x272E JUMP JUMPDEST SWAP2 POP PUSH32 0x54696D656C6F636B436F6E74726F6C6C65723A206F7065726174696F6E206361 PUSH1 0x0 DUP4 ADD MSTORE PUSH32 0x6E6E6F742062652063616E63656C6C6564000000000000000000000000000000 PUSH1 0x20 DUP4 ADD MSTORE PUSH1 0x40 DUP3 ADD SWAP1 POP SWAP2 SWAP1 POP JUMP JUMPDEST PUSH1 0x0 PUSH2 0x2247 PUSH1 0x2B DUP4 PUSH2 0x272E JUMP JUMPDEST SWAP2 POP PUSH32 0x54696D656C6F636B436F6E74726F6C6C65723A2063616C6C6572206D75737420 PUSH1 0x0 DUP4 ADD MSTORE PUSH32 0x62652074696D656C6F636B000000000000000000000000000000000000000000 PUSH1 0x20 DUP4 ADD MSTORE PUSH1 0x40 DUP3 ADD SWAP1 POP SWAP2 SWAP1 POP JUMP JUMPDEST PUSH1 0x0 PUSH2 0x22AD PUSH1 0x33 DUP4 PUSH2 0x272E JUMP JUMPDEST SWAP2 POP PUSH32 0x54696D656C6F636B436F6E74726F6C6C65723A20756E6465726C79696E672074 PUSH1 0x0 DUP4 ADD MSTORE PUSH32 0x72616E73616374696F6E20726576657274656400000000000000000000000000 PUSH1 0x20 DUP4 ADD MSTORE PUSH1 0x40 DUP3 ADD SWAP1 POP SWAP2 SWAP1 POP JUMP JUMPDEST PUSH2 0x230F DUP2 PUSH2 0x27F5 JUMP JUMPDEST DUP3 MSTORE POP POP JUMP JUMPDEST PUSH1 0x0 PUSH2 0x2322 DUP3 DUP5 DUP7 PUSH2 0x1F4B JUMP JUMPDEST SWAP2 POP DUP2 SWAP1 POP SWAP4 SWAP3 POP POP POP JUMP JUMPDEST PUSH1 0x0 PUSH1 0x20 DUP3 ADD SWAP1 POP PUSH2 0x2343 PUSH1 0x0 DUP4 ADD DUP5 PUSH2 0x1D99 JUMP JUMPDEST SWAP3 SWAP2 POP POP JUMP JUMPDEST PUSH1 0x0 PUSH1 0x60 DUP3 ADD SWAP1 POP PUSH2 0x235E PUSH1 0x0 DUP4 ADD DUP8 PUSH2 0x1D99 JUMP JUMPDEST PUSH2 0x236B PUSH1 0x20 DUP4 ADD DUP7 PUSH2 0x2306 JUMP JUMPDEST DUP2 DUP2 SUB PUSH1 0x40 DUP4 ADD MSTORE PUSH2 0x237E DUP2 DUP5 DUP7 PUSH2 0x1F1E JUMP JUMPDEST SWAP1 POP SWAP6 SWAP5 POP POP POP POP POP JUMP JUMPDEST PUSH1 0x0 PUSH1 0xA0 DUP3 ADD SWAP1 POP PUSH2 0x239E PUSH1 0x0 DUP4 ADD DUP10 PUSH2 0x1D99 JUMP JUMPDEST PUSH2 0x23AB PUSH1 0x20 DUP4 ADD DUP9 PUSH2 0x2306 JUMP JUMPDEST DUP2 DUP2 SUB PUSH1 0x40 DUP4 ADD MSTORE PUSH2 0x23BE DUP2 DUP7 DUP9 PUSH2 0x1F1E JUMP JUMPDEST SWAP1 POP PUSH2 0x23CD PUSH1 0x60 DUP4 ADD DUP6 PUSH2 0x1EE2 JUMP JUMPDEST PUSH2 0x23DA PUSH1 0x80 DUP4 ADD DUP5 PUSH2 0x1EE2 JUMP JUMPDEST SWAP8 SWAP7 POP POP POP POP POP POP POP JUMP JUMPDEST PUSH1 0x0 PUSH1 0xA0 DUP3 ADD SWAP1 POP PUSH2 0x23FA PUSH1 0x0 DUP4 ADD DUP10 PUSH2 0x1D99 JUMP JUMPDEST PUSH2 0x2407 PUSH1 0x20 DUP4 ADD DUP9 PUSH2 0x2306 JUMP JUMPDEST DUP2 DUP2 SUB PUSH1 0x40 DUP4 ADD MSTORE PUSH2 0x241A DUP2 DUP7 DUP9 PUSH2 0x1F1E JUMP JUMPDEST SWAP1 POP PUSH2 0x2429 PUSH1 0x60 DUP4 ADD DUP6 PUSH2 0x1EE2 JUMP JUMPDEST PUSH2 0x2436 PUSH1 0x80 DUP4 ADD DUP5 PUSH2 0x2306 JUMP JUMPDEST SWAP8 SWAP7 POP POP POP POP POP POP POP JUMP JUMPDEST PUSH1 0x0 PUSH1 0xA0 DUP3 ADD SWAP1 POP DUP2 DUP2 SUB PUSH1 0x0 DUP4 ADD MSTORE PUSH2 0x245C DUP2 DUP11 DUP13 PUSH2 0x1DA8 JUMP JUMPDEST SWAP1 POP DUP2 DUP2 SUB PUSH1 0x20 DUP4 ADD MSTORE PUSH2 0x2471 DUP2 DUP9 DUP11 PUSH2 0x1E7B JUMP JUMPDEST SWAP1 POP DUP2 DUP2 SUB PUSH1 0x40 DUP4 ADD MSTORE PUSH2 0x2486 DUP2 DUP7 DUP9 PUSH2 0x1E05 JUMP JUMPDEST SWAP1 POP PUSH2 0x2495 PUSH1 0x60 DUP4 ADD DUP6 PUSH2 0x1EE2 JUMP JUMPDEST PUSH2 0x24A2 PUSH1 0x80 DUP4 ADD DUP5 PUSH2 0x1EE2 JUMP JUMPDEST SWAP10 SWAP9 POP POP POP POP POP POP POP POP POP JUMP JUMPDEST PUSH1 0x0 PUSH1 0x20 DUP3 ADD SWAP1 POP PUSH2 0x24C4 PUSH1 0x0 DUP4 ADD DUP5 PUSH2 0x1ED3 JUMP JUMPDEST SWAP3 SWAP2 POP POP JUMP JUMPDEST PUSH1 0x0 PUSH1 0x20 DUP3 ADD SWAP1 POP PUSH2 0x24DF PUSH1 0x0 DUP4 ADD DUP5 PUSH2 0x1EE2 JUMP JUMPDEST SWAP3 SWAP2 POP POP JUMP JUMPDEST PUSH1 0x0 PUSH1 0x20 DUP3 ADD SWAP1 POP DUP2 DUP2 SUB PUSH1 0x0 DUP4 ADD MSTORE PUSH2 0x24FE DUP2 PUSH2 0x1F70 JUMP JUMPDEST SWAP1 POP SWAP2 SWAP1 POP JUMP JUMPDEST PUSH1 0x0 PUSH1 0x20 DUP3 ADD SWAP1 POP DUP2 DUP2 SUB PUSH1 0x0 DUP4 ADD MSTORE PUSH2 0x251E DUP2 PUSH2 0x1FD6 JUMP JUMPDEST SWAP1 POP SWAP2 SWAP1 POP JUMP JUMPDEST PUSH1 0x0 PUSH1 0x20 DUP3 ADD SWAP1 POP DUP2 DUP2 SUB PUSH1 0x0 DUP4 ADD MSTORE PUSH2 0x253E DUP2 PUSH2 0x203C JUMP JUMPDEST SWAP1 POP SWAP2 SWAP1 POP JUMP JUMPDEST PUSH1 0x0 PUSH1 0x20 DUP3 ADD SWAP1 POP DUP2 DUP2 SUB PUSH1 0x0 DUP4 ADD MSTORE PUSH2 0x255E DUP2 PUSH2 0x20A2 JUMP JUMPDEST SWAP1 POP SWAP2 SWAP1 POP JUMP JUMPDEST PUSH1 0x0 PUSH1 0x20 DUP3 ADD SWAP1 POP DUP2 DUP2 SUB PUSH1 0x0 DUP4 ADD MSTORE PUSH2 0x257E DUP2 PUSH2 0x2108 JUMP JUMPDEST SWAP1 POP SWAP2 SWAP1 POP JUMP JUMPDEST PUSH1 0x0 PUSH1 0x20 DUP3 ADD SWAP1 POP DUP2 DUP2 SUB PUSH1 0x0 DUP4 ADD MSTORE PUSH2 0x259E DUP2 PUSH2 0x216E JUMP JUMPDEST SWAP1 POP SWAP2 SWAP1 POP JUMP JUMPDEST PUSH1 0x0 PUSH1 0x20 DUP3 ADD SWAP1 POP DUP2 DUP2 SUB PUSH1 0x0 DUP4 ADD MSTORE PUSH2 0x25BE DUP2 PUSH2 0x21D4 JUMP JUMPDEST SWAP1 POP SWAP2 SWAP1 POP JUMP JUMPDEST PUSH1 0x0 PUSH1 0x20 DUP3 ADD SWAP1 POP DUP2 DUP2 SUB PUSH1 0x0 DUP4 ADD MSTORE PUSH2 0x25DE DUP2 PUSH2 0x223A JUMP JUMPDEST SWAP1 POP SWAP2 SWAP1 POP JUMP JUMPDEST PUSH1 0x0 PUSH1 0x20 DUP3 ADD SWAP1 POP DUP2 DUP2 SUB PUSH1 0x0 DUP4 ADD MSTORE PUSH2 0x25FE DUP2 PUSH2 0x22A0 JUMP JUMPDEST SWAP1 POP SWAP2 SWAP1 POP JUMP JUMPDEST PUSH1 0x0 PUSH1 0x20 DUP3 ADD SWAP1 POP PUSH2 0x261A PUSH1 0x0 DUP4 ADD DUP5 PUSH2 0x2306 JUMP JUMPDEST SWAP3 SWAP2 POP POP JUMP JUMPDEST PUSH1 0x0 PUSH1 0x40 DUP3 ADD SWAP1 POP PUSH2 0x2635 PUSH1 0x0 DUP4 ADD DUP6 PUSH2 0x2306 JUMP JUMPDEST PUSH2 0x2642 PUSH1 0x20 DUP4 ADD DUP5 PUSH2 0x2306 JUMP JUMPDEST SWAP4 SWAP3 POP POP POP JUMP JUMPDEST PUSH1 0x0 DUP1 DUP4 CALLDATALOAD PUSH1 0x1 PUSH1 0x20 SUB DUP5 CALLDATASIZE SUB SUB DUP2 SLT PUSH2 0x2662 JUMPI PUSH1 0x0 DUP1 REVERT JUMPDEST DUP1 DUP5 ADD SWAP3 POP DUP3 CALLDATALOAD SWAP2 POP PUSH8 0xFFFFFFFFFFFFFFFF DUP3 GT ISZERO PUSH2 0x2680 JUMPI PUSH1 0x0 DUP1 REVERT JUMPDEST PUSH1 0x20 DUP4 ADD SWAP3 POP PUSH1 0x1 DUP3 MUL CALLDATASIZE SUB DUP4 SGT ISZERO PUSH2 0x2698 JUMPI PUSH1 0x0 DUP1 REVERT JUMPDEST POP SWAP3 POP SWAP3 SWAP1 POP JUMP JUMPDEST PUSH1 0x0 DUP2 SWAP1 POP SWAP2 SWAP1 POP JUMP JUMPDEST PUSH1 0x0 DUP2 SWAP1 POP SWAP2 SWAP1 POP JUMP JUMPDEST PUSH1 0x0 PUSH1 0x20 DUP3 ADD SWAP1 POP SWAP2 SWAP1 POP JUMP JUMPDEST PUSH1 0x0 PUSH1 0x20 DUP3 ADD SWAP1 POP SWAP2 SWAP1 POP JUMP JUMPDEST PUSH1 0x0 DUP3 DUP3 MSTORE PUSH1 0x20 DUP3 ADD SWAP1 POP SWAP3 SWAP2 POP POP JUMP JUMPDEST PUSH1 0x0 DUP3 DUP3 MSTORE PUSH1 0x20 DUP3 ADD SWAP1 POP SWAP3 SWAP2 POP POP JUMP JUMPDEST PUSH1 0x0 DUP3 DUP3 MSTORE PUSH1 0x20 DUP3 ADD SWAP1 POP SWAP3 SWAP2 POP POP JUMP JUMPDEST PUSH1 0x0 DUP3 DUP3 MSTORE PUSH1 0x20 DUP3 ADD SWAP1 POP SWAP3 SWAP2 POP POP JUMP JUMPDEST PUSH1 0x0 DUP3 DUP3 MSTORE PUSH1 0x20 DUP3 ADD SWAP1 POP SWAP3 SWAP2 POP POP JUMP JUMPDEST PUSH1 0x0 DUP2 SWAP1 POP SWAP3 SWAP2 POP POP JUMP JUMPDEST PUSH1 0x0 DUP3 DUP3 MSTORE PUSH1 0x20 DUP3 ADD SWAP1 POP SWAP3 SWAP2 POP POP JUMP JUMPDEST PUSH1 0x0 PUSH2 0x274E PUSH1 0x20 DUP5 ADD DUP5 PUSH2 0x181E JUMP JUMPDEST SWAP1 POP SWAP3 SWAP2 POP POP JUMP JUMPDEST PUSH1 0x0 DUP1 DUP4 CALLDATALOAD PUSH1 0x1 PUSH1 0x20 SUB DUP5 CALLDATASIZE SUB SUB DUP2 SLT PUSH2 0x276F JUMPI PUSH1 0x0 DUP1 REVERT JUMPDEST DUP4 DUP2 ADD SWAP3 POP DUP3 CALLDATALOAD SWAP2 POP PUSH1 0x20 DUP4 ADD SWAP3 POP PUSH8 0xFFFFFFFFFFFFFFFF DUP3 GT ISZERO PUSH2 0x2793 JUMPI PUSH1 0x0 DUP1 REVERT JUMPDEST PUSH1 0x1 DUP3 MUL CALLDATASIZE SUB DUP5 SGT ISZERO PUSH2 0x27A5 JUMPI PUSH1 0x0 DUP1 REVERT JUMPDEST POP SWAP3 POP SWAP3 SWAP1 POP JUMP JUMPDEST PUSH1 0x0 PUSH2 0x27B8 DUP3 PUSH2 0x27D5 JUMP JUMPDEST SWAP1 POP SWAP2 SWAP1 POP JUMP JUMPDEST PUSH1 0x0 DUP2 ISZERO ISZERO SWAP1 POP SWAP2 SWAP1 POP JUMP JUMPDEST PUSH1 0x0 DUP2 SWAP1 POP SWAP2 SWAP1 POP JUMP JUMPDEST PUSH1 0x0 PUSH20 0xFFFFFFFFFFFFFFFFFFFFFFFFFFFFFFFFFFFFFFFF DUP3 AND SWAP1 POP SWAP2 SWAP1 POP JUMP JUMPDEST PUSH1 0x0 DUP2 SWAP1 POP SWAP2 SWAP1 POP JUMP JUMPDEST DUP3 DUP2 DUP4 CALLDATACOPY PUSH1 0x0 DUP4 DUP4 ADD MSTORE POP POP POP JUMP JUMPDEST PUSH1 0x0 PUSH1 0x1F NOT PUSH1 0x1F DUP4 ADD AND SWAP1 POP SWAP2 SWAP1 POP JUMP JUMPDEST PUSH2 0x2828 DUP2 PUSH2 0x27AD JUMP JUMPDEST DUP2 EQ PUSH2 0x2833 JUMPI PUSH1 0x0 DUP1 REVERT JUMPDEST POP JUMP JUMPDEST PUSH2 0x283F DUP2 PUSH2 0x27CB JUMP JUMPDEST DUP2 EQ PUSH2 0x284A JUMPI PUSH1 0x0 DUP1 REVERT JUMPDEST POP JUMP JUMPDEST PUSH2 0x2856 DUP2 PUSH2 0x27F5 JUMP JUMPDEST DUP2 EQ PUSH2 0x2861 JUMPI PUSH1 0x0 DUP1 REVERT JUMPDEST POP JUMP INVALID GASLIMIT PUSH15 0x756D657261626C655365743A20696E PUSH5 0x6578206F75 PUSH21 0x206F6620626F756E6473416363657373436F6E7472 PUSH16 0x6C3A2073656E646572206D7573742062 PUSH6 0x20616E206164 PUSH14 0x696E20746F206772616E74416363 PUSH6 0x7373436F6E74 PUSH19 0x6F6C3A2073656E646572206D75737420626520 PUSH2 0x6E20 PUSH2 0x646D PUSH10 0x6E20746F207265766F6B PUSH6 0x416363657373 NUMBER PUSH16 0x6E74726F6C3A2063616E206F6E6C7920 PUSH19 0x656E6F756E636520726F6C657320666F722073 PUSH6 0x6C66A2646970 PUSH7 0x73582212206D25 MSTORE 0x4C PUSH14 0xE0E62DAD0697D77B7B2C4C6D4DE3 SWAP9 LOG1 ADDMOD 0x4B 0x5D SWAP14 LOG1 0xC1 DUP15 0xB5 0xB9 PC 0xBC PUSH5 0x736F6C6343 STOP SMOD MOD STOP CALLER "
		},
		"gasEstimates": {
			"creation": {
				"codeDepositCost": "2114000",
				"executionCost": "infinite",
				"totalCost": "infinite"
			},
			"external": {
				"DEFAULT_ADMIN_ROLE()": "468",
				"EXECUTOR_ROLE()": "375",
				"PROPOSER_ROLE()": "396",
				"TIMELOCK_ADMIN_ROLE()": "397",
				"cancel(bytes32)": "infinite",
				"execute(address,uint256,bytes,bytes32,bytes32)": "infinite",
				"executeBatch(address[],uint256[],bytes[],bytes32,bytes32)": "infinite",
				"getMinDelay()": "1247",
				"getRoleAdmin(bytes32)": "infinite",
				"getRoleMember(bytes32,uint256)": "infinite",
				"getRoleMemberCount(bytes32)": "1681",
				"getTimestamp(bytes32)": "1524",
				"grantRole(bytes32,address)": "infinite",
				"hasRole(bytes32,address)": "infinite",
				"hashOperation(address,uint256,bytes,bytes32,bytes32)": "infinite",
				"hashOperationBatch(address[],uint256[],bytes[],bytes32,bytes32)": "infinite",
				"isOperation(bytes32)": "1602",
				"isOperationDone(bytes32)": "1558",
				"isOperationPending(bytes32)": "1646",
				"isOperationReady(bytes32)": "1693",
				"renounceRole(bytes32,address)": "infinite",
				"revokeRole(bytes32,address)": "infinite",
				"schedule(address,uint256,bytes,bytes32,bytes32,uint256)": "infinite",
				"scheduleBatch(address[],uint256[],bytes[],bytes32,bytes32,uint256)": "infinite",
				"updateDelay(uint256)": "infinite"
			},
			"internal": {
				"_afterCall(bytes32)": "infinite",
				"_beforeCall(bytes32)": "infinite",
				"_call(bytes32,uint256,address,uint256,bytes calldata)": "infinite",
				"_schedule(bytes32,uint256)": "infinite"
			}
		},
		"methodIdentifiers": {
			"DEFAULT_ADMIN_ROLE()": "a217fddf",
			"EXECUTOR_ROLE()": "07bd0265",
			"PROPOSER_ROLE()": "8f61f4f5",
			"TIMELOCK_ADMIN_ROLE()": "0d3cf6fc",
			"cancel(bytes32)": "c4d252f5",
			"execute(address,uint256,bytes,bytes32,bytes32)": "134008d3",
			"executeBatch(address[],uint256[],bytes[],bytes32,bytes32)": "e38335e5",
			"getMinDelay()": "f27a0c92",
			"getRoleAdmin(bytes32)": "248a9ca3",
			"getRoleMember(bytes32,uint256)": "9010d07c",
			"getRoleMemberCount(bytes32)": "ca15c873",
			"getTimestamp(bytes32)": "d45c4435",
			"grantRole(bytes32,address)": "2f2ff15d",
			"hasRole(bytes32,address)": "91d14854",
			"hashOperation(address,uint256,bytes,bytes32,bytes32)": "8065657f",
			"hashOperationBatch(address[],uint256[],bytes[],bytes32,bytes32)": "b1c5f427",
			"isOperation(bytes32)": "31d50750",
			"isOperationDone(bytes32)": "2ab0f529",
			"isOperationPending(bytes32)": "584b153e",
			"isOperationReady(bytes32)": "13bc9f20",
			"renounceRole(bytes32,address)": "36568abe",
			"revokeRole(bytes32,address)": "d547741f",
			"schedule(address,uint256,bytes,bytes32,bytes32,uint256)": "01d5062a",
			"scheduleBatch(address[],uint256[],bytes[],bytes32,bytes32,uint256)": "8f2a0bb0",
			"updateDelay(uint256)": "64d62353"
		}
	},
	"abi": [
		{
			"inputs": [
				{
					"internalType": "uint256",
					"name": "minDelay",
					"type": "uint256"
				},
				{
					"internalType": "address[]",
					"name": "proposers",
					"type": "address[]"
				},
				{
					"internalType": "address[]",
					"name": "executors",
					"type": "address[]"
				}
			],
			"stateMutability": "nonpayable",
			"type": "constructor"
		},
		{
			"anonymous": false,
			"inputs": [
				{
					"indexed": true,
					"internalType": "bytes32",
					"name": "id",
					"type": "bytes32"
				},
				{
					"indexed": true,
					"internalType": "uint256",
					"name": "index",
					"type": "uint256"
				},
				{
					"indexed": false,
					"internalType": "address",
					"name": "target",
					"type": "address"
				},
				{
					"indexed": false,
					"internalType": "uint256",
					"name": "value",
					"type": "uint256"
				},
				{
					"indexed": false,
					"internalType": "bytes",
					"name": "data",
					"type": "bytes"
				}
			],
			"name": "CallExecuted",
			"type": "event"
		},
		{
			"anonymous": false,
			"inputs": [
				{
					"indexed": true,
					"internalType": "bytes32",
					"name": "id",
					"type": "bytes32"
				},
				{
					"indexed": true,
					"internalType": "uint256",
					"name": "index",
					"type": "uint256"
				},
				{
					"indexed": false,
					"internalType": "address",
					"name": "target",
					"type": "address"
				},
				{
					"indexed": false,
					"internalType": "uint256",
					"name": "value",
					"type": "uint256"
				},
				{
					"indexed": false,
					"internalType": "bytes",
					"name": "data",
					"type": "bytes"
				},
				{
					"indexed": false,
					"internalType": "bytes32",
					"name": "predecessor",
					"type": "bytes32"
				},
				{
					"indexed": false,
					"internalType": "uint256",
					"name": "delay",
					"type": "uint256"
				}
			],
			"name": "CallScheduled",
			"type": "event"
		},
		{
			"anonymous": false,
			"inputs": [
				{
					"indexed": true,
					"internalType": "bytes32",
					"name": "id",
					"type": "bytes32"
				}
			],
			"name": "Cancelled",
			"type": "event"
		},
		{
			"anonymous": false,
			"inputs": [
				{
					"indexed": false,
					"internalType": "uint256",
					"name": "oldDuration",
					"type": "uint256"
				},
				{
					"indexed": false,
					"internalType": "uint256",
					"name": "newDuration",
					"type": "uint256"
				}
			],
			"name": "MinDelayChange",
			"type": "event"
		},
		{
			"anonymous": false,
			"inputs": [
				{
					"indexed": true,
					"internalType": "bytes32",
					"name": "role",
					"type": "bytes32"
				},
				{
					"indexed": true,
					"internalType": "bytes32",
					"name": "previousAdminRole",
					"type": "bytes32"
				},
				{
					"indexed": true,
					"internalType": "bytes32",
					"name": "newAdminRole",
					"type": "bytes32"
				}
			],
			"name": "RoleAdminChanged",
			"type": "event"
		},
		{
			"anonymous": false,
			"inputs": [
				{
					"indexed": true,
					"internalType": "bytes32",
					"name": "role",
					"type": "bytes32"
				},
				{
					"indexed": true,
					"internalType": "address",
					"name": "account",
					"type": "address"
				},
				{
					"indexed": true,
					"internalType": "address",
					"name": "sender",
					"type": "address"
				}
			],
			"name": "RoleGranted",
			"type": "event"
		},
		{
			"anonymous": false,
			"inputs": [
				{
					"indexed": true,
					"internalType": "bytes32",
					"name": "role",
					"type": "bytes32"
				},
				{
					"indexed": true,
					"internalType": "address",
					"name": "account",
					"type": "address"
				},
				{
					"indexed": true,
					"internalType": "address",
					"name": "sender",
					"type": "address"
				}
			],
			"name": "RoleRevoked",
			"type": "event"
		},
		{
			"inputs": [],
			"name": "DEFAULT_ADMIN_ROLE",
			"outputs": [
				{
					"internalType": "bytes32",
					"name": "",
					"type": "bytes32"
				}
			],
			"stateMutability": "view",
			"type": "function"
		},
		{
			"inputs": [],
			"name": "EXECUTOR_ROLE",
			"outputs": [
				{
					"internalType": "bytes32",
					"name": "",
					"type": "bytes32"
				}
			],
			"stateMutability": "view",
			"type": "function"
		},
		{
			"inputs": [],
			"name": "PROPOSER_ROLE",
			"outputs": [
				{
					"internalType": "bytes32",
					"name": "",
					"type": "bytes32"
				}
			],
			"stateMutability": "view",
			"type": "function"
		},
		{
			"inputs": [],
			"name": "TIMELOCK_ADMIN_ROLE",
			"outputs": [
				{
					"internalType": "bytes32",
					"name": "",
					"type": "bytes32"
				}
			],
			"stateMutability": "view",
			"type": "function"
		},
		{
			"inputs": [
				{
					"internalType": "bytes32",
					"name": "id",
					"type": "bytes32"
				}
			],
			"name": "cancel",
			"outputs": [],
			"stateMutability": "nonpayable",
			"type": "function"
		},
		{
			"inputs": [
				{
					"internalType": "address",
					"name": "target",
					"type": "address"
				},
				{
					"internalType": "uint256",
					"name": "value",
					"type": "uint256"
				},
				{
					"internalType": "bytes",
					"name": "data",
					"type": "bytes"
				},
				{
					"internalType": "bytes32",
					"name": "predecessor",
					"type": "bytes32"
				},
				{
					"internalType": "bytes32",
					"name": "salt",
					"type": "bytes32"
				}
			],
			"name": "execute",
			"outputs": [],
			"stateMutability": "payable",
			"type": "function"
		},
		{
			"inputs": [
				{
					"internalType": "address[]",
					"name": "targets",
					"type": "address[]"
				},
				{
					"internalType": "uint256[]",
					"name": "values",
					"type": "uint256[]"
				},
				{
					"internalType": "bytes[]",
					"name": "datas",
					"type": "bytes[]"
				},
				{
					"internalType": "bytes32",
					"name": "predecessor",
					"type": "bytes32"
				},
				{
					"internalType": "bytes32",
					"name": "salt",
					"type": "bytes32"
				}
			],
			"name": "executeBatch",
			"outputs": [],
			"stateMutability": "payable",
			"type": "function"
		},
		{
			"inputs": [],
			"name": "getMinDelay",
			"outputs": [
				{
					"internalType": "uint256",
					"name": "duration",
					"type": "uint256"
				}
			],
			"stateMutability": "view",
			"type": "function"
		},
		{
			"inputs": [
				{
					"internalType": "bytes32",
					"name": "role",
					"type": "bytes32"
				}
			],
			"name": "getRoleAdmin",
			"outputs": [
				{
					"internalType": "bytes32",
					"name": "",
					"type": "bytes32"
				}
			],
			"stateMutability": "view",
			"type": "function"
		},
		{
			"inputs": [
				{
					"internalType": "bytes32",
					"name": "role",
					"type": "bytes32"
				},
				{
					"internalType": "uint256",
					"name": "index",
					"type": "uint256"
				}
			],
			"name": "getRoleMember",
			"outputs": [
				{
					"internalType": "address",
					"name": "",
					"type": "address"
				}
			],
			"stateMutability": "view",
			"type": "function"
		},
		{
			"inputs": [
				{
					"internalType": "bytes32",
					"name": "role",
					"type": "bytes32"
				}
			],
			"name": "getRoleMemberCount",
			"outputs": [
				{
					"internalType": "uint256",
					"name": "",
					"type": "uint256"
				}
			],
			"stateMutability": "view",
			"type": "function"
		},
		{
			"inputs": [
				{
					"internalType": "bytes32",
					"name": "id",
					"type": "bytes32"
				}
			],
			"name": "getTimestamp",
			"outputs": [
				{
					"internalType": "uint256",
					"name": "timestamp",
					"type": "uint256"
				}
			],
			"stateMutability": "view",
			"type": "function"
		},
		{
			"inputs": [
				{
					"internalType": "bytes32",
					"name": "role",
					"type": "bytes32"
				},
				{
					"internalType": "address",
					"name": "account",
					"type": "address"
				}
			],
			"name": "grantRole",
			"outputs": [],
			"stateMutability": "nonpayable",
			"type": "function"
		},
		{
			"inputs": [
				{
					"internalType": "bytes32",
					"name": "role",
					"type": "bytes32"
				},
				{
					"internalType": "address",
					"name": "account",
					"type": "address"
				}
			],
			"name": "hasRole",
			"outputs": [
				{
					"internalType": "bool",
					"name": "",
					"type": "bool"
				}
			],
			"stateMutability": "view",
			"type": "function"
		},
		{
			"inputs": [
				{
					"internalType": "address",
					"name": "target",
					"type": "address"
				},
				{
					"internalType": "uint256",
					"name": "value",
					"type": "uint256"
				},
				{
					"internalType": "bytes",
					"name": "data",
					"type": "bytes"
				},
				{
					"internalType": "bytes32",
					"name": "predecessor",
					"type": "bytes32"
				},
				{
					"internalType": "bytes32",
					"name": "salt",
					"type": "bytes32"
				}
			],
			"name": "hashOperation",
			"outputs": [
				{
					"internalType": "bytes32",
					"name": "hash",
					"type": "bytes32"
				}
			],
			"stateMutability": "pure",
			"type": "function"
		},
		{
			"inputs": [
				{
					"internalType": "address[]",
					"name": "targets",
					"type": "address[]"
				},
				{
					"internalType": "uint256[]",
					"name": "values",
					"type": "uint256[]"
				},
				{
					"internalType": "bytes[]",
					"name": "datas",
					"type": "bytes[]"
				},
				{
					"internalType": "bytes32",
					"name": "predecessor",
					"type": "bytes32"
				},
				{
					"internalType": "bytes32",
					"name": "salt",
					"type": "bytes32"
				}
			],
			"name": "hashOperationBatch",
			"outputs": [
				{
					"internalType": "bytes32",
					"name": "hash",
					"type": "bytes32"
				}
			],
			"stateMutability": "pure",
			"type": "function"
		},
		{
			"inputs": [
				{
					"internalType": "bytes32",
					"name": "id",
					"type": "bytes32"
				}
			],
			"name": "isOperation",
			"outputs": [
				{
					"internalType": "bool",
					"name": "pending",
					"type": "bool"
				}
			],
			"stateMutability": "view",
			"type": "function"
		},
		{
			"inputs": [
				{
					"internalType": "bytes32",
					"name": "id",
					"type": "bytes32"
				}
			],
			"name": "isOperationDone",
			"outputs": [
				{
					"internalType": "bool",
					"name": "done",
					"type": "bool"
				}
			],
			"stateMutability": "view",
			"type": "function"
		},
		{
			"inputs": [
				{
					"internalType": "bytes32",
					"name": "id",
					"type": "bytes32"
				}
			],
			"name": "isOperationPending",
			"outputs": [
				{
					"internalType": "bool",
					"name": "pending",
					"type": "bool"
				}
			],
			"stateMutability": "view",
			"type": "function"
		},
		{
			"inputs": [
				{
					"internalType": "bytes32",
					"name": "id",
					"type": "bytes32"
				}
			],
			"name": "isOperationReady",
			"outputs": [
				{
					"internalType": "bool",
					"name": "ready",
					"type": "bool"
				}
			],
			"stateMutability": "view",
			"type": "function"
		},
		{
			"inputs": [
				{
					"internalType": "bytes32",
					"name": "role",
					"type": "bytes32"
				},
				{
					"internalType": "address",
					"name": "account",
					"type": "address"
				}
			],
			"name": "renounceRole",
			"outputs": [],
			"stateMutability": "nonpayable",
			"type": "function"
		},
		{
			"inputs": [
				{
					"internalType": "bytes32",
					"name": "role",
					"type": "bytes32"
				},
				{
					"internalType": "address",
					"name": "account",
					"type": "address"
				}
			],
			"name": "revokeRole",
			"outputs": [],
			"stateMutability": "nonpayable",
			"type": "function"
		},
		{
			"inputs": [
				{
					"internalType": "address",
					"name": "target",
					"type": "address"
				},
				{
					"internalType": "uint256",
					"name": "value",
					"type": "uint256"
				},
				{
					"internalType": "bytes",
					"name": "data",
					"type": "bytes"
				},
				{
					"internalType": "bytes32",
					"name": "predecessor",
					"type": "bytes32"
				},
				{
					"internalType": "bytes32",
					"name": "salt",
					"type": "bytes32"
				},
				{
					"internalType": "uint256",
					"name": "delay",
					"type": "uint256"
				}
			],
			"name": "schedule",
			"outputs": [],
			"stateMutability": "nonpayable",
			"type": "function"
		},
		{
			"inputs": [
				{
					"internalType": "address[]",
					"name": "targets",
					"type": "address[]"
				},
				{
					"internalType": "uint256[]",
					"name": "values",
					"type": "uint256[]"
				},
				{
					"internalType": "bytes[]",
					"name": "datas",
					"type": "bytes[]"
				},
				{
					"internalType": "bytes32",
					"name": "predecessor",
					"type": "bytes32"
				},
				{
					"internalType": "bytes32",
					"name": "salt",
					"type": "bytes32"
				},
				{
					"internalType": "uint256",
					"name": "delay",
					"type": "uint256"
				}
			],
			"name": "scheduleBatch",
			"outputs": [],
			"stateMutability": "nonpayable",
			"type": "function"
		},
		{
			"inputs": [
				{
					"internalType": "uint256",
					"name": "newDelay",
					"type": "uint256"
				}
			],
			"name": "updateDelay",
			"outputs": [],
			"stateMutability": "nonpayable",
			"type": "function"
		},
		{
			"stateMutability": "payable",
			"type": "receive"
		}
	]
}