{
  "_format": "hh-sol-artifact-1",
  "contractName": "ChequeBook",
  "sourceName": "contracts/ChequeBook.sol",
  "abi": [
    {
      "anonymous": false,
      "inputs": [
        {
          "indexed": true,
          "internalType": "address",
          "name": "beneficiary",
          "type": "address"
        },
        {
          "indexed": false,
          "internalType": "address",
          "name": "recipient",
          "type": "address"
        },
        {
          "indexed": false,
          "internalType": "uint256",
          "name": "amount",
          "type": "uint256"
        }
      ],
      "name": "Cashouted",
      "type": "event"
    },
    {
      "anonymous": false,
      "inputs": [
        {
          "indexed": true,
          "internalType": "address",
          "name": "beneficiary",
          "type": "address"
        },
        {
          "indexed": false,
          "internalType": "uint256",
          "name": "amount",
          "type": "uint256"
        }
      ],
      "name": "HardDepositAmountChanged",
      "type": "event"
    },
    {
      "inputs": [],
      "name": "balance",
      "outputs": [
        {
          "internalType": "uint256",
          "name": "",
          "type": "uint256"
        }
      ],
      "stateMutability": "view",
      "type": "function"
    },
    {
      "inputs": [
        {
          "internalType": "address",
          "name": "",
          "type": "address"
        }
      ],
      "name": "beneficiaryBalances",
      "outputs": [
        {
          "internalType": "uint256",
          "name": "",
          "type": "uint256"
        }
      ],
      "stateMutability": "view",
      "type": "function"
    },
    {
      "inputs": [
        {
          "internalType": "address",
          "name": "recipient",
          "type": "address"
        },
        {
          "internalType": "uint256",
          "name": "amount",
          "type": "uint256"
        }
      ],
      "name": "cashout",
      "outputs": [],
      "stateMutability": "nonpayable",
      "type": "function"
    },
    {
      "inputs": [
        {
          "internalType": "uint256",
          "name": "amount",
          "type": "uint256"
        }
      ],
      "name": "deposit",
      "outputs": [],
      "stateMutability": "nonpayable",
      "type": "function"
    },
    {
      "inputs": [
        {
          "internalType": "address",
          "name": "",
          "type": "address"
        }
      ],
      "name": "hardDepositBalances",
      "outputs": [
        {
          "internalType": "uint256",
          "name": "",
          "type": "uint256"
        }
      ],
      "stateMutability": "view",
      "type": "function"
    },
    {
      "inputs": [
        {
          "internalType": "address",
          "name": "_issuer",
          "type": "address"
        },
        {
          "internalType": "address",
          "name": "_token",
          "type": "address"
        }
      ],
      "name": "init",
      "outputs": [],
      "stateMutability": "nonpayable",
      "type": "function"
    },
    {
      "inputs": [],
      "name": "issuer",
      "outputs": [
        {
          "internalType": "address",
          "name": "",
          "type": "address"
        }
      ],
      "stateMutability": "view",
      "type": "function"
    },
    {
      "inputs": [],
      "name": "liquidBalance",
      "outputs": [
        {
          "internalType": "uint256",
          "name": "",
          "type": "uint256"
        }
      ],
      "stateMutability": "view",
      "type": "function"
    },
    {
      "inputs": [
        {
          "internalType": "address",
          "name": "",
          "type": "address"
        }
      ],
      "name": "paidOut",
      "outputs": [
        {
          "internalType": "uint256",
          "name": "",
          "type": "uint256"
        }
      ],
      "stateMutability": "view",
      "type": "function"
    },
    {
      "inputs": [
        {
          "internalType": "address",
          "name": "beneficiary",
          "type": "address"
        },
        {
          "internalType": "uint256",
          "name": "amount",
          "type": "uint256"
        }
      ],
      "name": "pay",
      "outputs": [],
      "stateMutability": "nonpayable",
      "type": "function"
    },
    {
      "inputs": [
        {
          "internalType": "address",
          "name": "beneficiary",
          "type": "address"
        },
        {
          "internalType": "uint256",
          "name": "amount",
          "type": "uint256"
        }
      ],
      "name": "payHardDeposit",
      "outputs": [],
      "stateMutability": "nonpayable",
      "type": "function"
    },
    {
      "inputs": [],
      "name": "token",
      "outputs": [
        {
          "internalType": "contract ERC20",
          "name": "",
          "type": "address"
        }
      ],
      "stateMutability": "view",
      "type": "function"
    },
    {
      "inputs": [],
      "name": "totalBeneficiary",
      "outputs": [
        {
          "internalType": "uint256",
          "name": "",
          "type": "uint256"
        }
      ],
      "stateMutability": "view",
      "type": "function"
    },
    {
      "inputs": [],
      "name": "totalHardDeposit",
      "outputs": [
        {
          "internalType": "uint256",
          "name": "",
          "type": "uint256"
        }
      ],
      "stateMutability": "view",
      "type": "function"
    },
    {
      "inputs": [],
      "name": "totalPaidOut",
      "outputs": [
        {
          "internalType": "uint256",
          "name": "",
          "type": "uint256"
        }
      ],
      "stateMutability": "view",
      "type": "function"
    }
  ],
  "bytecode": "0x608060405234801561001057600080fd5b50610c0b806100206000396000f3fe608060405234801561001057600080fd5b50600436106100f55760003560e01c8063b6b55f2511610097578063e0bcf13a11610066578063e0bcf13a146101b9578063f09a4016146101c1578063f6407d0c146101d4578063fc0c546a146101e7576100f5565b8063b6b55f2514610176578063b7b172b31461018b578063b7ec1a331461019e578063c4076876146101a6576100f5565b80635bf58ec7116100d35780635bf58ec71461014057806381f03fcb14610153578063959d15ca14610166578063b69ef8a81461016e576100f5565b80631357e1dc146100fa5780631d143848146101185780635664865a1461012d575b600080fd5b6101026101ef565b60405161010f9190610bcc565b60405180910390f35b6101206101f5565b60405161010f9190610a06565b61010261013b366004610941565b610204565b61010261014e366004610941565b610216565b610102610161366004610941565b610228565b61010261023a565b610102610240565b6101896101843660046109d6565b6102c6565b005b61018961019936600461098d565b61037c565b6101026104a7565b6101896101b436600461098d565b6104bd565b61010261056b565b6101896101cf36600461095b565b610571565b6101896101e236600461098d565b6105ee565b61012061064a565b60045481565b6007546001600160a01b031681565b60026020526000908152604090205481565b60016020526000908152604090205481565b60036020526000908152604090205481565b60065481565b600080546040516370a0823160e01b81526001600160a01b03909116906370a0823190610271903090600401610a06565b60206040518083038186803b15801561028957600080fd5b505afa15801561029d573d6000803e3d6000fd5b505050506040513d601f19601f820116820180604052508101906102c191906109ee565b905090565b60005460405163a9059cbb60e01b81526001600160a01b039091169063a9059cbb906102f89030908590600401610a1a565b602060405180830381600087803b15801561031257600080fd5b505af1158015610326573d6000803e3d6000fd5b505050506040513d601f19601f8201168201806040525081019061034a91906109b6565b61036f5760405162461bcd60e51b815260040161036690610b6e565b60405180910390fd5b6103793382610659565b50565b61038633826106dc565b336000908152600360205260409020546103a0908261074e565b336000908152600360205260409020556004546103bd908261074e565b600490815560005460405163a9059cbb60e01b81526001600160a01b039091169163a9059cbb916103f2918691869101610a1a565b602060405180830381600087803b15801561040c57600080fd5b505af1158015610420573d6000803e3d6000fd5b505050506040513d601f19601f8201168201806040525081019061044491906109b6565b6104605760405162461bcd60e51b815260040161036690610af6565b336001600160a01b03167f92fec97bff9ddc18bbb7cf738dd42818ad2528ca913ee47fbe149a5cc822ad21838360405161049b929190610a1a565b60405180910390a25050565b60006102c16005546104b7610240565b906107af565b60005460405163a9059cbb60e01b81526001600160a01b039091169063a9059cbb906104ef9030908590600401610a1a565b602060405180830381600087803b15801561050957600080fd5b505af115801561051d573d6000803e3d6000fd5b505050506040513d601f19601f8201168201806040525081019061054191906109b6565b61055d5760405162461bcd60e51b815260040161036690610b6e565b610567828261080c565b5050565b60055481565b6001600160a01b0382166105975760405162461bcd60e51b815260040161036690610aa1565b6007546001600160a01b0316156105c05760405162461bcd60e51b815260040161036690610ac9565b600780546001600160a01b039384166001600160a01b03199182161790915560008054929093169116179055565b6105f83382610882565b610602828261080c565b6001600160a01b038216600081815260026020526040908190205490517f2506c43272ded05d095b91dbba876e66e46888157d3e078db5691496e96c5fad9161049b91610bcc565b6000546001600160a01b031681565b610661610240565b60055461066e908361074e565b111561068c5760405162461bcd60e51b815260040161036690610a6a565b6001600160a01b0382166000908152600160205260409020546106af908261074e565b6001600160a01b0383166000908152600160205260409020556005546106d5908261074e565b6005555050565b8060065410156106fe5760405162461bcd60e51b815260040161036690610b97565b6001600160a01b03821660009081526002602052604090205461072190826107af565b6001600160a01b03831660009081526002602052604090205560065461074790826107af565b6006555050565b6000828201838110156107a8576040805162461bcd60e51b815260206004820152601b60248201527f536166654d6174683a206164646974696f6e206f766572666c6f770000000000604482015290519081900360640190fd5b9392505050565b600082821115610806576040805162461bcd60e51b815260206004820152601e60248201527f536166654d6174683a207375627472616374696f6e206f766572666c6f770000604482015290519081900360640190fd5b50900390565b610814610240565b600654610821908361074e565b111561083f5760405162461bcd60e51b815260040161036690610a6a565b6001600160a01b038216600090815260026020526040902054610862908261074e565b6001600160a01b0390921660009081526002602052604090209190915550565b6001600160a01b0382166000908152600160205260409020548111156108ba5760405162461bcd60e51b815260040161036690610a33565b8060055410156108dc5760405162461bcd60e51b815260040161036690610b2d565b6001600160a01b0382166000908152600160205260409020546108ff90826107af565b6001600160a01b0383166000908152600160205260409020556005546106d590826107af565b80356001600160a01b038116811461093c57600080fd5b919050565b600060208284031215610952578081fd5b6107a882610925565b6000806040838503121561096d578081fd5b61097683610925565b915061098460208401610925565b90509250929050565b6000806040838503121561099f578182fd5b6109a883610925565b946020939093013593505050565b6000602082840312156109c7578081fd5b815180151581146107a8578182fd5b6000602082840312156109e7578081fd5b5035919050565b6000602082840312156109ff578081fd5b5051919050565b6001600160a01b0391909116815260200190565b6001600160a01b03929092168252602082015260400190565b6020808252601c908201527f616d6f756e742065786365656473206f776e65722062616c616e636500000000604082015260600190565b6020808252601d908201527f616d6f756e74206578636565647320676c6f62616c2062616c616e6365000000604082015260600190565b6020808252600e908201526d34b73b30b634b21034b9b9bab2b960911b604082015260600190565b602080825260139082015272185b1c9958591e481a5b9a5d1a585b1a5e9959606a1b604082015260600190565b60208082526017908201527f636173686f7574207472616e73666572206661696c6564000000000000000000604082015260600190565b60208082526021908201527f616d6f756e74206578636565647320746f74616c2068617264206465706f73696040820152601d60fa1b606082015260800190565b6020808252600f908201526e1d1c985b9cd9995c8819985a5b1959608a1b604082015260600190565b6020808252818101527f616d6f756e74206578636565647320746f74616c2062656e6566696369617279604082015260600190565b9081526020019056fea264697066735822122085b7539d0cd26e9cb9b1195042c012df081ce0e4c70f1620486e77531116534464736f6c63430007060033",
  "linkReferences": {},
  "deployedLinkReferences": {}
}