{
  "_format": "hh-sol-artifact-1",
  "contractName": "ChequeBook",
  "sourceName": "contracts/ChequeBook.sol",
  "abi": [
    {
      "anonymous": false,
      "inputs": [
        {
          "indexed": true,
          "internalType": "address",
          "name": "beneficiary",
          "type": "address"
        },
        {
          "indexed": false,
          "internalType": "address",
          "name": "recipient",
          "type": "address"
        },
        {
          "indexed": false,
          "internalType": "uint256",
          "name": "amount",
          "type": "uint256"
        }
      ],
      "name": "Cashouted",
      "type": "event"
    },
    {
      "anonymous": false,
      "inputs": [
        {
          "indexed": true,
          "internalType": "address",
          "name": "beneficiary",
          "type": "address"
        },
        {
          "indexed": false,
          "internalType": "uint256",
          "name": "amount",
          "type": "uint256"
        }
      ],
      "name": "HardDepositAmountChanged",
      "type": "event"
    },
    {
      "anonymous": false,
      "inputs": [
        {
          "indexed": true,
          "internalType": "address",
          "name": "previousOwner",
          "type": "address"
        },
        {
          "indexed": true,
          "internalType": "address",
          "name": "newOwner",
          "type": "address"
        }
      ],
      "name": "OwnershipTransferred",
      "type": "event"
    },
    {
      "inputs": [],
      "name": "balance",
      "outputs": [
        {
          "internalType": "uint256",
          "name": "",
          "type": "uint256"
        }
      ],
      "stateMutability": "view",
      "type": "function"
    },
    {
      "inputs": [
        {
          "internalType": "address",
          "name": "",
          "type": "address"
        }
      ],
      "name": "beneficiaryBalances",
      "outputs": [
        {
          "internalType": "uint256",
          "name": "",
          "type": "uint256"
        }
      ],
      "stateMutability": "view",
      "type": "function"
    },
    {
      "inputs": [
        {
          "internalType": "address",
          "name": "recipient",
          "type": "address"
        },
        {
          "internalType": "uint256",
          "name": "amount",
          "type": "uint256"
        }
      ],
      "name": "cashout",
      "outputs": [],
      "stateMutability": "nonpayable",
      "type": "function"
    },
    {
      "inputs": [
        {
          "internalType": "uint256",
          "name": "amount",
          "type": "uint256"
        }
      ],
      "name": "deposit",
      "outputs": [],
      "stateMutability": "nonpayable",
      "type": "function"
    },
    {
      "inputs": [
        {
          "internalType": "address",
          "name": "",
          "type": "address"
        }
      ],
      "name": "hardDepositBalances",
      "outputs": [
        {
          "internalType": "uint256",
          "name": "",
          "type": "uint256"
        }
      ],
      "stateMutability": "view",
      "type": "function"
    },
    {
      "inputs": [
        {
          "internalType": "address",
          "name": "_issuer",
          "type": "address"
        },
        {
          "internalType": "address",
          "name": "_token",
          "type": "address"
        }
      ],
      "name": "init",
      "outputs": [],
      "stateMutability": "nonpayable",
      "type": "function"
    },
    {
      "inputs": [],
      "name": "issuer",
      "outputs": [
        {
          "internalType": "address",
          "name": "",
          "type": "address"
        }
      ],
      "stateMutability": "view",
      "type": "function"
    },
    {
      "inputs": [],
      "name": "liquidBalance",
      "outputs": [
        {
          "internalType": "uint256",
          "name": "",
          "type": "uint256"
        }
      ],
      "stateMutability": "view",
      "type": "function"
    },
    {
      "inputs": [],
      "name": "owner",
      "outputs": [
        {
          "internalType": "address",
          "name": "",
          "type": "address"
        }
      ],
      "stateMutability": "view",
      "type": "function"
    },
    {
      "inputs": [
        {
          "internalType": "address",
          "name": "",
          "type": "address"
        }
      ],
      "name": "paidOut",
      "outputs": [
        {
          "internalType": "uint256",
          "name": "",
          "type": "uint256"
        }
      ],
      "stateMutability": "view",
      "type": "function"
    },
    {
      "inputs": [
        {
          "internalType": "address",
          "name": "beneficiary",
          "type": "address"
        },
        {
          "internalType": "uint256",
          "name": "amount",
          "type": "uint256"
        }
      ],
      "name": "pay",
      "outputs": [],
      "stateMutability": "nonpayable",
      "type": "function"
    },
    {
      "inputs": [
        {
          "internalType": "address",
          "name": "beneficiary",
          "type": "address"
        },
        {
          "internalType": "uint256",
          "name": "amount",
          "type": "uint256"
        }
      ],
      "name": "payHardDeposit",
      "outputs": [],
      "stateMutability": "nonpayable",
      "type": "function"
    },
    {
      "inputs": [],
      "name": "renounceOwnership",
      "outputs": [],
      "stateMutability": "nonpayable",
      "type": "function"
    },
    {
      "inputs": [],
      "name": "token",
      "outputs": [
        {
          "internalType": "contract ERC20",
          "name": "",
          "type": "address"
        }
      ],
      "stateMutability": "view",
      "type": "function"
    },
    {
      "inputs": [],
      "name": "totalBeneficiary",
      "outputs": [
        {
          "internalType": "uint256",
          "name": "",
          "type": "uint256"
        }
      ],
      "stateMutability": "view",
      "type": "function"
    },
    {
      "inputs": [],
      "name": "totalHardDeposit",
      "outputs": [
        {
          "internalType": "uint256",
          "name": "",
          "type": "uint256"
        }
      ],
      "stateMutability": "view",
      "type": "function"
    },
    {
      "inputs": [],
      "name": "totalPaidOut",
      "outputs": [
        {
          "internalType": "uint256",
          "name": "",
          "type": "uint256"
        }
      ],
      "stateMutability": "view",
      "type": "function"
    },
    {
      "inputs": [
        {
          "internalType": "address",
          "name": "newOwner",
          "type": "address"
        }
      ],
      "name": "transferOwnership",
      "outputs": [],
      "stateMutability": "nonpayable",
      "type": "function"
    }
  ],
  "bytecode": "0x608060405234801561001057600080fd5b50600061001b61006a565b600080546001600160a01b0319166001600160a01b0383169081178255604051929350917f8be0079c531659141344cd1fd0a4f28419497f9722a3daafe3b4186f6b6457e0908290a35061006e565b3390565b610ece8061007d6000396000f3fe608060405234801561001057600080fd5b50600436106101165760003560e01c8063b6b55f25116100a2578063e0bcf13a11610071578063e0bcf13a146101ea578063f09a4016146101f2578063f2fde38b14610205578063f6407d0c14610218578063fc0c546a1461022b57610116565b8063b6b55f25146101a9578063b7b172b3146101bc578063b7ec1a33146101cf578063c4076876146101d757610116565b8063715018a6116100e9578063715018a61461017457806381f03fcb1461017e5780638da5cb5b14610191578063959d15ca14610199578063b69ef8a8146101a157610116565b80631357e1dc1461011b5780631d143848146101395780635664865a1461014e5780635bf58ec714610161575b600080fd5b610123610233565b6040516101309190610e69565b60405180910390f35b610141610239565b6040516101309190610ca3565b61012361015c366004610bde565b610248565b61012361016f366004610bde565b61025a565b61017c61026c565b005b61012361018c366004610bde565b61032a565b61014161033c565b61012361034b565b610123610351565b61017c6101b7366004610c73565b6103d7565b61017c6101ca366004610c2a565b61048d565b6101236105b8565b61017c6101e5366004610c2a565b6105ce565b61012361067c565b61017c610200366004610bf8565b610682565b61017c610213366004610bde565b610773565b61017c610226366004610c2a565b610887565b6101416108e3565b60055481565b6008546001600160a01b031681565b60036020526000908152604090205481565b60026020526000908152604090205481565b6102746108f2565b6001600160a01b031661028561033c565b6001600160a01b0316146102e0576040805162461bcd60e51b815260206004820181905260248201527f4f776e61626c653a2063616c6c6572206973206e6f7420746865206f776e6572604482015290519081900360640190fd5b600080546040516001600160a01b03909116907f8be0079c531659141344cd1fd0a4f28419497f9722a3daafe3b4186f6b6457e0908390a3600080546001600160a01b0319169055565b60046020526000908152604090205481565b6000546001600160a01b031690565b60075481565b6001546040516370a0823160e01b81526000916001600160a01b0316906370a0823190610382903090600401610ca3565b60206040518083038186803b15801561039a57600080fd5b505afa1580156103ae573d6000803e3d6000fd5b505050506040513d601f19601f820116820180604052508101906103d29190610c8b565b905090565b60015460405163a9059cbb60e01b81526001600160a01b039091169063a9059cbb906104099030908590600401610cb7565b602060405180830381600087803b15801561042357600080fd5b505af1158015610437573d6000803e3d6000fd5b505050506040513d601f19601f8201168201806040525081019061045b9190610c53565b6104805760405162461bcd60e51b815260040161047790610e0b565b60405180910390fd5b61048a33826108f6565b50565b6104973382610979565b336000908152600460205260409020546104b190826109eb565b336000908152600460205260409020556005546104ce90826109eb565b60055560015460405163a9059cbb60e01b81526001600160a01b039091169063a9059cbb906105039085908590600401610cb7565b602060405180830381600087803b15801561051d57600080fd5b505af1158015610531573d6000803e3d6000fd5b505050506040513d601f19601f820116820180604052508101906105559190610c53565b6105715760405162461bcd60e51b815260040161047790610d93565b336001600160a01b03167f92fec97bff9ddc18bbb7cf738dd42818ad2528ca913ee47fbe149a5cc822ad2183836040516105ac929190610cb7565b60405180910390a25050565b60006103d26006546105c8610351565b90610a4c565b60015460405163a9059cbb60e01b81526001600160a01b039091169063a9059cbb906106009030908590600401610cb7565b602060405180830381600087803b15801561061a57600080fd5b505af115801561062e573d6000803e3d6000fd5b505050506040513d601f19601f820116820180604052508101906106529190610c53565b61066e5760405162461bcd60e51b815260040161047790610e0b565b6106788282610aa9565b5050565b60065481565b61068a6108f2565b6001600160a01b031661069b61033c565b6001600160a01b0316146106f6576040805162461bcd60e51b815260206004820181905260248201527f4f776e61626c653a2063616c6c6572206973206e6f7420746865206f776e6572604482015290519081900360640190fd5b6001600160a01b03821661071c5760405162461bcd60e51b815260040161047790610d3e565b6008546001600160a01b0316156107455760405162461bcd60e51b815260040161047790610d66565b600880546001600160a01b039384166001600160a01b03199182161790915560018054929093169116179055565b61077b6108f2565b6001600160a01b031661078c61033c565b6001600160a01b0316146107e7576040805162461bcd60e51b815260206004820181905260248201527f4f776e61626c653a2063616c6c6572206973206e6f7420746865206f776e6572604482015290519081900360640190fd5b6001600160a01b03811661082c5760405162461bcd60e51b8152600401808060200182810382526026815260200180610e736026913960400191505060405180910390fd5b600080546040516001600160a01b03808516939216917f8be0079c531659141344cd1fd0a4f28419497f9722a3daafe3b4186f6b6457e091a3600080546001600160a01b0319166001600160a01b0392909216919091179055565b6108913382610b1f565b61089b8282610aa9565b6001600160a01b038216600081815260036020526040908190205490517f2506c43272ded05d095b91dbba876e66e46888157d3e078db5691496e96c5fad916105ac91610e69565b6001546001600160a01b031681565b3390565b6108fe610351565b60065461090b90836109eb565b11156109295760405162461bcd60e51b815260040161047790610d07565b6001600160a01b03821660009081526002602052604090205461094c90826109eb565b6001600160a01b03831660009081526002602052604090205560065461097290826109eb565b6006555050565b80600754101561099b5760405162461bcd60e51b815260040161047790610e34565b6001600160a01b0382166000908152600360205260409020546109be9082610a4c565b6001600160a01b0383166000908152600360205260409020556007546109e49082610a4c565b6007555050565b600082820183811015610a45576040805162461bcd60e51b815260206004820152601b60248201527f536166654d6174683a206164646974696f6e206f766572666c6f770000000000604482015290519081900360640190fd5b9392505050565b600082821115610aa3576040805162461bcd60e51b815260206004820152601e60248201527f536166654d6174683a207375627472616374696f6e206f766572666c6f770000604482015290519081900360640190fd5b50900390565b610ab1610351565b600754610abe90836109eb565b1115610adc5760405162461bcd60e51b815260040161047790610d07565b6001600160a01b038216600090815260036020526040902054610aff90826109eb565b6001600160a01b0390921660009081526003602052604090209190915550565b6001600160a01b038216600090815260026020526040902054811115610b575760405162461bcd60e51b815260040161047790610cd0565b806006541015610b795760405162461bcd60e51b815260040161047790610dca565b6001600160a01b038216600090815260026020526040902054610b9c9082610a4c565b6001600160a01b0383166000908152600260205260409020556006546109729082610a4c565b80356001600160a01b0381168114610bd957600080fd5b919050565b600060208284031215610bef578081fd5b610a4582610bc2565b60008060408385031215610c0a578081fd5b610c1383610bc2565b9150610c2160208401610bc2565b90509250929050565b60008060408385031215610c3c578182fd5b610c4583610bc2565b946020939093013593505050565b600060208284031215610c64578081fd5b81518015158114610a45578182fd5b600060208284031215610c84578081fd5b5035919050565b600060208284031215610c9c578081fd5b5051919050565b6001600160a01b0391909116815260200190565b6001600160a01b03929092168252602082015260400190565b6020808252601c908201527f616d6f756e742065786365656473206f776e65722062616c616e636500000000604082015260600190565b6020808252601d908201527f616d6f756e74206578636565647320676c6f62616c2062616c616e6365000000604082015260600190565b6020808252600e908201526d34b73b30b634b21034b9b9bab2b960911b604082015260600190565b602080825260139082015272185b1c9958591e481a5b9a5d1a585b1a5e9959606a1b604082015260600190565b60208082526017908201527f636173686f7574207472616e73666572206661696c6564000000000000000000604082015260600190565b60208082526021908201527f616d6f756e74206578636565647320746f74616c2068617264206465706f73696040820152601d60fa1b606082015260800190565b6020808252600f908201526e1d1c985b9cd9995c8819985a5b1959608a1b604082015260600190565b6020808252818101527f616d6f756e74206578636565647320746f74616c2062656e6566696369617279604082015260600190565b9081526020019056fe4f776e61626c653a206e6577206f776e657220697320746865207a65726f2061646472657373a2646970667358221220d9d3fe6aa80bdadd689067b819852fddda752f873fb602db455ff8791bd44b8164736f6c63430007060033",
  "linkReferences": {},
  "deployedLinkReferences": {}
}