{
	"data": {
		"bytecode": {
			"linkReferences": {},
			"object": "608060405234801561001057600080fd5b50611855806100206000396000f3fe608060405234801561001057600080fd5b50600436106100f55760003560e01c8063b6b55f2511610097578063e0bcf13a11610066578063e0bcf13a14610274578063f09a401614610292578063f6407d0c146102ae578063fc0c546a146102ca576100f5565b8063b6b55f2514610202578063b7b172b31461021e578063b7ec1a331461023a578063c407687614610258576100f5565b80635bf58ec7116100d35780635bf58ec71461016657806381f03fcb14610196578063959d15ca146101c6578063b69ef8a8146101e4576100f5565b80631357e1dc146100fa5780631d143848146101185780635664865a14610136575b600080fd5b6101026102e8565b60405161010f919061170c565b60405180910390f35b6101206102ee565b60405161012d919061151f565b60405180910390f35b610150600480360381019061014b9190611161565b610314565b60405161015d919061170c565b60405180910390f35b610180600480360381019061017b9190611161565b61032c565b60405161018d919061170c565b60405180910390f35b6101b060048036038101906101ab9190611161565b610344565b6040516101bd919061170c565b60405180910390f35b6101ce61035c565b6040516101db919061170c565b60405180910390f35b6101ec610362565b6040516101f9919061170c565b60405180910390f35b61021c6004803603810190610217919061122b565b610413565b005b610238600480360381019061023391906111c6565b61050e565b005b6102426107f6565b60405161024f919061170c565b60405180910390f35b610272600480360381019061026d91906111c6565b610819565b005b61027c610915565b604051610289919061170c565b60405180910390f35b6102ac60048036038101906102a7919061118a565b61091b565b005b6102c860048036038101906102c391906111c6565b610aa1565b005b6102d2610b46565b6040516102df91906115d1565b60405180910390f35b60045481565b600760009054906101000a900473ffffffffffffffffffffffffffffffffffffffff1681565b60026020528060005260406000206000915090505481565b60016020528060005260406000206000915090505481565b60036020528060005260406000206000915090505481565b60065481565b60008060009054906101000a900473ffffffffffffffffffffffffffffffffffffffff1673ffffffffffffffffffffffffffffffffffffffff166370a08231306040518263ffffffff1660e01b81526004016103be919061151f565b60206040518083038186803b1580156103d657600080fd5b505afa1580156103ea573d6000803e3d6000fd5b505050506040513d601f19601f8201168201806040525081019061040e9190611254565b905090565b60008054906101000a900473ffffffffffffffffffffffffffffffffffffffff1673ffffffffffffffffffffffffffffffffffffffff166323b872dd3330846040518463ffffffff1660e01b81526004016104709392919061153a565b602060405180830381600087803b15801561048a57600080fd5b505af115801561049e573d6000803e3d6000fd5b505050506040513d601f19601f820116820180604052508101906104c29190611202565b610501576040517f08c379a00000000000000000000000000000000000000000000000000000000081526004016104f8906116cc565b60405180910390fd5b61050b3382610b6a565b50565b6105183382610c7c565b61056a81600360003373ffffffffffffffffffffffffffffffffffffffff1673ffffffffffffffffffffffffffffffffffffffff16815260200190815260200160002054610d7590919063ffffffff16565b600360003373ffffffffffffffffffffffffffffffffffffffff1673ffffffffffffffffffffffffffffffffffffffff168152602001908152602001600020819055506105c281600454610d7590919063ffffffff16565b60048190555060008054906101000a900473ffffffffffffffffffffffffffffffffffffffff1673ffffffffffffffffffffffffffffffffffffffff16633950935130836040518363ffffffff1660e01b81526004016106239291906115a8565b602060405180830381600087803b15801561063d57600080fd5b505af1158015610651573d6000803e3d6000fd5b505050506040513d601f19601f820116820180604052508101906106759190611202565b6106b4576040517f08c379a00000000000000000000000000000000000000000000000000000000081526004016106ab9061168c565b60405180910390fd5b60008054906101000a900473ffffffffffffffffffffffffffffffffffffffff1673ffffffffffffffffffffffffffffffffffffffff166323b872dd3084846040518463ffffffff1660e01b815260040161071193929190611571565b602060405180830381600087803b15801561072b57600080fd5b505af115801561073f573d6000803e3d6000fd5b505050506040513d601f19601f820116820180604052508101906107639190611202565b6107a2576040517f08c379a00000000000000000000000000000000000000000000000000000000081526004016107999061166c565b60405180910390fd5b3373ffffffffffffffffffffffffffffffffffffffff167f92fec97bff9ddc18bbb7cf738dd42818ad2528ca913ee47fbe149a5cc822ad2183836040516107ea9291906115a8565b60405180910390a25050565b6000610814600554610806610362565b610dfd90919063ffffffff16565b905090565b60008054906101000a900473ffffffffffffffffffffffffffffffffffffffff1673ffffffffffffffffffffffffffffffffffffffff166323b872dd3330846040518463ffffffff1660e01b81526004016108769392919061153a565b602060405180830381600087803b15801561089057600080fd5b505af11580156108a4573d6000803e3d6000fd5b505050506040513d601f19601f820116820180604052508101906108c89190611202565b610907576040517f08c379a00000000000000000000000000000000000000000000000000000000081526004016108fe906116cc565b60405180910390fd5b6109118282610e80565b5050565b60055481565b600073ffffffffffffffffffffffffffffffffffffffff168273ffffffffffffffffffffffffffffffffffffffff16141561098b576040517f08c379a00000000000000000000000000000000000000000000000000000000081526004016109829061162c565b60405180910390fd5b600073ffffffffffffffffffffffffffffffffffffffff16600760009054906101000a900473ffffffffffffffffffffffffffffffffffffffff1673ffffffffffffffffffffffffffffffffffffffff1614610a1c576040517f08c379a0000000000000000000000000000000000000000000000000000000008152600401610a139061164c565b60405180910390fd5b81600760006101000a81548173ffffffffffffffffffffffffffffffffffffffff021916908373ffffffffffffffffffffffffffffffffffffffff160217905550806000806101000a81548173ffffffffffffffffffffffffffffffffffffffff021916908373ffffffffffffffffffffffffffffffffffffffff1602179055505050565b610aab3382610f92565b610ab58282610e80565b8173ffffffffffffffffffffffffffffffffffffffff167f2506c43272ded05d095b91dbba876e66e46888157d3e078db5691496e96c5fad600260008573ffffffffffffffffffffffffffffffffffffffff1673ffffffffffffffffffffffffffffffffffffffff16815260200190815260200160002054604051610b3a919061170c565b60405180910390a25050565b60008054906101000a900473ffffffffffffffffffffffffffffffffffffffff1681565b610b72610362565b610b8782600554610d7590919063ffffffff16565b1115610bc8576040517f08c379a0000000000000000000000000000000000000000000000000000000008152600401610bbf9061160c565b60405180910390fd5b610c1a81600160008573ffffffffffffffffffffffffffffffffffffffff1673ffffffffffffffffffffffffffffffffffffffff16815260200190815260200160002054610d7590919063ffffffff16565b600160008473ffffffffffffffffffffffffffffffffffffffff1673ffffffffffffffffffffffffffffffffffffffff16815260200190815260200160002081905550610c7281600554610d7590919063ffffffff16565b6005819055505050565b806006541015610cc1576040517f08c379a0000000000000000000000000000000000000000000000000000000008152600401610cb8906116ec565b60405180910390fd5b610d1381600260008573ffffffffffffffffffffffffffffffffffffffff1673ffffffffffffffffffffffffffffffffffffffff16815260200190815260200160002054610dfd90919063ffffffff16565b600260008473ffffffffffffffffffffffffffffffffffffffff1673ffffffffffffffffffffffffffffffffffffffff16815260200190815260200160002081905550610d6b81600654610dfd90919063ffffffff16565b6006819055505050565b600080828401905083811015610df3576040517f08c379a000000000000000000000000000000000000000000000000000000000815260040180806020018281038252601b8152602001807f536166654d6174683a206164646974696f6e206f766572666c6f77000000000081525060200191505060405180910390fd5b8091505092915050565b600082821115610e75576040517f08c379a000000000000000000000000000000000000000000000000000000000815260040180806020018281038252601e8152602001807f536166654d6174683a207375627472616374696f6e206f766572666c6f77000081525060200191505060405180910390fd5b818303905092915050565b610e88610362565b610e9d82600654610d7590919063ffffffff16565b1115610ede576040517f08c379a0000000000000000000000000000000000000000000000000000000008152600401610ed59061160c565b60405180910390fd5b610f3081600260008573ffffffffffffffffffffffffffffffffffffffff1673ffffffffffffffffffffffffffffffffffffffff16815260200190815260200160002054610d7590919063ffffffff16565b600260008473ffffffffffffffffffffffffffffffffffffffff1673ffffffffffffffffffffffffffffffffffffffff16815260200190815260200160002081905550610f8881600654610d7590919063ffffffff16565b6006819055505050565b80600160008473ffffffffffffffffffffffffffffffffffffffff1673ffffffffffffffffffffffffffffffffffffffff168152602001908152602001600020541015611014576040517f08c379a000000000000000000000000000000000000000000000000000000000815260040161100b906115ec565b60405180910390fd5b806005541015611059576040517f08c379a0000000000000000000000000000000000000000000000000000000008152600401611050906116ac565b60405180910390fd5b6110ab81600160008573ffffffffffffffffffffffffffffffffffffffff1673ffffffffffffffffffffffffffffffffffffffff16815260200190815260200160002054610dfd90919063ffffffff16565b600160008473ffffffffffffffffffffffffffffffffffffffff1673ffffffffffffffffffffffffffffffffffffffff1681526020019081526020016000208190555061110381600554610dfd90919063ffffffff16565b6005819055505050565b60008135905061111c816117da565b92915050565b600081519050611131816117f1565b92915050565b60008135905061114681611808565b92915050565b60008151905061115b81611808565b92915050565b60006020828403121561117357600080fd5b60006111818482850161110d565b91505092915050565b6000806040838503121561119d57600080fd5b60006111ab8582860161110d565b92505060206111bc8582860161110d565b9150509250929050565b600080604083850312156111d957600080fd5b60006111e78582860161110d565b92505060206111f885828601611137565b9150509250929050565b60006020828403121561121457600080fd5b600061122284828501611122565b91505092915050565b60006020828403121561123d57600080fd5b600061124b84828501611137565b91505092915050565b60006020828403121561126657600080fd5b60006112748482850161114c565b91505092915050565b61128681611780565b82525050565b61129581611738565b82525050565b6112a481611792565b82525050565b60006112b7601c83611727565b91507f616d6f756e742065786365656473206f776e65722062616c616e6365000000006000830152602082019050919050565b60006112f7601d83611727565b91507f616d6f756e74206578636565647320676c6f62616c2062616c616e63650000006000830152602082019050919050565b6000611337600e83611727565b91507f696e76616c6964206973737565720000000000000000000000000000000000006000830152602082019050919050565b6000611377601383611727565b91507f616c726561647920696e697469616c697a6564000000000000000000000000006000830152602082019050919050565b60006113b7601783611727565b91507f636173686f7574207472616e73666572206661696c65640000000000000000006000830152602082019050919050565b60006113f7601983611727565b91507f696e63726561736520616c6c6f77616e6365206661696c6564000000000000006000830152602082019050919050565b6000611437602183611727565b91507f616d6f756e74206578636565647320746f74616c2068617264206465706f736960008301527f74000000000000000000000000000000000000000000000000000000000000006020830152604082019050919050565b600061149d600f83611727565b91507f7472616e73666572206661696c656400000000000000000000000000000000006000830152602082019050919050565b60006114dd602083611727565b91507f616d6f756e74206578636565647320746f74616c2062656e65666963696172796000830152602082019050919050565b61151981611776565b82525050565b6000602082019050611534600083018461128c565b92915050565b600060608201905061154f600083018661127d565b61155c602083018561128c565b6115696040830184611510565b949350505050565b6000606082019050611586600083018661128c565b611593602083018561128c565b6115a06040830184611510565b949350505050565b60006040820190506115bd600083018561128c565b6115ca6020830184611510565b9392505050565b60006020820190506115e6600083018461129b565b92915050565b60006020820190508181036000830152611605816112aa565b9050919050565b60006020820190508181036000830152611625816112ea565b9050919050565b600060208201905081810360008301526116458161132a565b9050919050565b600060208201905081810360008301526116658161136a565b9050919050565b60006020820190508181036000830152611685816113aa565b9050919050565b600060208201905081810360008301526116a5816113ea565b9050919050565b600060208201905081810360008301526116c58161142a565b9050919050565b600060208201905081810360008301526116e581611490565b9050919050565b60006020820190508181036000830152611705816114d0565b9050919050565b60006020820190506117216000830184611510565b92915050565b600082825260208201905092915050565b600061174382611756565b9050919050565b60008115159050919050565b600073ffffffffffffffffffffffffffffffffffffffff82169050919050565b6000819050919050565b600061178b826117b6565b9050919050565b600061179d826117a4565b9050919050565b60006117af82611756565b9050919050565b60006117c1826117c8565b9050919050565b60006117d382611756565b9050919050565b6117e381611738565b81146117ee57600080fd5b50565b6117fa8161174a565b811461180557600080fd5b50565b61181181611776565b811461181c57600080fd5b5056fea2646970667358221220aa0ba87e3b22a79f10c2862cdabebacc215630e71d14d66fd4ce6f257b54e75964736f6c63430007060033",
			"opcodes": "PUSH1 0x80 PUSH1 0x40 MSTORE CALLVALUE DUP1 ISZERO PUSH2 0x10 JUMPI PUSH1 0x0 DUP1 REVERT JUMPDEST POP PUSH2 0x1855 DUP1 PUSH2 0x20 PUSH1 0x0 CODECOPY PUSH1 0x0 RETURN INVALID PUSH1 0x80 PUSH1 0x40 MSTORE CALLVALUE DUP1 ISZERO PUSH2 0x10 JUMPI PUSH1 0x0 DUP1 REVERT JUMPDEST POP PUSH1 0x4 CALLDATASIZE LT PUSH2 0xF5 JUMPI PUSH1 0x0 CALLDATALOAD PUSH1 0xE0 SHR DUP1 PUSH4 0xB6B55F25 GT PUSH2 0x97 JUMPI DUP1 PUSH4 0xE0BCF13A GT PUSH2 0x66 JUMPI DUP1 PUSH4 0xE0BCF13A EQ PUSH2 0x274 JUMPI DUP1 PUSH4 0xF09A4016 EQ PUSH2 0x292 JUMPI DUP1 PUSH4 0xF6407D0C EQ PUSH2 0x2AE JUMPI DUP1 PUSH4 0xFC0C546A EQ PUSH2 0x2CA JUMPI PUSH2 0xF5 JUMP JUMPDEST DUP1 PUSH4 0xB6B55F25 EQ PUSH2 0x202 JUMPI DUP1 PUSH4 0xB7B172B3 EQ PUSH2 0x21E JUMPI DUP1 PUSH4 0xB7EC1A33 EQ PUSH2 0x23A JUMPI DUP1 PUSH4 0xC4076876 EQ PUSH2 0x258 JUMPI PUSH2 0xF5 JUMP JUMPDEST DUP1 PUSH4 0x5BF58EC7 GT PUSH2 0xD3 JUMPI DUP1 PUSH4 0x5BF58EC7 EQ PUSH2 0x166 JUMPI DUP1 PUSH4 0x81F03FCB EQ PUSH2 0x196 JUMPI DUP1 PUSH4 0x959D15CA EQ PUSH2 0x1C6 JUMPI DUP1 PUSH4 0xB69EF8A8 EQ PUSH2 0x1E4 JUMPI PUSH2 0xF5 JUMP JUMPDEST DUP1 PUSH4 0x1357E1DC EQ PUSH2 0xFA JUMPI DUP1 PUSH4 0x1D143848 EQ PUSH2 0x118 JUMPI DUP1 PUSH4 0x5664865A EQ PUSH2 0x136 JUMPI JUMPDEST PUSH1 0x0 DUP1 REVERT JUMPDEST PUSH2 0x102 PUSH2 0x2E8 JUMP JUMPDEST PUSH1 0x40 MLOAD PUSH2 0x10F SWAP2 SWAP1 PUSH2 0x170C JUMP JUMPDEST PUSH1 0x40 MLOAD DUP1 SWAP2 SUB SWAP1 RETURN JUMPDEST PUSH2 0x120 PUSH2 0x2EE JUMP JUMPDEST PUSH1 0x40 MLOAD PUSH2 0x12D SWAP2 SWAP1 PUSH2 0x151F JUMP JUMPDEST PUSH1 0x40 MLOAD DUP1 SWAP2 SUB SWAP1 RETURN JUMPDEST PUSH2 0x150 PUSH1 0x4 DUP1 CALLDATASIZE SUB DUP2 ADD SWAP1 PUSH2 0x14B SWAP2 SWAP1 PUSH2 0x1161 JUMP JUMPDEST PUSH2 0x314 JUMP JUMPDEST PUSH1 0x40 MLOAD PUSH2 0x15D SWAP2 SWAP1 PUSH2 0x170C JUMP JUMPDEST PUSH1 0x40 MLOAD DUP1 SWAP2 SUB SWAP1 RETURN JUMPDEST PUSH2 0x180 PUSH1 0x4 DUP1 CALLDATASIZE SUB DUP2 ADD SWAP1 PUSH2 0x17B SWAP2 SWAP1 PUSH2 0x1161 JUMP JUMPDEST PUSH2 0x32C JUMP JUMPDEST PUSH1 0x40 MLOAD PUSH2 0x18D SWAP2 SWAP1 PUSH2 0x170C JUMP JUMPDEST PUSH1 0x40 MLOAD DUP1 SWAP2 SUB SWAP1 RETURN JUMPDEST PUSH2 0x1B0 PUSH1 0x4 DUP1 CALLDATASIZE SUB DUP2 ADD SWAP1 PUSH2 0x1AB SWAP2 SWAP1 PUSH2 0x1161 JUMP JUMPDEST PUSH2 0x344 JUMP JUMPDEST PUSH1 0x40 MLOAD PUSH2 0x1BD SWAP2 SWAP1 PUSH2 0x170C JUMP JUMPDEST PUSH1 0x40 MLOAD DUP1 SWAP2 SUB SWAP1 RETURN JUMPDEST PUSH2 0x1CE PUSH2 0x35C JUMP JUMPDEST PUSH1 0x40 MLOAD PUSH2 0x1DB SWAP2 SWAP1 PUSH2 0x170C JUMP JUMPDEST PUSH1 0x40 MLOAD DUP1 SWAP2 SUB SWAP1 RETURN JUMPDEST PUSH2 0x1EC PUSH2 0x362 JUMP JUMPDEST PUSH1 0x40 MLOAD PUSH2 0x1F9 SWAP2 SWAP1 PUSH2 0x170C JUMP JUMPDEST PUSH1 0x40 MLOAD DUP1 SWAP2 SUB SWAP1 RETURN JUMPDEST PUSH2 0x21C PUSH1 0x4 DUP1 CALLDATASIZE SUB DUP2 ADD SWAP1 PUSH2 0x217 SWAP2 SWAP1 PUSH2 0x122B JUMP JUMPDEST PUSH2 0x413 JUMP JUMPDEST STOP JUMPDEST PUSH2 0x238 PUSH1 0x4 DUP1 CALLDATASIZE SUB DUP2 ADD SWAP1 PUSH2 0x233 SWAP2 SWAP1 PUSH2 0x11C6 JUMP JUMPDEST PUSH2 0x50E JUMP JUMPDEST STOP JUMPDEST PUSH2 0x242 PUSH2 0x7F6 JUMP JUMPDEST PUSH1 0x40 MLOAD PUSH2 0x24F SWAP2 SWAP1 PUSH2 0x170C JUMP JUMPDEST PUSH1 0x40 MLOAD DUP1 SWAP2 SUB SWAP1 RETURN JUMPDEST PUSH2 0x272 PUSH1 0x4 DUP1 CALLDATASIZE SUB DUP2 ADD SWAP1 PUSH2 0x26D SWAP2 SWAP1 PUSH2 0x11C6 JUMP JUMPDEST PUSH2 0x819 JUMP JUMPDEST STOP JUMPDEST PUSH2 0x27C PUSH2 0x915 JUMP JUMPDEST PUSH1 0x40 MLOAD PUSH2 0x289 SWAP2 SWAP1 PUSH2 0x170C JUMP JUMPDEST PUSH1 0x40 MLOAD DUP1 SWAP2 SUB SWAP1 RETURN JUMPDEST PUSH2 0x2AC PUSH1 0x4 DUP1 CALLDATASIZE SUB DUP2 ADD SWAP1 PUSH2 0x2A7 SWAP2 SWAP1 PUSH2 0x118A JUMP JUMPDEST PUSH2 0x91B JUMP JUMPDEST STOP JUMPDEST PUSH2 0x2C8 PUSH1 0x4 DUP1 CALLDATASIZE SUB DUP2 ADD SWAP1 PUSH2 0x2C3 SWAP2 SWAP1 PUSH2 0x11C6 JUMP JUMPDEST PUSH2 0xAA1 JUMP JUMPDEST STOP JUMPDEST PUSH2 0x2D2 PUSH2 0xB46 JUMP JUMPDEST PUSH1 0x40 MLOAD PUSH2 0x2DF SWAP2 SWAP1 PUSH2 0x15D1 JUMP JUMPDEST PUSH1 0x40 MLOAD DUP1 SWAP2 SUB SWAP1 RETURN JUMPDEST PUSH1 0x4 SLOAD DUP2 JUMP JUMPDEST PUSH1 0x7 PUSH1 0x0 SWAP1 SLOAD SWAP1 PUSH2 0x100 EXP SWAP1 DIV PUSH20 0xFFFFFFFFFFFFFFFFFFFFFFFFFFFFFFFFFFFFFFFF AND DUP2 JUMP JUMPDEST PUSH1 0x2 PUSH1 0x20 MSTORE DUP1 PUSH1 0x0 MSTORE PUSH1 0x40 PUSH1 0x0 KECCAK256 PUSH1 0x0 SWAP2 POP SWAP1 POP SLOAD DUP2 JUMP JUMPDEST PUSH1 0x1 PUSH1 0x20 MSTORE DUP1 PUSH1 0x0 MSTORE PUSH1 0x40 PUSH1 0x0 KECCAK256 PUSH1 0x0 SWAP2 POP SWAP1 POP SLOAD DUP2 JUMP JUMPDEST PUSH1 0x3 PUSH1 0x20 MSTORE DUP1 PUSH1 0x0 MSTORE PUSH1 0x40 PUSH1 0x0 KECCAK256 PUSH1 0x0 SWAP2 POP SWAP1 POP SLOAD DUP2 JUMP JUMPDEST PUSH1 0x6 SLOAD DUP2 JUMP JUMPDEST PUSH1 0x0 DUP1 PUSH1 0x0 SWAP1 SLOAD SWAP1 PUSH2 0x100 EXP SWAP1 DIV PUSH20 0xFFFFFFFFFFFFFFFFFFFFFFFFFFFFFFFFFFFFFFFF AND PUSH20 0xFFFFFFFFFFFFFFFFFFFFFFFFFFFFFFFFFFFFFFFF AND PUSH4 0x70A08231 ADDRESS PUSH1 0x40 MLOAD DUP3 PUSH4 0xFFFFFFFF AND PUSH1 0xE0 SHL DUP2 MSTORE PUSH1 0x4 ADD PUSH2 0x3BE SWAP2 SWAP1 PUSH2 0x151F JUMP JUMPDEST PUSH1 0x20 PUSH1 0x40 MLOAD DUP1 DUP4 SUB DUP2 DUP7 DUP1 EXTCODESIZE ISZERO DUP1 ISZERO PUSH2 0x3D6 JUMPI PUSH1 0x0 DUP1 REVERT JUMPDEST POP GAS STATICCALL ISZERO DUP1 ISZERO PUSH2 0x3EA JUMPI RETURNDATASIZE PUSH1 0x0 DUP1 RETURNDATACOPY RETURNDATASIZE PUSH1 0x0 REVERT JUMPDEST POP POP POP POP PUSH1 0x40 MLOAD RETURNDATASIZE PUSH1 0x1F NOT PUSH1 0x1F DUP3 ADD AND DUP3 ADD DUP1 PUSH1 0x40 MSTORE POP DUP2 ADD SWAP1 PUSH2 0x40E SWAP2 SWAP1 PUSH2 0x1254 JUMP JUMPDEST SWAP1 POP SWAP1 JUMP JUMPDEST PUSH1 0x0 DUP1 SLOAD SWAP1 PUSH2 0x100 EXP SWAP1 DIV PUSH20 0xFFFFFFFFFFFFFFFFFFFFFFFFFFFFFFFFFFFFFFFF AND PUSH20 0xFFFFFFFFFFFFFFFFFFFFFFFFFFFFFFFFFFFFFFFF AND PUSH4 0x23B872DD CALLER ADDRESS DUP5 PUSH1 0x40 MLOAD DUP5 PUSH4 0xFFFFFFFF AND PUSH1 0xE0 SHL DUP2 MSTORE PUSH1 0x4 ADD PUSH2 0x470 SWAP4 SWAP3 SWAP2 SWAP1 PUSH2 0x153A JUMP JUMPDEST PUSH1 0x20 PUSH1 0x40 MLOAD DUP1 DUP4 SUB DUP2 PUSH1 0x0 DUP8 DUP1 EXTCODESIZE ISZERO DUP1 ISZERO PUSH2 0x48A JUMPI PUSH1 0x0 DUP1 REVERT JUMPDEST POP GAS CALL ISZERO DUP1 ISZERO PUSH2 0x49E JUMPI RETURNDATASIZE PUSH1 0x0 DUP1 RETURNDATACOPY RETURNDATASIZE PUSH1 0x0 REVERT JUMPDEST POP POP POP POP PUSH1 0x40 MLOAD RETURNDATASIZE PUSH1 0x1F NOT PUSH1 0x1F DUP3 ADD AND DUP3 ADD DUP1 PUSH1 0x40 MSTORE POP DUP2 ADD SWAP1 PUSH2 0x4C2 SWAP2 SWAP1 PUSH2 0x1202 JUMP JUMPDEST PUSH2 0x501 JUMPI PUSH1 0x40 MLOAD PUSH32 0x8C379A000000000000000000000000000000000000000000000000000000000 DUP2 MSTORE PUSH1 0x4 ADD PUSH2 0x4F8 SWAP1 PUSH2 0x16CC JUMP JUMPDEST PUSH1 0x40 MLOAD DUP1 SWAP2 SUB SWAP1 REVERT JUMPDEST PUSH2 0x50B CALLER DUP3 PUSH2 0xB6A JUMP JUMPDEST POP JUMP JUMPDEST PUSH2 0x518 CALLER DUP3 PUSH2 0xC7C JUMP JUMPDEST PUSH2 0x56A DUP2 PUSH1 0x3 PUSH1 0x0 CALLER PUSH20 0xFFFFFFFFFFFFFFFFFFFFFFFFFFFFFFFFFFFFFFFF AND PUSH20 0xFFFFFFFFFFFFFFFFFFFFFFFFFFFFFFFFFFFFFFFF AND DUP2 MSTORE PUSH1 0x20 ADD SWAP1 DUP2 MSTORE PUSH1 0x20 ADD PUSH1 0x0 KECCAK256 SLOAD PUSH2 0xD75 SWAP1 SWAP2 SWAP1 PUSH4 0xFFFFFFFF AND JUMP JUMPDEST PUSH1 0x3 PUSH1 0x0 CALLER PUSH20 0xFFFFFFFFFFFFFFFFFFFFFFFFFFFFFFFFFFFFFFFF AND PUSH20 0xFFFFFFFFFFFFFFFFFFFFFFFFFFFFFFFFFFFFFFFF AND DUP2 MSTORE PUSH1 0x20 ADD SWAP1 DUP2 MSTORE PUSH1 0x20 ADD PUSH1 0x0 KECCAK256 DUP2 SWAP1 SSTORE POP PUSH2 0x5C2 DUP2 PUSH1 0x4 SLOAD PUSH2 0xD75 SWAP1 SWAP2 SWAP1 PUSH4 0xFFFFFFFF AND JUMP JUMPDEST PUSH1 0x4 DUP2 SWAP1 SSTORE POP PUSH1 0x0 DUP1 SLOAD SWAP1 PUSH2 0x100 EXP SWAP1 DIV PUSH20 0xFFFFFFFFFFFFFFFFFFFFFFFFFFFFFFFFFFFFFFFF AND PUSH20 0xFFFFFFFFFFFFFFFFFFFFFFFFFFFFFFFFFFFFFFFF AND PUSH4 0x39509351 ADDRESS DUP4 PUSH1 0x40 MLOAD DUP4 PUSH4 0xFFFFFFFF AND PUSH1 0xE0 SHL DUP2 MSTORE PUSH1 0x4 ADD PUSH2 0x623 SWAP3 SWAP2 SWAP1 PUSH2 0x15A8 JUMP JUMPDEST PUSH1 0x20 PUSH1 0x40 MLOAD DUP1 DUP4 SUB DUP2 PUSH1 0x0 DUP8 DUP1 EXTCODESIZE ISZERO DUP1 ISZERO PUSH2 0x63D JUMPI PUSH1 0x0 DUP1 REVERT JUMPDEST POP GAS CALL ISZERO DUP1 ISZERO PUSH2 0x651 JUMPI RETURNDATASIZE PUSH1 0x0 DUP1 RETURNDATACOPY RETURNDATASIZE PUSH1 0x0 REVERT JUMPDEST POP POP POP POP PUSH1 0x40 MLOAD RETURNDATASIZE PUSH1 0x1F NOT PUSH1 0x1F DUP3 ADD AND DUP3 ADD DUP1 PUSH1 0x40 MSTORE POP DUP2 ADD SWAP1 PUSH2 0x675 SWAP2 SWAP1 PUSH2 0x1202 JUMP JUMPDEST PUSH2 0x6B4 JUMPI PUSH1 0x40 MLOAD PUSH32 0x8C379A000000000000000000000000000000000000000000000000000000000 DUP2 MSTORE PUSH1 0x4 ADD PUSH2 0x6AB SWAP1 PUSH2 0x168C JUMP JUMPDEST PUSH1 0x40 MLOAD DUP1 SWAP2 SUB SWAP1 REVERT JUMPDEST PUSH1 0x0 DUP1 SLOAD SWAP1 PUSH2 0x100 EXP SWAP1 DIV PUSH20 0xFFFFFFFFFFFFFFFFFFFFFFFFFFFFFFFFFFFFFFFF AND PUSH20 0xFFFFFFFFFFFFFFFFFFFFFFFFFFFFFFFFFFFFFFFF AND PUSH4 0x23B872DD ADDRESS DUP5 DUP5 PUSH1 0x40 MLOAD DUP5 PUSH4 0xFFFFFFFF AND PUSH1 0xE0 SHL DUP2 MSTORE PUSH1 0x4 ADD PUSH2 0x711 SWAP4 SWAP3 SWAP2 SWAP1 PUSH2 0x1571 JUMP JUMPDEST PUSH1 0x20 PUSH1 0x40 MLOAD DUP1 DUP4 SUB DUP2 PUSH1 0x0 DUP8 DUP1 EXTCODESIZE ISZERO DUP1 ISZERO PUSH2 0x72B JUMPI PUSH1 0x0 DUP1 REVERT JUMPDEST POP GAS CALL ISZERO DUP1 ISZERO PUSH2 0x73F JUMPI RETURNDATASIZE PUSH1 0x0 DUP1 RETURNDATACOPY RETURNDATASIZE PUSH1 0x0 REVERT JUMPDEST POP POP POP POP PUSH1 0x40 MLOAD RETURNDATASIZE PUSH1 0x1F NOT PUSH1 0x1F DUP3 ADD AND DUP3 ADD DUP1 PUSH1 0x40 MSTORE POP DUP2 ADD SWAP1 PUSH2 0x763 SWAP2 SWAP1 PUSH2 0x1202 JUMP JUMPDEST PUSH2 0x7A2 JUMPI PUSH1 0x40 MLOAD PUSH32 0x8C379A000000000000000000000000000000000000000000000000000000000 DUP2 MSTORE PUSH1 0x4 ADD PUSH2 0x799 SWAP1 PUSH2 0x166C JUMP JUMPDEST PUSH1 0x40 MLOAD DUP1 SWAP2 SUB SWAP1 REVERT JUMPDEST CALLER PUSH20 0xFFFFFFFFFFFFFFFFFFFFFFFFFFFFFFFFFFFFFFFF AND PUSH32 0x92FEC97BFF9DDC18BBB7CF738DD42818AD2528CA913EE47FBE149A5CC822AD21 DUP4 DUP4 PUSH1 0x40 MLOAD PUSH2 0x7EA SWAP3 SWAP2 SWAP1 PUSH2 0x15A8 JUMP JUMPDEST PUSH1 0x40 MLOAD DUP1 SWAP2 SUB SWAP1 LOG2 POP POP JUMP JUMPDEST PUSH1 0x0 PUSH2 0x814 PUSH1 0x5 SLOAD PUSH2 0x806 PUSH2 0x362 JUMP JUMPDEST PUSH2 0xDFD SWAP1 SWAP2 SWAP1 PUSH4 0xFFFFFFFF AND JUMP JUMPDEST SWAP1 POP SWAP1 JUMP JUMPDEST PUSH1 0x0 DUP1 SLOAD SWAP1 PUSH2 0x100 EXP SWAP1 DIV PUSH20 0xFFFFFFFFFFFFFFFFFFFFFFFFFFFFFFFFFFFFFFFF AND PUSH20 0xFFFFFFFFFFFFFFFFFFFFFFFFFFFFFFFFFFFFFFFF AND PUSH4 0x23B872DD CALLER ADDRESS DUP5 PUSH1 0x40 MLOAD DUP5 PUSH4 0xFFFFFFFF AND PUSH1 0xE0 SHL DUP2 MSTORE PUSH1 0x4 ADD PUSH2 0x876 SWAP4 SWAP3 SWAP2 SWAP1 PUSH2 0x153A JUMP JUMPDEST PUSH1 0x20 PUSH1 0x40 MLOAD DUP1 DUP4 SUB DUP2 PUSH1 0x0 DUP8 DUP1 EXTCODESIZE ISZERO DUP1 ISZERO PUSH2 0x890 JUMPI PUSH1 0x0 DUP1 REVERT JUMPDEST POP GAS CALL ISZERO DUP1 ISZERO PUSH2 0x8A4 JUMPI RETURNDATASIZE PUSH1 0x0 DUP1 RETURNDATACOPY RETURNDATASIZE PUSH1 0x0 REVERT JUMPDEST POP POP POP POP PUSH1 0x40 MLOAD RETURNDATASIZE PUSH1 0x1F NOT PUSH1 0x1F DUP3 ADD AND DUP3 ADD DUP1 PUSH1 0x40 MSTORE POP DUP2 ADD SWAP1 PUSH2 0x8C8 SWAP2 SWAP1 PUSH2 0x1202 JUMP JUMPDEST PUSH2 0x907 JUMPI PUSH1 0x40 MLOAD PUSH32 0x8C379A000000000000000000000000000000000000000000000000000000000 DUP2 MSTORE PUSH1 0x4 ADD PUSH2 0x8FE SWAP1 PUSH2 0x16CC JUMP JUMPDEST PUSH1 0x40 MLOAD DUP1 SWAP2 SUB SWAP1 REVERT JUMPDEST PUSH2 0x911 DUP3 DUP3 PUSH2 0xE80 JUMP JUMPDEST POP POP JUMP JUMPDEST PUSH1 0x5 SLOAD DUP2 JUMP JUMPDEST PUSH1 0x0 PUSH20 0xFFFFFFFFFFFFFFFFFFFFFFFFFFFFFFFFFFFFFFFF AND DUP3 PUSH20 0xFFFFFFFFFFFFFFFFFFFFFFFFFFFFFFFFFFFFFFFF AND EQ ISZERO PUSH2 0x98B JUMPI PUSH1 0x40 MLOAD PUSH32 0x8C379A000000000000000000000000000000000000000000000000000000000 DUP2 MSTORE PUSH1 0x4 ADD PUSH2 0x982 SWAP1 PUSH2 0x162C JUMP JUMPDEST PUSH1 0x40 MLOAD DUP1 SWAP2 SUB SWAP1 REVERT JUMPDEST PUSH1 0x0 PUSH20 0xFFFFFFFFFFFFFFFFFFFFFFFFFFFFFFFFFFFFFFFF AND PUSH1 0x7 PUSH1 0x0 SWAP1 SLOAD SWAP1 PUSH2 0x100 EXP SWAP1 DIV PUSH20 0xFFFFFFFFFFFFFFFFFFFFFFFFFFFFFFFFFFFFFFFF AND PUSH20 0xFFFFFFFFFFFFFFFFFFFFFFFFFFFFFFFFFFFFFFFF AND EQ PUSH2 0xA1C JUMPI PUSH1 0x40 MLOAD PUSH32 0x8C379A000000000000000000000000000000000000000000000000000000000 DUP2 MSTORE PUSH1 0x4 ADD PUSH2 0xA13 SWAP1 PUSH2 0x164C JUMP JUMPDEST PUSH1 0x40 MLOAD DUP1 SWAP2 SUB SWAP1 REVERT JUMPDEST DUP2 PUSH1 0x7 PUSH1 0x0 PUSH2 0x100 EXP DUP2 SLOAD DUP2 PUSH20 0xFFFFFFFFFFFFFFFFFFFFFFFFFFFFFFFFFFFFFFFF MUL NOT AND SWAP1 DUP4 PUSH20 0xFFFFFFFFFFFFFFFFFFFFFFFFFFFFFFFFFFFFFFFF AND MUL OR SWAP1 SSTORE POP DUP1 PUSH1 0x0 DUP1 PUSH2 0x100 EXP DUP2 SLOAD DUP2 PUSH20 0xFFFFFFFFFFFFFFFFFFFFFFFFFFFFFFFFFFFFFFFF MUL NOT AND SWAP1 DUP4 PUSH20 0xFFFFFFFFFFFFFFFFFFFFFFFFFFFFFFFFFFFFFFFF AND MUL OR SWAP1 SSTORE POP POP POP JUMP JUMPDEST PUSH2 0xAAB CALLER DUP3 PUSH2 0xF92 JUMP JUMPDEST PUSH2 0xAB5 DUP3 DUP3 PUSH2 0xE80 JUMP JUMPDEST DUP2 PUSH20 0xFFFFFFFFFFFFFFFFFFFFFFFFFFFFFFFFFFFFFFFF AND PUSH32 0x2506C43272DED05D095B91DBBA876E66E46888157D3E078DB5691496E96C5FAD PUSH1 0x2 PUSH1 0x0 DUP6 PUSH20 0xFFFFFFFFFFFFFFFFFFFFFFFFFFFFFFFFFFFFFFFF AND PUSH20 0xFFFFFFFFFFFFFFFFFFFFFFFFFFFFFFFFFFFFFFFF AND DUP2 MSTORE PUSH1 0x20 ADD SWAP1 DUP2 MSTORE PUSH1 0x20 ADD PUSH1 0x0 KECCAK256 SLOAD PUSH1 0x40 MLOAD PUSH2 0xB3A SWAP2 SWAP1 PUSH2 0x170C JUMP JUMPDEST PUSH1 0x40 MLOAD DUP1 SWAP2 SUB SWAP1 LOG2 POP POP JUMP JUMPDEST PUSH1 0x0 DUP1 SLOAD SWAP1 PUSH2 0x100 EXP SWAP1 DIV PUSH20 0xFFFFFFFFFFFFFFFFFFFFFFFFFFFFFFFFFFFFFFFF AND DUP2 JUMP JUMPDEST PUSH2 0xB72 PUSH2 0x362 JUMP JUMPDEST PUSH2 0xB87 DUP3 PUSH1 0x5 SLOAD PUSH2 0xD75 SWAP1 SWAP2 SWAP1 PUSH4 0xFFFFFFFF AND JUMP JUMPDEST GT ISZERO PUSH2 0xBC8 JUMPI PUSH1 0x40 MLOAD PUSH32 0x8C379A000000000000000000000000000000000000000000000000000000000 DUP2 MSTORE PUSH1 0x4 ADD PUSH2 0xBBF SWAP1 PUSH2 0x160C JUMP JUMPDEST PUSH1 0x40 MLOAD DUP1 SWAP2 SUB SWAP1 REVERT JUMPDEST PUSH2 0xC1A DUP2 PUSH1 0x1 PUSH1 0x0 DUP6 PUSH20 0xFFFFFFFFFFFFFFFFFFFFFFFFFFFFFFFFFFFFFFFF AND PUSH20 0xFFFFFFFFFFFFFFFFFFFFFFFFFFFFFFFFFFFFFFFF AND DUP2 MSTORE PUSH1 0x20 ADD SWAP1 DUP2 MSTORE PUSH1 0x20 ADD PUSH1 0x0 KECCAK256 SLOAD PUSH2 0xD75 SWAP1 SWAP2 SWAP1 PUSH4 0xFFFFFFFF AND JUMP JUMPDEST PUSH1 0x1 PUSH1 0x0 DUP5 PUSH20 0xFFFFFFFFFFFFFFFFFFFFFFFFFFFFFFFFFFFFFFFF AND PUSH20 0xFFFFFFFFFFFFFFFFFFFFFFFFFFFFFFFFFFFFFFFF AND DUP2 MSTORE PUSH1 0x20 ADD SWAP1 DUP2 MSTORE PUSH1 0x20 ADD PUSH1 0x0 KECCAK256 DUP2 SWAP1 SSTORE POP PUSH2 0xC72 DUP2 PUSH1 0x5 SLOAD PUSH2 0xD75 SWAP1 SWAP2 SWAP1 PUSH4 0xFFFFFFFF AND JUMP JUMPDEST PUSH1 0x5 DUP2 SWAP1 SSTORE POP POP POP JUMP JUMPDEST DUP1 PUSH1 0x6 SLOAD LT ISZERO PUSH2 0xCC1 JUMPI PUSH1 0x40 MLOAD PUSH32 0x8C379A000000000000000000000000000000000000000000000000000000000 DUP2 MSTORE PUSH1 0x4 ADD PUSH2 0xCB8 SWAP1 PUSH2 0x16EC JUMP JUMPDEST PUSH1 0x40 MLOAD DUP1 SWAP2 SUB SWAP1 REVERT JUMPDEST PUSH2 0xD13 DUP2 PUSH1 0x2 PUSH1 0x0 DUP6 PUSH20 0xFFFFFFFFFFFFFFFFFFFFFFFFFFFFFFFFFFFFFFFF AND PUSH20 0xFFFFFFFFFFFFFFFFFFFFFFFFFFFFFFFFFFFFFFFF AND DUP2 MSTORE PUSH1 0x20 ADD SWAP1 DUP2 MSTORE PUSH1 0x20 ADD PUSH1 0x0 KECCAK256 SLOAD PUSH2 0xDFD SWAP1 SWAP2 SWAP1 PUSH4 0xFFFFFFFF AND JUMP JUMPDEST PUSH1 0x2 PUSH1 0x0 DUP5 PUSH20 0xFFFFFFFFFFFFFFFFFFFFFFFFFFFFFFFFFFFFFFFF AND PUSH20 0xFFFFFFFFFFFFFFFFFFFFFFFFFFFFFFFFFFFFFFFF AND DUP2 MSTORE PUSH1 0x20 ADD SWAP1 DUP2 MSTORE PUSH1 0x20 ADD PUSH1 0x0 KECCAK256 DUP2 SWAP1 SSTORE POP PUSH2 0xD6B DUP2 PUSH1 0x6 SLOAD PUSH2 0xDFD SWAP1 SWAP2 SWAP1 PUSH4 0xFFFFFFFF AND JUMP JUMPDEST PUSH1 0x6 DUP2 SWAP1 SSTORE POP POP POP JUMP JUMPDEST PUSH1 0x0 DUP1 DUP3 DUP5 ADD SWAP1 POP DUP4 DUP2 LT ISZERO PUSH2 0xDF3 JUMPI PUSH1 0x40 MLOAD PUSH32 0x8C379A000000000000000000000000000000000000000000000000000000000 DUP2 MSTORE PUSH1 0x4 ADD DUP1 DUP1 PUSH1 0x20 ADD DUP3 DUP2 SUB DUP3 MSTORE PUSH1 0x1B DUP2 MSTORE PUSH1 0x20 ADD DUP1 PUSH32 0x536166654D6174683A206164646974696F6E206F766572666C6F770000000000 DUP2 MSTORE POP PUSH1 0x20 ADD SWAP2 POP POP PUSH1 0x40 MLOAD DUP1 SWAP2 SUB SWAP1 REVERT JUMPDEST DUP1 SWAP2 POP POP SWAP3 SWAP2 POP POP JUMP JUMPDEST PUSH1 0x0 DUP3 DUP3 GT ISZERO PUSH2 0xE75 JUMPI PUSH1 0x40 MLOAD PUSH32 0x8C379A000000000000000000000000000000000000000000000000000000000 DUP2 MSTORE PUSH1 0x4 ADD DUP1 DUP1 PUSH1 0x20 ADD DUP3 DUP2 SUB DUP3 MSTORE PUSH1 0x1E DUP2 MSTORE PUSH1 0x20 ADD DUP1 PUSH32 0x536166654D6174683A207375627472616374696F6E206F766572666C6F770000 DUP2 MSTORE POP PUSH1 0x20 ADD SWAP2 POP POP PUSH1 0x40 MLOAD DUP1 SWAP2 SUB SWAP1 REVERT JUMPDEST DUP2 DUP4 SUB SWAP1 POP SWAP3 SWAP2 POP POP JUMP JUMPDEST PUSH2 0xE88 PUSH2 0x362 JUMP JUMPDEST PUSH2 0xE9D DUP3 PUSH1 0x6 SLOAD PUSH2 0xD75 SWAP1 SWAP2 SWAP1 PUSH4 0xFFFFFFFF AND JUMP JUMPDEST GT ISZERO PUSH2 0xEDE JUMPI PUSH1 0x40 MLOAD PUSH32 0x8C379A000000000000000000000000000000000000000000000000000000000 DUP2 MSTORE PUSH1 0x4 ADD PUSH2 0xED5 SWAP1 PUSH2 0x160C JUMP JUMPDEST PUSH1 0x40 MLOAD DUP1 SWAP2 SUB SWAP1 REVERT JUMPDEST PUSH2 0xF30 DUP2 PUSH1 0x2 PUSH1 0x0 DUP6 PUSH20 0xFFFFFFFFFFFFFFFFFFFFFFFFFFFFFFFFFFFFFFFF AND PUSH20 0xFFFFFFFFFFFFFFFFFFFFFFFFFFFFFFFFFFFFFFFF AND DUP2 MSTORE PUSH1 0x20 ADD SWAP1 DUP2 MSTORE PUSH1 0x20 ADD PUSH1 0x0 KECCAK256 SLOAD PUSH2 0xD75 SWAP1 SWAP2 SWAP1 PUSH4 0xFFFFFFFF AND JUMP JUMPDEST PUSH1 0x2 PUSH1 0x0 DUP5 PUSH20 0xFFFFFFFFFFFFFFFFFFFFFFFFFFFFFFFFFFFFFFFF AND PUSH20 0xFFFFFFFFFFFFFFFFFFFFFFFFFFFFFFFFFFFFFFFF AND DUP2 MSTORE PUSH1 0x20 ADD SWAP1 DUP2 MSTORE PUSH1 0x20 ADD PUSH1 0x0 KECCAK256 DUP2 SWAP1 SSTORE POP PUSH2 0xF88 DUP2 PUSH1 0x6 SLOAD PUSH2 0xD75 SWAP1 SWAP2 SWAP1 PUSH4 0xFFFFFFFF AND JUMP JUMPDEST PUSH1 0x6 DUP2 SWAP1 SSTORE POP POP POP JUMP JUMPDEST DUP1 PUSH1 0x1 PUSH1 0x0 DUP5 PUSH20 0xFFFFFFFFFFFFFFFFFFFFFFFFFFFFFFFFFFFFFFFF AND PUSH20 0xFFFFFFFFFFFFFFFFFFFFFFFFFFFFFFFFFFFFFFFF AND DUP2 MSTORE PUSH1 0x20 ADD SWAP1 DUP2 MSTORE PUSH1 0x20 ADD PUSH1 0x0 KECCAK256 SLOAD LT ISZERO PUSH2 0x1014 JUMPI PUSH1 0x40 MLOAD PUSH32 0x8C379A000000000000000000000000000000000000000000000000000000000 DUP2 MSTORE PUSH1 0x4 ADD PUSH2 0x100B SWAP1 PUSH2 0x15EC JUMP JUMPDEST PUSH1 0x40 MLOAD DUP1 SWAP2 SUB SWAP1 REVERT JUMPDEST DUP1 PUSH1 0x5 SLOAD LT ISZERO PUSH2 0x1059 JUMPI PUSH1 0x40 MLOAD PUSH32 0x8C379A000000000000000000000000000000000000000000000000000000000 DUP2 MSTORE PUSH1 0x4 ADD PUSH2 0x1050 SWAP1 PUSH2 0x16AC JUMP JUMPDEST PUSH1 0x40 MLOAD DUP1 SWAP2 SUB SWAP1 REVERT JUMPDEST PUSH2 0x10AB DUP2 PUSH1 0x1 PUSH1 0x0 DUP6 PUSH20 0xFFFFFFFFFFFFFFFFFFFFFFFFFFFFFFFFFFFFFFFF AND PUSH20 0xFFFFFFFFFFFFFFFFFFFFFFFFFFFFFFFFFFFFFFFF AND DUP2 MSTORE PUSH1 0x20 ADD SWAP1 DUP2 MSTORE PUSH1 0x20 ADD PUSH1 0x0 KECCAK256 SLOAD PUSH2 0xDFD SWAP1 SWAP2 SWAP1 PUSH4 0xFFFFFFFF AND JUMP JUMPDEST PUSH1 0x1 PUSH1 0x0 DUP5 PUSH20 0xFFFFFFFFFFFFFFFFFFFFFFFFFFFFFFFFFFFFFFFF AND PUSH20 0xFFFFFFFFFFFFFFFFFFFFFFFFFFFFFFFFFFFFFFFF AND DUP2 MSTORE PUSH1 0x20 ADD SWAP1 DUP2 MSTORE PUSH1 0x20 ADD PUSH1 0x0 KECCAK256 DUP2 SWAP1 SSTORE POP PUSH2 0x1103 DUP2 PUSH1 0x5 SLOAD PUSH2 0xDFD SWAP1 SWAP2 SWAP1 PUSH4 0xFFFFFFFF AND JUMP JUMPDEST PUSH1 0x5 DUP2 SWAP1 SSTORE POP POP POP JUMP JUMPDEST PUSH1 0x0 DUP2 CALLDATALOAD SWAP1 POP PUSH2 0x111C DUP2 PUSH2 0x17DA JUMP JUMPDEST SWAP3 SWAP2 POP POP JUMP JUMPDEST PUSH1 0x0 DUP2 MLOAD SWAP1 POP PUSH2 0x1131 DUP2 PUSH2 0x17F1 JUMP JUMPDEST SWAP3 SWAP2 POP POP JUMP JUMPDEST PUSH1 0x0 DUP2 CALLDATALOAD SWAP1 POP PUSH2 0x1146 DUP2 PUSH2 0x1808 JUMP JUMPDEST SWAP3 SWAP2 POP POP JUMP JUMPDEST PUSH1 0x0 DUP2 MLOAD SWAP1 POP PUSH2 0x115B DUP2 PUSH2 0x1808 JUMP JUMPDEST SWAP3 SWAP2 POP POP JUMP JUMPDEST PUSH1 0x0 PUSH1 0x20 DUP3 DUP5 SUB SLT ISZERO PUSH2 0x1173 JUMPI PUSH1 0x0 DUP1 REVERT JUMPDEST PUSH1 0x0 PUSH2 0x1181 DUP5 DUP3 DUP6 ADD PUSH2 0x110D JUMP JUMPDEST SWAP2 POP POP SWAP3 SWAP2 POP POP JUMP JUMPDEST PUSH1 0x0 DUP1 PUSH1 0x40 DUP4 DUP6 SUB SLT ISZERO PUSH2 0x119D JUMPI PUSH1 0x0 DUP1 REVERT JUMPDEST PUSH1 0x0 PUSH2 0x11AB DUP6 DUP3 DUP7 ADD PUSH2 0x110D JUMP JUMPDEST SWAP3 POP POP PUSH1 0x20 PUSH2 0x11BC DUP6 DUP3 DUP7 ADD PUSH2 0x110D JUMP JUMPDEST SWAP2 POP POP SWAP3 POP SWAP3 SWAP1 POP JUMP JUMPDEST PUSH1 0x0 DUP1 PUSH1 0x40 DUP4 DUP6 SUB SLT ISZERO PUSH2 0x11D9 JUMPI PUSH1 0x0 DUP1 REVERT JUMPDEST PUSH1 0x0 PUSH2 0x11E7 DUP6 DUP3 DUP7 ADD PUSH2 0x110D JUMP JUMPDEST SWAP3 POP POP PUSH1 0x20 PUSH2 0x11F8 DUP6 DUP3 DUP7 ADD PUSH2 0x1137 JUMP JUMPDEST SWAP2 POP POP SWAP3 POP SWAP3 SWAP1 POP JUMP JUMPDEST PUSH1 0x0 PUSH1 0x20 DUP3 DUP5 SUB SLT ISZERO PUSH2 0x1214 JUMPI PUSH1 0x0 DUP1 REVERT JUMPDEST PUSH1 0x0 PUSH2 0x1222 DUP5 DUP3 DUP6 ADD PUSH2 0x1122 JUMP JUMPDEST SWAP2 POP POP SWAP3 SWAP2 POP POP JUMP JUMPDEST PUSH1 0x0 PUSH1 0x20 DUP3 DUP5 SUB SLT ISZERO PUSH2 0x123D JUMPI PUSH1 0x0 DUP1 REVERT JUMPDEST PUSH1 0x0 PUSH2 0x124B DUP5 DUP3 DUP6 ADD PUSH2 0x1137 JUMP JUMPDEST SWAP2 POP POP SWAP3 SWAP2 POP POP JUMP JUMPDEST PUSH1 0x0 PUSH1 0x20 DUP3 DUP5 SUB SLT ISZERO PUSH2 0x1266 JUMPI PUSH1 0x0 DUP1 REVERT JUMPDEST PUSH1 0x0 PUSH2 0x1274 DUP5 DUP3 DUP6 ADD PUSH2 0x114C JUMP JUMPDEST SWAP2 POP POP SWAP3 SWAP2 POP POP JUMP JUMPDEST PUSH2 0x1286 DUP2 PUSH2 0x1780 JUMP JUMPDEST DUP3 MSTORE POP POP JUMP JUMPDEST PUSH2 0x1295 DUP2 PUSH2 0x1738 JUMP JUMPDEST DUP3 MSTORE POP POP JUMP JUMPDEST PUSH2 0x12A4 DUP2 PUSH2 0x1792 JUMP JUMPDEST DUP3 MSTORE POP POP JUMP JUMPDEST PUSH1 0x0 PUSH2 0x12B7 PUSH1 0x1C DUP4 PUSH2 0x1727 JUMP JUMPDEST SWAP2 POP PUSH32 0x616D6F756E742065786365656473206F776E65722062616C616E636500000000 PUSH1 0x0 DUP4 ADD MSTORE PUSH1 0x20 DUP3 ADD SWAP1 POP SWAP2 SWAP1 POP JUMP JUMPDEST PUSH1 0x0 PUSH2 0x12F7 PUSH1 0x1D DUP4 PUSH2 0x1727 JUMP JUMPDEST SWAP2 POP PUSH32 0x616D6F756E74206578636565647320676C6F62616C2062616C616E6365000000 PUSH1 0x0 DUP4 ADD MSTORE PUSH1 0x20 DUP3 ADD SWAP1 POP SWAP2 SWAP1 POP JUMP JUMPDEST PUSH1 0x0 PUSH2 0x1337 PUSH1 0xE DUP4 PUSH2 0x1727 JUMP JUMPDEST SWAP2 POP PUSH32 0x696E76616C696420697373756572000000000000000000000000000000000000 PUSH1 0x0 DUP4 ADD MSTORE PUSH1 0x20 DUP3 ADD SWAP1 POP SWAP2 SWAP1 POP JUMP JUMPDEST PUSH1 0x0 PUSH2 0x1377 PUSH1 0x13 DUP4 PUSH2 0x1727 JUMP JUMPDEST SWAP2 POP PUSH32 0x616C726561647920696E697469616C697A656400000000000000000000000000 PUSH1 0x0 DUP4 ADD MSTORE PUSH1 0x20 DUP3 ADD SWAP1 POP SWAP2 SWAP1 POP JUMP JUMPDEST PUSH1 0x0 PUSH2 0x13B7 PUSH1 0x17 DUP4 PUSH2 0x1727 JUMP JUMPDEST SWAP2 POP PUSH32 0x636173686F7574207472616E73666572206661696C6564000000000000000000 PUSH1 0x0 DUP4 ADD MSTORE PUSH1 0x20 DUP3 ADD SWAP1 POP SWAP2 SWAP1 POP JUMP JUMPDEST PUSH1 0x0 PUSH2 0x13F7 PUSH1 0x19 DUP4 PUSH2 0x1727 JUMP JUMPDEST SWAP2 POP PUSH32 0x696E63726561736520616C6C6F77616E6365206661696C656400000000000000 PUSH1 0x0 DUP4 ADD MSTORE PUSH1 0x20 DUP3 ADD SWAP1 POP SWAP2 SWAP1 POP JUMP JUMPDEST PUSH1 0x0 PUSH2 0x1437 PUSH1 0x21 DUP4 PUSH2 0x1727 JUMP JUMPDEST SWAP2 POP PUSH32 0x616D6F756E74206578636565647320746F74616C2068617264206465706F7369 PUSH1 0x0 DUP4 ADD MSTORE PUSH32 0x7400000000000000000000000000000000000000000000000000000000000000 PUSH1 0x20 DUP4 ADD MSTORE PUSH1 0x40 DUP3 ADD SWAP1 POP SWAP2 SWAP1 POP JUMP JUMPDEST PUSH1 0x0 PUSH2 0x149D PUSH1 0xF DUP4 PUSH2 0x1727 JUMP JUMPDEST SWAP2 POP PUSH32 0x7472616E73666572206661696C65640000000000000000000000000000000000 PUSH1 0x0 DUP4 ADD MSTORE PUSH1 0x20 DUP3 ADD SWAP1 POP SWAP2 SWAP1 POP JUMP JUMPDEST PUSH1 0x0 PUSH2 0x14DD PUSH1 0x20 DUP4 PUSH2 0x1727 JUMP JUMPDEST SWAP2 POP PUSH32 0x616D6F756E74206578636565647320746F74616C2062656E6566696369617279 PUSH1 0x0 DUP4 ADD MSTORE PUSH1 0x20 DUP3 ADD SWAP1 POP SWAP2 SWAP1 POP JUMP JUMPDEST PUSH2 0x1519 DUP2 PUSH2 0x1776 JUMP JUMPDEST DUP3 MSTORE POP POP JUMP JUMPDEST PUSH1 0x0 PUSH1 0x20 DUP3 ADD SWAP1 POP PUSH2 0x1534 PUSH1 0x0 DUP4 ADD DUP5 PUSH2 0x128C JUMP JUMPDEST SWAP3 SWAP2 POP POP JUMP JUMPDEST PUSH1 0x0 PUSH1 0x60 DUP3 ADD SWAP1 POP PUSH2 0x154F PUSH1 0x0 DUP4 ADD DUP7 PUSH2 0x127D JUMP JUMPDEST PUSH2 0x155C PUSH1 0x20 DUP4 ADD DUP6 PUSH2 0x128C JUMP JUMPDEST PUSH2 0x1569 PUSH1 0x40 DUP4 ADD DUP5 PUSH2 0x1510 JUMP JUMPDEST SWAP5 SWAP4 POP POP POP POP JUMP JUMPDEST PUSH1 0x0 PUSH1 0x60 DUP3 ADD SWAP1 POP PUSH2 0x1586 PUSH1 0x0 DUP4 ADD DUP7 PUSH2 0x128C JUMP JUMPDEST PUSH2 0x1593 PUSH1 0x20 DUP4 ADD DUP6 PUSH2 0x128C JUMP JUMPDEST PUSH2 0x15A0 PUSH1 0x40 DUP4 ADD DUP5 PUSH2 0x1510 JUMP JUMPDEST SWAP5 SWAP4 POP POP POP POP JUMP JUMPDEST PUSH1 0x0 PUSH1 0x40 DUP3 ADD SWAP1 POP PUSH2 0x15BD PUSH1 0x0 DUP4 ADD DUP6 PUSH2 0x128C JUMP JUMPDEST PUSH2 0x15CA PUSH1 0x20 DUP4 ADD DUP5 PUSH2 0x1510 JUMP JUMPDEST SWAP4 SWAP3 POP POP POP JUMP JUMPDEST PUSH1 0x0 PUSH1 0x20 DUP3 ADD SWAP1 POP PUSH2 0x15E6 PUSH1 0x0 DUP4 ADD DUP5 PUSH2 0x129B JUMP JUMPDEST SWAP3 SWAP2 POP POP JUMP JUMPDEST PUSH1 0x0 PUSH1 0x20 DUP3 ADD SWAP1 POP DUP2 DUP2 SUB PUSH1 0x0 DUP4 ADD MSTORE PUSH2 0x1605 DUP2 PUSH2 0x12AA JUMP JUMPDEST SWAP1 POP SWAP2 SWAP1 POP JUMP JUMPDEST PUSH1 0x0 PUSH1 0x20 DUP3 ADD SWAP1 POP DUP2 DUP2 SUB PUSH1 0x0 DUP4 ADD MSTORE PUSH2 0x1625 DUP2 PUSH2 0x12EA JUMP JUMPDEST SWAP1 POP SWAP2 SWAP1 POP JUMP JUMPDEST PUSH1 0x0 PUSH1 0x20 DUP3 ADD SWAP1 POP DUP2 DUP2 SUB PUSH1 0x0 DUP4 ADD MSTORE PUSH2 0x1645 DUP2 PUSH2 0x132A JUMP JUMPDEST SWAP1 POP SWAP2 SWAP1 POP JUMP JUMPDEST PUSH1 0x0 PUSH1 0x20 DUP3 ADD SWAP1 POP DUP2 DUP2 SUB PUSH1 0x0 DUP4 ADD MSTORE PUSH2 0x1665 DUP2 PUSH2 0x136A JUMP JUMPDEST SWAP1 POP SWAP2 SWAP1 POP JUMP JUMPDEST PUSH1 0x0 PUSH1 0x20 DUP3 ADD SWAP1 POP DUP2 DUP2 SUB PUSH1 0x0 DUP4 ADD MSTORE PUSH2 0x1685 DUP2 PUSH2 0x13AA JUMP JUMPDEST SWAP1 POP SWAP2 SWAP1 POP JUMP JUMPDEST PUSH1 0x0 PUSH1 0x20 DUP3 ADD SWAP1 POP DUP2 DUP2 SUB PUSH1 0x0 DUP4 ADD MSTORE PUSH2 0x16A5 DUP2 PUSH2 0x13EA JUMP JUMPDEST SWAP1 POP SWAP2 SWAP1 POP JUMP JUMPDEST PUSH1 0x0 PUSH1 0x20 DUP3 ADD SWAP1 POP DUP2 DUP2 SUB PUSH1 0x0 DUP4 ADD MSTORE PUSH2 0x16C5 DUP2 PUSH2 0x142A JUMP JUMPDEST SWAP1 POP SWAP2 SWAP1 POP JUMP JUMPDEST PUSH1 0x0 PUSH1 0x20 DUP3 ADD SWAP1 POP DUP2 DUP2 SUB PUSH1 0x0 DUP4 ADD MSTORE PUSH2 0x16E5 DUP2 PUSH2 0x1490 JUMP JUMPDEST SWAP1 POP SWAP2 SWAP1 POP JUMP JUMPDEST PUSH1 0x0 PUSH1 0x20 DUP3 ADD SWAP1 POP DUP2 DUP2 SUB PUSH1 0x0 DUP4 ADD MSTORE PUSH2 0x1705 DUP2 PUSH2 0x14D0 JUMP JUMPDEST SWAP1 POP SWAP2 SWAP1 POP JUMP JUMPDEST PUSH1 0x0 PUSH1 0x20 DUP3 ADD SWAP1 POP PUSH2 0x1721 PUSH1 0x0 DUP4 ADD DUP5 PUSH2 0x1510 JUMP JUMPDEST SWAP3 SWAP2 POP POP JUMP JUMPDEST PUSH1 0x0 DUP3 DUP3 MSTORE PUSH1 0x20 DUP3 ADD SWAP1 POP SWAP3 SWAP2 POP POP JUMP JUMPDEST PUSH1 0x0 PUSH2 0x1743 DUP3 PUSH2 0x1756 JUMP JUMPDEST SWAP1 POP SWAP2 SWAP1 POP JUMP JUMPDEST PUSH1 0x0 DUP2 ISZERO ISZERO SWAP1 POP SWAP2 SWAP1 POP JUMP JUMPDEST PUSH1 0x0 PUSH20 0xFFFFFFFFFFFFFFFFFFFFFFFFFFFFFFFFFFFFFFFF DUP3 AND SWAP1 POP SWAP2 SWAP1 POP JUMP JUMPDEST PUSH1 0x0 DUP2 SWAP1 POP SWAP2 SWAP1 POP JUMP JUMPDEST PUSH1 0x0 PUSH2 0x178B DUP3 PUSH2 0x17B6 JUMP JUMPDEST SWAP1 POP SWAP2 SWAP1 POP JUMP JUMPDEST PUSH1 0x0 PUSH2 0x179D DUP3 PUSH2 0x17A4 JUMP JUMPDEST SWAP1 POP SWAP2 SWAP1 POP JUMP JUMPDEST PUSH1 0x0 PUSH2 0x17AF DUP3 PUSH2 0x1756 JUMP JUMPDEST SWAP1 POP SWAP2 SWAP1 POP JUMP JUMPDEST PUSH1 0x0 PUSH2 0x17C1 DUP3 PUSH2 0x17C8 JUMP JUMPDEST SWAP1 POP SWAP2 SWAP1 POP JUMP JUMPDEST PUSH1 0x0 PUSH2 0x17D3 DUP3 PUSH2 0x1756 JUMP JUMPDEST SWAP1 POP SWAP2 SWAP1 POP JUMP JUMPDEST PUSH2 0x17E3 DUP2 PUSH2 0x1738 JUMP JUMPDEST DUP2 EQ PUSH2 0x17EE JUMPI PUSH1 0x0 DUP1 REVERT JUMPDEST POP JUMP JUMPDEST PUSH2 0x17FA DUP2 PUSH2 0x174A JUMP JUMPDEST DUP2 EQ PUSH2 0x1805 JUMPI PUSH1 0x0 DUP1 REVERT JUMPDEST POP JUMP JUMPDEST PUSH2 0x1811 DUP2 PUSH2 0x1776 JUMP JUMPDEST DUP2 EQ PUSH2 0x181C JUMPI PUSH1 0x0 DUP1 REVERT JUMPDEST POP JUMP INVALID LOG2 PUSH5 0x6970667358 0x22 SLT KECCAK256 0xAA SIGNEXTEND 0xA8 PUSH31 0x3B22A79F10C2862CDABEBACC215630E71D14D66FD4CE6F257B54E75964736F PUSH13 0x63430007060033000000000000 "
		},
		"gasEstimates": {
			"creation": {
				"codeDepositCost": "1245800",
				"executionCost": "1295",
				"totalCost": "1247095"
			},
			"external": {
				"balance()": "infinite",
				"beneficiaryBalances(address)": "1582",
				"cashout(address,uint256)": "infinite",
				"deposit(uint256)": "infinite",
				"hardDepositBalances(address)": "1537",
				"init(address,address)": "infinite",
				"issuer()": "1260",
				"liquidBalance()": "infinite",
				"paidOut(address)": "1559",
				"pay(address,uint256)": "infinite",
				"payHardDeposit(address,uint256)": "infinite",
				"token()": "1342",
				"totalBeneficiary()": "1196",
				"totalHardDeposit()": "1151",
				"totalPaidOut()": "1153"
			},
			"internal": {
				"_decreaseBeneficiary(address,uint256)": "infinite",
				"_decreaseHardDeposit(address,uint256)": "infinite",
				"_increaseBeneficiary(address,uint256)": "infinite",
				"_increaseHardDeposit(address,uint256)": "infinite"
			}
		},
		"methodIdentifiers": {
			"balance()": "b69ef8a8",
			"beneficiaryBalances(address)": "5664865a",
			"cashout(address,uint256)": "b7b172b3",
			"deposit(uint256)": "b6b55f25",
			"hardDepositBalances(address)": "5bf58ec7",
			"init(address,address)": "f09a4016",
			"issuer()": "1d143848",
			"liquidBalance()": "b7ec1a33",
			"paidOut(address)": "81f03fcb",
			"pay(address,uint256)": "c4076876",
			"payHardDeposit(address,uint256)": "f6407d0c",
			"token()": "fc0c546a",
			"totalBeneficiary()": "959d15ca",
			"totalHardDeposit()": "e0bcf13a",
			"totalPaidOut()": "1357e1dc"
		}
	},
	"abi": [
		{
			"anonymous": false,
			"inputs": [
				{
					"indexed": true,
					"internalType": "address",
					"name": "beneficiary",
					"type": "address"
				},
				{
					"indexed": false,
					"internalType": "address",
					"name": "recipient",
					"type": "address"
				},
				{
					"indexed": false,
					"internalType": "uint256",
					"name": "amount",
					"type": "uint256"
				}
			],
			"name": "Cashouted",
			"type": "event"
		},
		{
			"anonymous": false,
			"inputs": [
				{
					"indexed": true,
					"internalType": "address",
					"name": "beneficiary",
					"type": "address"
				},
				{
					"indexed": false,
					"internalType": "uint256",
					"name": "amount",
					"type": "uint256"
				}
			],
			"name": "HardDepositAmountChanged",
			"type": "event"
		},
		{
			"inputs": [],
			"name": "balance",
			"outputs": [
				{
					"internalType": "uint256",
					"name": "",
					"type": "uint256"
				}
			],
			"stateMutability": "view",
			"type": "function"
		},
		{
			"inputs": [
				{
					"internalType": "address",
					"name": "",
					"type": "address"
				}
			],
			"name": "beneficiaryBalances",
			"outputs": [
				{
					"internalType": "uint256",
					"name": "",
					"type": "uint256"
				}
			],
			"stateMutability": "view",
			"type": "function"
		},
		{
			"inputs": [
				{
					"internalType": "address",
					"name": "recipient",
					"type": "address"
				},
				{
					"internalType": "uint256",
					"name": "amount",
					"type": "uint256"
				}
			],
			"name": "cashout",
			"outputs": [],
			"stateMutability": "nonpayable",
			"type": "function"
		},
		{
			"inputs": [
				{
					"internalType": "uint256",
					"name": "amount",
					"type": "uint256"
				}
			],
			"name": "deposit",
			"outputs": [],
			"stateMutability": "nonpayable",
			"type": "function"
		},
		{
			"inputs": [
				{
					"internalType": "address",
					"name": "",
					"type": "address"
				}
			],
			"name": "hardDepositBalances",
			"outputs": [
				{
					"internalType": "uint256",
					"name": "",
					"type": "uint256"
				}
			],
			"stateMutability": "view",
			"type": "function"
		},
		{
			"inputs": [
				{
					"internalType": "address",
					"name": "_issuer",
					"type": "address"
				},
				{
					"internalType": "address",
					"name": "_token",
					"type": "address"
				}
			],
			"name": "init",
			"outputs": [],
			"stateMutability": "nonpayable",
			"type": "function"
		},
		{
			"inputs": [],
			"name": "issuer",
			"outputs": [
				{
					"internalType": "address",
					"name": "",
					"type": "address"
				}
			],
			"stateMutability": "view",
			"type": "function"
		},
		{
			"inputs": [],
			"name": "liquidBalance",
			"outputs": [
				{
					"internalType": "uint256",
					"name": "",
					"type": "uint256"
				}
			],
			"stateMutability": "view",
			"type": "function"
		},
		{
			"inputs": [
				{
					"internalType": "address",
					"name": "",
					"type": "address"
				}
			],
			"name": "paidOut",
			"outputs": [
				{
					"internalType": "uint256",
					"name": "",
					"type": "uint256"
				}
			],
			"stateMutability": "view",
			"type": "function"
		},
		{
			"inputs": [
				{
					"internalType": "address",
					"name": "recipient",
					"type": "address"
				},
				{
					"internalType": "uint256",
					"name": "amount",
					"type": "uint256"
				}
			],
			"name": "pay",
			"outputs": [],
			"stateMutability": "nonpayable",
			"type": "function"
		},
		{
			"inputs": [
				{
					"internalType": "address",
					"name": "recipient",
					"type": "address"
				},
				{
					"internalType": "uint256",
					"name": "amount",
					"type": "uint256"
				}
			],
			"name": "payHardDeposit",
			"outputs": [],
			"stateMutability": "nonpayable",
			"type": "function"
		},
		{
			"inputs": [],
			"name": "token",
			"outputs": [
				{
					"internalType": "contract ERC20",
					"name": "",
					"type": "address"
				}
			],
			"stateMutability": "view",
			"type": "function"
		},
		{
			"inputs": [],
			"name": "totalBeneficiary",
			"outputs": [
				{
					"internalType": "uint256",
					"name": "",
					"type": "uint256"
				}
			],
			"stateMutability": "view",
			"type": "function"
		},
		{
			"inputs": [],
			"name": "totalHardDeposit",
			"outputs": [
				{
					"internalType": "uint256",
					"name": "",
					"type": "uint256"
				}
			],
			"stateMutability": "view",
			"type": "function"
		},
		{
			"inputs": [],
			"name": "totalPaidOut",
			"outputs": [
				{
					"internalType": "uint256",
					"name": "",
					"type": "uint256"
				}
			],
			"stateMutability": "view",
			"type": "function"
		}
	]
}