{
  "_format": "hh-sol-artifact-1",
  "contractName": "ChequeBookFactory",
  "sourceName": "contracts/ChequeBookFactory.sol",
  "abi": [
    {
      "inputs": [
        {
          "internalType": "address",
          "name": "_ERC20Address",
          "type": "address"
        }
      ],
      "stateMutability": "nonpayable",
      "type": "constructor"
    },
    {
      "anonymous": false,
      "inputs": [
        {
          "indexed": false,
          "internalType": "address",
          "name": "contractAddress",
          "type": "address"
        }
      ],
      "name": "ChequeBookDeployed",
      "type": "event"
    },
    {
      "inputs": [],
      "name": "ERC20Address",
      "outputs": [
        {
          "internalType": "address",
          "name": "",
          "type": "address"
        }
      ],
      "stateMutability": "view",
      "type": "function"
    },
    {
      "inputs": [
        {
          "internalType": "address",
          "name": "issuer",
          "type": "address"
        },
        {
          "internalType": "bytes32",
          "name": "salt",
          "type": "bytes32"
        }
      ],
      "name": "deployChequeBook",
      "outputs": [
        {
          "internalType": "address",
          "name": "",
          "type": "address"
        }
      ],
      "stateMutability": "nonpayable",
      "type": "function"
    },
    {
      "inputs": [],
      "name": "deployedContractAddress",
      "outputs": [
        {
          "internalType": "address",
          "name": "",
          "type": "address"
        }
      ],
      "stateMutability": "view",
      "type": "function"
    },
    {
      "inputs": [],
      "name": "master",
      "outputs": [
        {
          "internalType": "address",
          "name": "",
          "type": "address"
        }
      ],
      "stateMutability": "view",
      "type": "function"
    }
  ],
  "bytecode": "0x608060405234801561001057600080fd5b506040516111b83803806111b883398101604081905261002f91610110565b600180546001600160a01b0319166001600160a01b03831617905560405160009061005990610103565b604051809103906000f080158015610075573d6000803e3d6000fd5b5060405163784d200b60e11b81529091506001600160a01b0382169063f09a4016906100a99060019060009060040161013e565b600060405180830381600087803b1580156100c357600080fd5b505af11580156100d7573d6000803e3d6000fd5b5050600280546001600160a01b0319166001600160a01b03949094169390931790925550610158915050565b610d328061048683390190565b600060208284031215610121578081fd5b81516001600160a01b0381168114610137578182fd5b9392505050565b6001600160a01b0392831681529116602082015260400190565b61031f806101676000396000f3fe608060405234801561001057600080fd5b506004361061004c5760003560e01c80634e36003414610051578063a6021ace1461007a578063b35fbb2714610082578063ee97f7f31461008a575b600080fd5b61006461005f36600461026c565b610092565b60405161007191906102a2565b60405180910390f35b61006461019a565b6100646101a9565b6100646101b8565b60025460405160009182916100d6916001600160a01b0316906100bb90339087906020016102b6565b604051602081830303815290604052805190602001206101c7565b60015460405163784d200b60e11b81529192506001600160a01b038084169263f09a40169261010c9289929116906004016102cf565b600060405180830381600087803b15801561012657600080fd5b505af115801561013a573d6000803e3d6000fd5b5050600080546001600160a01b0319166001600160a01b03851617905550506040517f7a3ceb4fc57b5e88d7a21720f0b69536d1d1c1084b320499456655ac02e81897906101899083906102a2565b60405180910390a190505b92915050565b6001546001600160a01b031681565b6000546001600160a01b031681565b6002546001600160a01b031681565b6000604051733d602d80600a3d3981f3363d3d373d3d3d363d7360601b81528360601b60148201526e5af43d82803e903d91602b57fd5bf360881b6028820152826037826000f59150506001600160a01b038116610194576040805162461bcd60e51b815260206004820152601760248201527f455243313136373a2063726561746532206661696c6564000000000000000000604482015290519081900360640190fd5b6000806040838503121561027e578182fd5b82356001600160a01b0381168114610294578283fd5b946020939093013593505050565b6001600160a01b0391909116815260200190565b6001600160a01b03929092168252602082015260400190565b6001600160a01b039283168152911660208201526040019056fea2646970667358221220eb250d2b52c44c6e59da93d31e33048087c70945c9f1968e903848f8173defed64736f6c63430007060033608060405234801561001057600080fd5b50610d12806100206000396000f3fe608060405234801561001057600080fd5b50600436106100f55760003560e01c8063b6b55f2511610097578063e0bcf13a11610066578063e0bcf13a146101b9578063f09a4016146101c1578063f6407d0c146101d4578063fc0c546a146101e7576100f5565b8063b6b55f2514610176578063b7b172b31461018b578063b7ec1a331461019e578063c4076876146101a6576100f5565b80635bf58ec7116100d35780635bf58ec71461014057806381f03fcb14610153578063959d15ca14610166578063b69ef8a81461016e576100f5565b80631357e1dc146100fa5780631d143848146101185780635664865a1461012d575b600080fd5b6101026101ef565b60405161010f9190610cd3565b60405180910390f35b6101206101f5565b60405161010f9190610ab2565b61010261013b3660046109ed565b610204565b61010261014e3660046109ed565b610216565b6101026101613660046109ed565b610228565b61010261023a565b610102610240565b610189610184366004610a82565b6102c6565b005b610189610199366004610a39565b61037e565b61010261054b565b6101896101b4366004610a39565b610561565b610102610611565b6101896101cf366004610a07565b610617565b6101896101e2366004610a39565b610694565b6101206106f0565b60045481565b6007546001600160a01b031681565b60026020526000908152604090205481565b60016020526000908152604090205481565b60036020526000908152604090205481565b60065481565b600080546040516370a0823160e01b81526001600160a01b03909116906370a0823190610271903090600401610ab2565b60206040518083038186803b15801561028957600080fd5b505afa15801561029d573d6000803e3d6000fd5b505050506040513d601f19601f820116820180604052508101906102c19190610a9a565b905090565b6000546040516323b872dd60e01b81526001600160a01b03909116906323b872dd906102fa90339030908690600401610ac6565b602060405180830381600087803b15801561031457600080fd5b505af1158015610328573d6000803e3d6000fd5b505050506040513d601f19601f8201168201806040525081019061034c9190610a62565b6103715760405162461bcd60e51b815260040161036890610c75565b60405180910390fd5b61037b33826106ff565b50565b6103883382610782565b336000908152600360205260409020546103a290826107f4565b336000908152600360205260409020556004546103bf90826107f4565b6004908155600054604051633950935160e01b81526001600160a01b03909116916339509351916103f4913091869101610aea565b602060405180830381600087803b15801561040e57600080fd5b505af1158015610422573d6000803e3d6000fd5b505050506040513d601f19601f820116820180604052508101906104469190610a62565b6104625760405162461bcd60e51b815260040161036890610bfd565b6000546040516323b872dd60e01b81526001600160a01b03909116906323b872dd9061049690309086908690600401610ac6565b602060405180830381600087803b1580156104b057600080fd5b505af11580156104c4573d6000803e3d6000fd5b505050506040513d601f19601f820116820180604052508101906104e89190610a62565b6105045760405162461bcd60e51b815260040161036890610bc6565b336001600160a01b03167f92fec97bff9ddc18bbb7cf738dd42818ad2528ca913ee47fbe149a5cc822ad21838360405161053f929190610aea565b60405180910390a25050565b60006102c160055461055b610240565b90610855565b6000546040516323b872dd60e01b81526001600160a01b03909116906323b872dd9061059590339030908690600401610ac6565b602060405180830381600087803b1580156105af57600080fd5b505af11580156105c3573d6000803e3d6000fd5b505050506040513d601f19601f820116820180604052508101906105e79190610a62565b6106035760405162461bcd60e51b815260040161036890610c75565b61060d82826108b2565b5050565b60055481565b6001600160a01b03821661063d5760405162461bcd60e51b815260040161036890610b71565b6007546001600160a01b0316156106665760405162461bcd60e51b815260040161036890610b99565b600780546001600160a01b039384166001600160a01b03199182161790915560008054929093169116179055565b61069e338261092e565b6106a882826108b2565b6001600160a01b038216600081815260026020526040908190205490517f2506c43272ded05d095b91dbba876e66e46888157d3e078db5691496e96c5fad9161053f91610cd3565b6000546001600160a01b031681565b610707610240565b60055461071490836107f4565b11156107325760405162461bcd60e51b815260040161036890610b3a565b6001600160a01b03821660009081526001602052604090205461075590826107f4565b6001600160a01b03831660009081526001602052604090205560055461077b90826107f4565b6005555050565b8060065410156107a45760405162461bcd60e51b815260040161036890610c9e565b6001600160a01b0382166000908152600260205260409020546107c79082610855565b6001600160a01b0383166000908152600260205260409020556006546107ed9082610855565b6006555050565b60008282018381101561084e576040805162461bcd60e51b815260206004820152601b60248201527f536166654d6174683a206164646974696f6e206f766572666c6f770000000000604482015290519081900360640190fd5b9392505050565b6000828211156108ac576040805162461bcd60e51b815260206004820152601e60248201527f536166654d6174683a207375627472616374696f6e206f766572666c6f770000604482015290519081900360640190fd5b50900390565b6108ba610240565b6006546108c790836107f4565b11156108e55760405162461bcd60e51b815260040161036890610b3a565b6001600160a01b03821660009081526002602052604090205461090890826107f4565b6001600160a01b0383166000908152600260205260409020556006546107ed90826107f4565b6001600160a01b0382166000908152600160205260409020548111156109665760405162461bcd60e51b815260040161036890610b03565b8060055410156109885760405162461bcd60e51b815260040161036890610c34565b6001600160a01b0382166000908152600160205260409020546109ab9082610855565b6001600160a01b03831660009081526001602052604090205560055461077b9082610855565b80356001600160a01b03811681146109e857600080fd5b919050565b6000602082840312156109fe578081fd5b61084e826109d1565b60008060408385031215610a19578081fd5b610a22836109d1565b9150610a30602084016109d1565b90509250929050565b60008060408385031215610a4b578182fd5b610a54836109d1565b946020939093013593505050565b600060208284031215610a73578081fd5b8151801515811461084e578182fd5b600060208284031215610a93578081fd5b5035919050565b600060208284031215610aab578081fd5b5051919050565b6001600160a01b0391909116815260200190565b6001600160a01b039384168152919092166020820152604081019190915260600190565b6001600160a01b03929092168252602082015260400190565b6020808252601c908201527f616d6f756e742065786365656473206f776e65722062616c616e636500000000604082015260600190565b6020808252601d908201527f616d6f756e74206578636565647320676c6f62616c2062616c616e6365000000604082015260600190565b6020808252600e908201526d34b73b30b634b21034b9b9bab2b960911b604082015260600190565b602080825260139082015272185b1c9958591e481a5b9a5d1a585b1a5e9959606a1b604082015260600190565b60208082526017908201527f636173686f7574207472616e73666572206661696c6564000000000000000000604082015260600190565b60208082526019908201527f696e63726561736520616c6c6f77616e6365206661696c656400000000000000604082015260600190565b60208082526021908201527f616d6f756e74206578636565647320746f74616c2068617264206465706f73696040820152601d60fa1b606082015260800190565b6020808252600f908201526e1d1c985b9cd9995c8819985a5b1959608a1b604082015260600190565b6020808252818101527f616d6f756e74206578636565647320746f74616c2062656e6566696369617279604082015260600190565b9081526020019056fea2646970667358221220ad3055137f4a8f1db85eb2b21a3a617741f46cf3b2e48bab124fb2e857e3cdd664736f6c63430007060033",
  "linkReferences": {},
  "deployedLinkReferences": {}
}