{
  "_format": "hh-sol-artifact-1",
  "contractName": "ERC165CheckerMock",
  "sourceName": "contracts/openzeppelin/contracts/mocks/ERC165CheckerMock.sol",
  "abi": [
    {
      "inputs": [
        {
          "internalType": "address",
          "name": "account",
          "type": "address"
        },
        {
          "internalType": "bytes4[]",
          "name": "interfaceIds",
          "type": "bytes4[]"
        }
      ],
      "name": "getSupportedInterfaces",
      "outputs": [
        {
          "internalType": "bool[]",
          "name": "",
          "type": "bool[]"
        }
      ],
      "stateMutability": "view",
      "type": "function"
    },
    {
      "inputs": [
        {
          "internalType": "address",
          "name": "account",
          "type": "address"
        },
        {
          "internalType": "bytes4[]",
          "name": "interfaceIds",
          "type": "bytes4[]"
        }
      ],
      "name": "supportsAllInterfaces",
      "outputs": [
        {
          "internalType": "bool",
          "name": "",
          "type": "bool"
        }
      ],
      "stateMutability": "view",
      "type": "function"
    },
    {
      "inputs": [
        {
          "internalType": "address",
          "name": "account",
          "type": "address"
        }
      ],
      "name": "supportsERC165",
      "outputs": [
        {
          "internalType": "bool",
          "name": "",
          "type": "bool"
        }
      ],
      "stateMutability": "view",
      "type": "function"
    },
    {
      "inputs": [
        {
          "internalType": "address",
          "name": "account",
          "type": "address"
        },
        {
          "internalType": "bytes4",
          "name": "interfaceId",
          "type": "bytes4"
        }
      ],
      "name": "supportsInterface",
      "outputs": [
        {
          "internalType": "bool",
          "name": "",
          "type": "bool"
        }
      ],
      "stateMutability": "view",
      "type": "function"
    }
  ],
  "bytecode": "0x608060405234801561001057600080fd5b506105ac806100206000396000f3fe608060405234801561001057600080fd5b506004361061004c5760003560e01c80634b9dd9041461005157806377e6b4cc14610118578063c398a9251461021b578063d905700714610241575b600080fd5b6101046004803603604081101561006757600080fd5b6001600160a01b03823516919081019060408101602082013564010000000081111561009257600080fd5b8201836020820111156100a457600080fd5b803590602001918460208302840111640100000000831117156100c657600080fd5b919080806020026020016040519081016040528093929190818152602001838360200280828437600092019190915250929550610277945050505050565b604080519115158252519081900360200190f35b6101cb6004803603604081101561012e57600080fd5b6001600160a01b03823516919081019060408101602082013564010000000081111561015957600080fd5b82018360208201111561016b57600080fd5b8035906020019184602083028401116401000000008311171561018d57600080fd5b919080806020026020016040519081016040528093929190818152602001838360200280828437600092019190915250929550610295945050505050565b60408051602080825283518183015283519192839290830191858101910280838360005b838110156102075781810151838201526020016101ef565b505050509050019250505060405180910390f35b6101046004803603602081101561023157600080fd5b50356001600160a01b03166102aa565b6101046004803603604081101561025757600080fd5b5080356001600160a01b031690602001356001600160e01b0319166102be565b600061028c6001600160a01b038416836102d3565b90505b92915050565b606061028c6001600160a01b03841683610333565b600061028f826001600160a01b03166103d2565b600061028c6001600160a01b03841683610405565b60006102de836103d2565b6102ea5750600061028f565b60005b8251811015610329576103138484838151811061030657fe5b602002602001015161041d565b61032157600091505061028f565b6001016102ed565b5060019392505050565b60606000825167ffffffffffffffff8111801561034f57600080fd5b50604051908082528060200260200182016040528015610379578160200160208202803683370190505b509050610385846103d2565b1561028c5760005b83518110156103ca576103a68585838151811061030657fe5b8282815181106103b257fe5b9115156020928302919091019091015260010161038d565b509392505050565b60006103e5826301ffc9a760e01b61041d565b801561028f57506103fe826001600160e01b031961041d565b1592915050565b6000610410836103d2565b801561028c575061028c83835b600080600061042c8585610443565b9150915081801561043a5750805b95945050505050565b604080516001600160e01b0319831660248083019190915282518083039091018152604490910182526020810180516001600160e01b03166301ffc9a760e01b17815291518151600093849392849283926001600160a01b038a169261753092879282918083835b602083106104ca5780518252601f1990920191602091820191016104ab565b6001836020036101000a0380198251168184511680821785525050505050509050019150506000604051808303818686fa925050503d806000811461052b576040519150601f19603f3d011682016040523d82523d6000602084013e610530565b606091505b509150915060208151101561054e576000809450945050505061056f565b8181806020019051602081101561056457600080fd5b505190955093505050505b925092905056fea26469706673582212208e90077de032e29e604ac533249f816a203c50431f7a804fd59433b444d657f364736f6c63430007060033",
  "linkReferences": {},
  "deployedLinkReferences": {}
}