{
  "_format": "hh-sol-artifact-1",
  "contractName": "TimelockController",
  "sourceName": "contracts/openzeppelin/contracts/access/TimelockController.sol",
  "abi": [
    {
      "inputs": [
        {
          "internalType": "uint256",
          "name": "minDelay",
          "type": "uint256"
        },
        {
          "internalType": "address[]",
          "name": "proposers",
          "type": "address[]"
        },
        {
          "internalType": "address[]",
          "name": "executors",
          "type": "address[]"
        }
      ],
      "stateMutability": "nonpayable",
      "type": "constructor"
    },
    {
      "anonymous": false,
      "inputs": [
        {
          "indexed": true,
          "internalType": "bytes32",
          "name": "id",
          "type": "bytes32"
        },
        {
          "indexed": true,
          "internalType": "uint256",
          "name": "index",
          "type": "uint256"
        },
        {
          "indexed": false,
          "internalType": "address",
          "name": "target",
          "type": "address"
        },
        {
          "indexed": false,
          "internalType": "uint256",
          "name": "value",
          "type": "uint256"
        },
        {
          "indexed": false,
          "internalType": "bytes",
          "name": "data",
          "type": "bytes"
        }
      ],
      "name": "CallExecuted",
      "type": "event"
    },
    {
      "anonymous": false,
      "inputs": [
        {
          "indexed": true,
          "internalType": "bytes32",
          "name": "id",
          "type": "bytes32"
        },
        {
          "indexed": true,
          "internalType": "uint256",
          "name": "index",
          "type": "uint256"
        },
        {
          "indexed": false,
          "internalType": "address",
          "name": "target",
          "type": "address"
        },
        {
          "indexed": false,
          "internalType": "uint256",
          "name": "value",
          "type": "uint256"
        },
        {
          "indexed": false,
          "internalType": "bytes",
          "name": "data",
          "type": "bytes"
        },
        {
          "indexed": false,
          "internalType": "bytes32",
          "name": "predecessor",
          "type": "bytes32"
        },
        {
          "indexed": false,
          "internalType": "uint256",
          "name": "delay",
          "type": "uint256"
        }
      ],
      "name": "CallScheduled",
      "type": "event"
    },
    {
      "anonymous": false,
      "inputs": [
        {
          "indexed": true,
          "internalType": "bytes32",
          "name": "id",
          "type": "bytes32"
        }
      ],
      "name": "Cancelled",
      "type": "event"
    },
    {
      "anonymous": false,
      "inputs": [
        {
          "indexed": false,
          "internalType": "uint256",
          "name": "oldDuration",
          "type": "uint256"
        },
        {
          "indexed": false,
          "internalType": "uint256",
          "name": "newDuration",
          "type": "uint256"
        }
      ],
      "name": "MinDelayChange",
      "type": "event"
    },
    {
      "anonymous": false,
      "inputs": [
        {
          "indexed": true,
          "internalType": "bytes32",
          "name": "role",
          "type": "bytes32"
        },
        {
          "indexed": true,
          "internalType": "bytes32",
          "name": "previousAdminRole",
          "type": "bytes32"
        },
        {
          "indexed": true,
          "internalType": "bytes32",
          "name": "newAdminRole",
          "type": "bytes32"
        }
      ],
      "name": "RoleAdminChanged",
      "type": "event"
    },
    {
      "anonymous": false,
      "inputs": [
        {
          "indexed": true,
          "internalType": "bytes32",
          "name": "role",
          "type": "bytes32"
        },
        {
          "indexed": true,
          "internalType": "address",
          "name": "account",
          "type": "address"
        },
        {
          "indexed": true,
          "internalType": "address",
          "name": "sender",
          "type": "address"
        }
      ],
      "name": "RoleGranted",
      "type": "event"
    },
    {
      "anonymous": false,
      "inputs": [
        {
          "indexed": true,
          "internalType": "bytes32",
          "name": "role",
          "type": "bytes32"
        },
        {
          "indexed": true,
          "internalType": "address",
          "name": "account",
          "type": "address"
        },
        {
          "indexed": true,
          "internalType": "address",
          "name": "sender",
          "type": "address"
        }
      ],
      "name": "RoleRevoked",
      "type": "event"
    },
    {
      "inputs": [],
      "name": "DEFAULT_ADMIN_ROLE",
      "outputs": [
        {
          "internalType": "bytes32",
          "name": "",
          "type": "bytes32"
        }
      ],
      "stateMutability": "view",
      "type": "function"
    },
    {
      "inputs": [],
      "name": "EXECUTOR_ROLE",
      "outputs": [
        {
          "internalType": "bytes32",
          "name": "",
          "type": "bytes32"
        }
      ],
      "stateMutability": "view",
      "type": "function"
    },
    {
      "inputs": [],
      "name": "PROPOSER_ROLE",
      "outputs": [
        {
          "internalType": "bytes32",
          "name": "",
          "type": "bytes32"
        }
      ],
      "stateMutability": "view",
      "type": "function"
    },
    {
      "inputs": [],
      "name": "TIMELOCK_ADMIN_ROLE",
      "outputs": [
        {
          "internalType": "bytes32",
          "name": "",
          "type": "bytes32"
        }
      ],
      "stateMutability": "view",
      "type": "function"
    },
    {
      "inputs": [
        {
          "internalType": "bytes32",
          "name": "id",
          "type": "bytes32"
        }
      ],
      "name": "cancel",
      "outputs": [],
      "stateMutability": "nonpayable",
      "type": "function"
    },
    {
      "inputs": [
        {
          "internalType": "address",
          "name": "target",
          "type": "address"
        },
        {
          "internalType": "uint256",
          "name": "value",
          "type": "uint256"
        },
        {
          "internalType": "bytes",
          "name": "data",
          "type": "bytes"
        },
        {
          "internalType": "bytes32",
          "name": "predecessor",
          "type": "bytes32"
        },
        {
          "internalType": "bytes32",
          "name": "salt",
          "type": "bytes32"
        }
      ],
      "name": "execute",
      "outputs": [],
      "stateMutability": "payable",
      "type": "function"
    },
    {
      "inputs": [
        {
          "internalType": "address[]",
          "name": "targets",
          "type": "address[]"
        },
        {
          "internalType": "uint256[]",
          "name": "values",
          "type": "uint256[]"
        },
        {
          "internalType": "bytes[]",
          "name": "datas",
          "type": "bytes[]"
        },
        {
          "internalType": "bytes32",
          "name": "predecessor",
          "type": "bytes32"
        },
        {
          "internalType": "bytes32",
          "name": "salt",
          "type": "bytes32"
        }
      ],
      "name": "executeBatch",
      "outputs": [],
      "stateMutability": "payable",
      "type": "function"
    },
    {
      "inputs": [],
      "name": "getMinDelay",
      "outputs": [
        {
          "internalType": "uint256",
          "name": "duration",
          "type": "uint256"
        }
      ],
      "stateMutability": "view",
      "type": "function"
    },
    {
      "inputs": [
        {
          "internalType": "bytes32",
          "name": "role",
          "type": "bytes32"
        }
      ],
      "name": "getRoleAdmin",
      "outputs": [
        {
          "internalType": "bytes32",
          "name": "",
          "type": "bytes32"
        }
      ],
      "stateMutability": "view",
      "type": "function"
    },
    {
      "inputs": [
        {
          "internalType": "bytes32",
          "name": "role",
          "type": "bytes32"
        },
        {
          "internalType": "uint256",
          "name": "index",
          "type": "uint256"
        }
      ],
      "name": "getRoleMember",
      "outputs": [
        {
          "internalType": "address",
          "name": "",
          "type": "address"
        }
      ],
      "stateMutability": "view",
      "type": "function"
    },
    {
      "inputs": [
        {
          "internalType": "bytes32",
          "name": "role",
          "type": "bytes32"
        }
      ],
      "name": "getRoleMemberCount",
      "outputs": [
        {
          "internalType": "uint256",
          "name": "",
          "type": "uint256"
        }
      ],
      "stateMutability": "view",
      "type": "function"
    },
    {
      "inputs": [
        {
          "internalType": "bytes32",
          "name": "id",
          "type": "bytes32"
        }
      ],
      "name": "getTimestamp",
      "outputs": [
        {
          "internalType": "uint256",
          "name": "timestamp",
          "type": "uint256"
        }
      ],
      "stateMutability": "view",
      "type": "function"
    },
    {
      "inputs": [
        {
          "internalType": "bytes32",
          "name": "role",
          "type": "bytes32"
        },
        {
          "internalType": "address",
          "name": "account",
          "type": "address"
        }
      ],
      "name": "grantRole",
      "outputs": [],
      "stateMutability": "nonpayable",
      "type": "function"
    },
    {
      "inputs": [
        {
          "internalType": "bytes32",
          "name": "role",
          "type": "bytes32"
        },
        {
          "internalType": "address",
          "name": "account",
          "type": "address"
        }
      ],
      "name": "hasRole",
      "outputs": [
        {
          "internalType": "bool",
          "name": "",
          "type": "bool"
        }
      ],
      "stateMutability": "view",
      "type": "function"
    },
    {
      "inputs": [
        {
          "internalType": "address",
          "name": "target",
          "type": "address"
        },
        {
          "internalType": "uint256",
          "name": "value",
          "type": "uint256"
        },
        {
          "internalType": "bytes",
          "name": "data",
          "type": "bytes"
        },
        {
          "internalType": "bytes32",
          "name": "predecessor",
          "type": "bytes32"
        },
        {
          "internalType": "bytes32",
          "name": "salt",
          "type": "bytes32"
        }
      ],
      "name": "hashOperation",
      "outputs": [
        {
          "internalType": "bytes32",
          "name": "hash",
          "type": "bytes32"
        }
      ],
      "stateMutability": "pure",
      "type": "function"
    },
    {
      "inputs": [
        {
          "internalType": "address[]",
          "name": "targets",
          "type": "address[]"
        },
        {
          "internalType": "uint256[]",
          "name": "values",
          "type": "uint256[]"
        },
        {
          "internalType": "bytes[]",
          "name": "datas",
          "type": "bytes[]"
        },
        {
          "internalType": "bytes32",
          "name": "predecessor",
          "type": "bytes32"
        },
        {
          "internalType": "bytes32",
          "name": "salt",
          "type": "bytes32"
        }
      ],
      "name": "hashOperationBatch",
      "outputs": [
        {
          "internalType": "bytes32",
          "name": "hash",
          "type": "bytes32"
        }
      ],
      "stateMutability": "pure",
      "type": "function"
    },
    {
      "inputs": [
        {
          "internalType": "bytes32",
          "name": "id",
          "type": "bytes32"
        }
      ],
      "name": "isOperation",
      "outputs": [
        {
          "internalType": "bool",
          "name": "pending",
          "type": "bool"
        }
      ],
      "stateMutability": "view",
      "type": "function"
    },
    {
      "inputs": [
        {
          "internalType": "bytes32",
          "name": "id",
          "type": "bytes32"
        }
      ],
      "name": "isOperationDone",
      "outputs": [
        {
          "internalType": "bool",
          "name": "done",
          "type": "bool"
        }
      ],
      "stateMutability": "view",
      "type": "function"
    },
    {
      "inputs": [
        {
          "internalType": "bytes32",
          "name": "id",
          "type": "bytes32"
        }
      ],
      "name": "isOperationPending",
      "outputs": [
        {
          "internalType": "bool",
          "name": "pending",
          "type": "bool"
        }
      ],
      "stateMutability": "view",
      "type": "function"
    },
    {
      "inputs": [
        {
          "internalType": "bytes32",
          "name": "id",
          "type": "bytes32"
        }
      ],
      "name": "isOperationReady",
      "outputs": [
        {
          "internalType": "bool",
          "name": "ready",
          "type": "bool"
        }
      ],
      "stateMutability": "view",
      "type": "function"
    },
    {
      "inputs": [
        {
          "internalType": "bytes32",
          "name": "role",
          "type": "bytes32"
        },
        {
          "internalType": "address",
          "name": "account",
          "type": "address"
        }
      ],
      "name": "renounceRole",
      "outputs": [],
      "stateMutability": "nonpayable",
      "type": "function"
    },
    {
      "inputs": [
        {
          "internalType": "bytes32",
          "name": "role",
          "type": "bytes32"
        },
        {
          "internalType": "address",
          "name": "account",
          "type": "address"
        }
      ],
      "name": "revokeRole",
      "outputs": [],
      "stateMutability": "nonpayable",
      "type": "function"
    },
    {
      "inputs": [
        {
          "internalType": "address",
          "name": "target",
          "type": "address"
        },
        {
          "internalType": "uint256",
          "name": "value",
          "type": "uint256"
        },
        {
          "internalType": "bytes",
          "name": "data",
          "type": "bytes"
        },
        {
          "internalType": "bytes32",
          "name": "predecessor",
          "type": "bytes32"
        },
        {
          "internalType": "bytes32",
          "name": "salt",
          "type": "bytes32"
        },
        {
          "internalType": "uint256",
          "name": "delay",
          "type": "uint256"
        }
      ],
      "name": "schedule",
      "outputs": [],
      "stateMutability": "nonpayable",
      "type": "function"
    },
    {
      "inputs": [
        {
          "internalType": "address[]",
          "name": "targets",
          "type": "address[]"
        },
        {
          "internalType": "uint256[]",
          "name": "values",
          "type": "uint256[]"
        },
        {
          "internalType": "bytes[]",
          "name": "datas",
          "type": "bytes[]"
        },
        {
          "internalType": "bytes32",
          "name": "predecessor",
          "type": "bytes32"
        },
        {
          "internalType": "bytes32",
          "name": "salt",
          "type": "bytes32"
        },
        {
          "internalType": "uint256",
          "name": "delay",
          "type": "uint256"
        }
      ],
      "name": "scheduleBatch",
      "outputs": [],
      "stateMutability": "nonpayable",
      "type": "function"
    },
    {
      "inputs": [
        {
          "internalType": "uint256",
          "name": "newDelay",
          "type": "uint256"
        }
      ],
      "name": "updateDelay",
      "outputs": [],
      "stateMutability": "nonpayable",
      "type": "function"
    },
    {
      "stateMutability": "payable",
      "type": "receive"
    }
  ],
  "bytecode": "0x60806040523480156200001157600080fd5b5060405162001efc38038062001efc8339810160408190526200003491620003ce565b6200004f60008051602062001e9c83398151915280620001b1565b6200007960008051602062001ebc83398151915260008051602062001e9c833981519152620001b1565b620000a360008051602062001edc83398151915260008051602062001e9c833981519152620001b1565b620000c760008051602062001e9c833981519152620000c162000203565b62000207565b620000e260008051602062001e9c8339815191523062000207565b60005b82518110156200012d576200012460008051602062001ebc8339815191528483815181106200011057fe5b60200260200101516200020760201b60201c565b600101620000e5565b5060005b815181101562000165576200015c60008051602062001edc8339815191528383815181106200011057fe5b60010162000131565b5060028390556040517f11c24f4ead16507c69ac467fbd5e4eed5fb5c699626d2cc6d66421df253886d590620001a09060009086906200043f565b60405180910390a15050506200044d565b600082815260208190526040808220600201549051839285917fbd79b86ffe0ab8e8776151514217cd7cacd52c909f66475c3af44e129f0b00ff9190a460009182526020829052604090912060020155565b3390565b62000213828262000217565b5050565b6000828152602081815260409091206200023c91839062000c3e62000290821b17901c565b1562000213576200024c62000203565b6001600160a01b0316816001600160a01b0316837f2f8788117e7eff1d82e926ec794901d17c78024a50270940304540a733656f0d60405160405180910390a45050565b6000620002a7836001600160a01b038416620002b0565b90505b92915050565b6000620002be8383620002ff565b620002f657508154600181810184556000848152602080822090930184905584548482528286019093526040902091909155620002aa565b506000620002aa565b60009081526001919091016020526040902054151590565b80516001600160a01b03811681146200032f57600080fd5b919050565b600082601f83011262000345578081fd5b815160206001600160401b03808311156200035c57fe5b818302604051838282010181811084821117156200037657fe5b6040528481528381019250868401828801850189101562000395578687fd5b8692505b85831015620003c257620003ad8162000317565b84529284019260019290920191840162000399565b50979650505050505050565b600080600060608486031215620003e3578283fd5b835160208501519093506001600160401b038082111562000402578384fd5b620004108783880162000334565b9350604086015191508082111562000426578283fd5b50620004358682870162000334565b9150509250925092565b918252602082015260400190565b611a3f806200045d6000396000f3fe60806040526004361061016a5760003560e01c80638065657f116100d1578063b1c5f4271161008a578063d45c443511610064578063d45c44351461040f578063d547741f1461042f578063e38335e51461044f578063f27a0c921461046257610171565b8063b1c5f427146103af578063c4d252f5146103cf578063ca15c873146103ef57610171565b80638065657f146102f85780638f2a0bb0146103185780638f61f4f5146103385780639010d07c1461034d57806391d148541461037a578063a217fddf1461039a57610171565b80632ab0f529116101235780632ab0f529146102385780632f2ff15d1461025857806331d507501461027857806336568abe14610298578063584b153e146102b857806364d62353146102d857610171565b806301d5062a1461017657806307bd0265146101985780630d3cf6fc146101c3578063134008d3146101d857806313bc9f20146101eb578063248a9ca31461021857610171565b3661017157005b600080fd5b34801561018257600080fd5b50610196610191366004611216565b610477565b005b3480156101a457600080fd5b506101ad610533565b6040516101ba9190611638565b60405180910390f35b3480156101cf57600080fd5b506101ad610557565b6101966101e63660046111ac565b61057b565b3480156101f757600080fd5b5061020b6102063660046113dc565b610612565b6040516101ba919061162d565b34801561022457600080fd5b506101ad6102333660046113dc565b610639565b34801561024457600080fd5b5061020b6102533660046113dc565b61064e565b34801561026457600080fd5b506101966102733660046113f4565b610662565b34801561028457600080fd5b5061020b6102933660046113dc565b6106c9565b3480156102a457600080fd5b506101966102b33660046113f4565b6106dc565b3480156102c457600080fd5b5061020b6102d33660046113dc565b61073d565b3480156102e457600080fd5b506101966102f33660046113dc565b61074a565b34801561030457600080fd5b506101ad6103133660046111ac565b6107a9565b34801561032457600080fd5b5061019661033336600461132e565b6107e8565b34801561034457600080fd5b506101ad61093e565b34801561035957600080fd5b5061036d61036836600461141f565b610950565b6040516101ba9190611505565b34801561038657600080fd5b5061020b6103953660046113f4565b610971565b3480156103a657600080fd5b506101ad610989565b3480156103bb57600080fd5b506101ad6103ca366004611289565b61098e565b3480156103db57600080fd5b506101966103ea3660046113dc565b6109d3565b3480156103fb57600080fd5b506101ad61040a3660046113dc565b610a7c565b34801561041b57600080fd5b506101ad61042a3660046113dc565b610a93565b34801561043b57600080fd5b5061019661044a3660046113f4565b610aa5565b61019661045d366004611289565b610afe565b34801561046e57600080fd5b506101ad610c38565b6000805160206119bb83398151915261049281610395610c53565b806104a357506104a3816000610971565b6104c85760405162461bcd60e51b81526004016104bf906116ca565b60405180910390fd5b60006104d88989898989896107a9565b90506104e48184610c57565b6000817f4cf4410cc57040e44862ef0f45f3dd5a5e02db8eb8add648d4b0e236f1d07dca8b8b8b8b8b8a6040516105209695949392919061154b565b60405180910390a3505050505050505050565b7fd8aa0f3194971a2a116679f7c2090f6939c8d4e01a2a8d7e41d55e5351469e6381565b7f5f58e3a2316349923ce3780f8d587db2d72378aed66a8261c916544fa6846ca581565b7fd8aa0f3194971a2a116679f7c2090f6939c8d4e01a2a8d7e41d55e5351469e636105a881610395610c53565b806105b957506105b9816000610971565b6105d55760405162461bcd60e51b81526004016104bf906116ca565b60006105e58888888888886107a9565b90506105f084610cc4565b6105ff8160008a8a8a8a610cf4565b61060881610dbc565b5050505050505050565b60008061061e83610a93565b90506001811180156106305750428111155b9150505b919050565b60009081526020819052604090206002015490565b6000600161065b83610a93565b1492915050565b60008281526020819052604090206002015461068090610395610c53565b6106bb5760405162461bcd60e51b815260040180806020018281038252602f81526020018061195c602f913960400191505060405180910390fd5b6106c58282610df5565b5050565b6000806106d583610a93565b1192915050565b6106e4610c53565b6001600160a01b0316816001600160a01b0316146107335760405162461bcd60e51b815260040180806020018281038252602f8152602001806119db602f913960400191505060405180910390fd5b6106c58282610e5e565b600060016106d583610a93565b3330146107695760405162461bcd60e51b81526004016104bf90611848565b7f11c24f4ead16507c69ac467fbd5e4eed5fb5c699626d2cc6d66421df253886d56002548260405161079c9291906118e6565b60405180910390a1600255565b60008686868686866040516020016107c69695949392919061154b565b6040516020818303038152906040528051906020012090509695505050505050565b6000805160206119bb83398151915261080381610395610c53565b806108145750610814816000610971565b6108305760405162461bcd60e51b81526004016104bf906116ca565b88871461084f5760405162461bcd60e51b81526004016104bf90611687565b88851461086e5760405162461bcd60e51b81526004016104bf90611687565b60006108808b8b8b8b8b8b8b8b61098e565b905061088c8184610c57565b60005b8a8110156109305780827f4cf4410cc57040e44862ef0f45f3dd5a5e02db8eb8add648d4b0e236f1d07dca8e8e858181106108c657fe5b90506020020160208101906108db9190611192565b8d8d868181106108e757fe5b905060200201358c8c878181106108fa57fe5b905060200281019061090c91906118f4565b8c8b6040516109209695949392919061154b565b60405180910390a360010161088f565b505050505050505050505050565b6000805160206119bb83398151915281565b60008281526020819052604081206109689083610ec7565b90505b92915050565b60008281526020819052604081206109689083610ed3565b600081565b600088888888888888886040516020016109af989796959493929190611588565b60405160208183030381529060405280519060200120905098975050505050505050565b6000805160206119bb8339815191526109ee81610395610c53565b806109ff57506109ff816000610971565b610a1b5760405162461bcd60e51b81526004016104bf906116ca565b610a248261073d565b610a405760405162461bcd60e51b81526004016104bf906117f7565b6000828152600160205260408082208290555183917fbaa1eb22f2a492ba1a5fea61b8df4d27c6c8b5f3971e63bb58fa14ff72eedb7091a25050565b600081815260208190526040812061096b90610ee8565b60009081526001602052604090205490565b600082815260208190526040902060020154610ac390610395610c53565b6107335760405162461bcd60e51b815260040180806020018281038252603081526020018061198b6030913960400191505060405180910390fd5b7fd8aa0f3194971a2a116679f7c2090f6939c8d4e01a2a8d7e41d55e5351469e63610b2b81610395610c53565b80610b3c5750610b3c816000610971565b610b585760405162461bcd60e51b81526004016104bf906116ca565b878614610b775760405162461bcd60e51b81526004016104bf90611687565b878414610b965760405162461bcd60e51b81526004016104bf90611687565b6000610ba88a8a8a8a8a8a8a8a61098e565b9050610bb384610cc4565b60005b89811015610c2257610c1a82828d8d85818110610bcf57fe5b9050602002016020810190610be49190611192565b8c8c86818110610bf057fe5b905060200201358b8b87818110610c0357fe5b9050602002810190610c1591906118f4565b610cf4565b600101610bb6565b50610c2c81610dbc565b50505050505050505050565b60025490565b6000610968836001600160a01b038416610ef3565b3390565b610c60826106c9565b15610c7d5760405162461bcd60e51b81526004016104bf9061175e565b610c85610c38565b811015610ca45760405162461bcd60e51b81526004016104bf90611718565b610cae4282610f3d565b6000928352600160205260409092209190915550565b801580610cd55750610cd58161064e565b610cf15760405162461bcd60e51b81526004016104bf90611641565b50565b6000846001600160a01b0316848484604051610d119291906114f5565b60006040518083038185875af1925050503d8060008114610d4e576040519150601f19603f3d011682016040523d82523d6000602084013e610d53565b606091505b5050905080610d745760405162461bcd60e51b81526004016104bf90611893565b85877fc2617efa69bab66782fa219543714338489c4e9e178271560a91b82c3f612b5887878787604051610dab9493929190611519565b60405180910390a350505050505050565b610dc581610612565b610de15760405162461bcd60e51b81526004016104bf906117ad565b600090815260016020819052604090912055565b6000828152602081905260409020610e0d9082610c3e565b156106c557610e1a610c53565b6001600160a01b0316816001600160a01b0316837f2f8788117e7eff1d82e926ec794901d17c78024a50270940304540a733656f0d60405160405180910390a45050565b6000828152602081905260409020610e769082610f97565b156106c557610e83610c53565b6001600160a01b0316816001600160a01b0316837ff6391f5c32d9c69d2a47ea670b442974b53935d1edc7fd64eb21e047a839171b60405160405180910390a45050565b60006109688383610fac565b6000610968836001600160a01b038416611010565b600061096b82611028565b6000610eff8383611010565b610f355750815460018181018455600084815260208082209093018490558454848252828601909352604090209190915561096b565b50600061096b565b600082820183811015610968576040805162461bcd60e51b815260206004820152601b60248201527f536166654d6174683a206164646974696f6e206f766572666c6f770000000000604482015290519081900360640190fd5b6000610968836001600160a01b03841661102c565b81546000908210610fee5760405162461bcd60e51b815260040180806020018281038252602281526020018061193a6022913960400191505060405180910390fd5b826000018281548110610ffd57fe5b9060005260206000200154905092915050565b60009081526001919091016020526040902054151590565b5490565b600081815260018301602052604081205480156110e8578354600019808301919081019060009087908390811061105f57fe5b906000526020600020015490508087600001848154811061107c57fe5b6000918252602080832090910192909255828152600189810190925260409020908401905586548790806110ac57fe5b6001900381819060005260206000200160009055905586600101600087815260200190815260200160002060009055600194505050505061096b565b600091505061096b565b80356001600160a01b038116811461063457600080fd5b60008083601f84011261111a578182fd5b50813567ffffffffffffffff811115611131578182fd5b602083019150836020808302850101111561114b57600080fd5b9250929050565b60008083601f840112611163578182fd5b50813567ffffffffffffffff81111561117a578182fd5b60208301915083602082850101111561114b57600080fd5b6000602082840312156111a3578081fd5b610968826110f2565b60008060008060008060a087890312156111c4578182fd5b6111cd876110f2565b955060208701359450604087013567ffffffffffffffff8111156111ef578283fd5b6111fb89828a01611152565b979a9699509760608101359660809091013595509350505050565b600080600080600080600060c0888a031215611230578081fd5b611239886110f2565b965060208801359550604088013567ffffffffffffffff81111561125b578182fd5b6112678a828b01611152565b989b979a50986060810135976080820135975060a09091013595509350505050565b60008060008060008060008060a0898b0312156112a4578081fd5b883567ffffffffffffffff808211156112bb578283fd5b6112c78c838d01611109565b909a50985060208b01359150808211156112df578283fd5b6112eb8c838d01611109565b909850965060408b0135915080821115611303578283fd5b506113108b828c01611109565b999c989b509699959896976060870135966080013595509350505050565b600080600080600080600080600060c08a8c03121561134b578081fd5b893567ffffffffffffffff80821115611362578283fd5b61136e8d838e01611109565b909b50995060208c0135915080821115611386578283fd5b6113928d838e01611109565b909950975060408c01359150808211156113aa578283fd5b506113b78c828d01611109565b9a9d999c50979a969997986060880135976080810135975060a0013595509350505050565b6000602082840312156113ed578081fd5b5035919050565b60008060408385031215611406578182fd5b82359150611416602084016110f2565b90509250929050565b60008060408385031215611431578182fd5b50508035926020909101359150565b818352602080840193600091908185020181018584845b878110156114be5782840389528135601e19883603018112611477578687fd5b8701803567ffffffffffffffff81111561148f578788fd5b80360389131561149d578788fd5b6114aa86828985016114cb565b9a87019a9550505090840190600101611457565b5091979650505050505050565b60008284528282602086013780602084860101526020601f19601f85011685010190509392505050565b6000828483379101908152919050565b6001600160a01b0391909116815260200190565b600060018060a01b0386168252846020830152606060408301526115416060830184866114cb565b9695505050505050565b600060018060a01b038816825286602083015260a0604083015261157360a0830186886114cb565b60608301949094525060800152949350505050565b60a0808252810188905260008960c08301825b8b8110156115c9576001600160a01b036115b4846110f2565b1682526020928301929091019060010161159b565b5083810360208501528881526001600160fb1b038911156115e8578283fd5b602089029150818a6020830137016020818101838152848303909101604085015261161481888a611440565b6060850196909652505050608001529695505050505050565b901515815260200190565b90815260200190565b60208082526026908201527f54696d656c6f636b436f6e74726f6c6c65723a206d697373696e6720646570656040820152656e64656e637960d01b606082015260800190565b60208082526023908201527f54696d656c6f636b436f6e74726f6c6c65723a206c656e677468206d69736d616040820152620e8c6d60eb1b606082015260800190565b6020808252602e908201527f54696d656c6f636b436f6e74726f6c6c65723a2073656e64657220726571756960408201526d3932b9903832b936b4b9b9b4b7b760911b606082015260800190565b60208082526026908201527f54696d656c6f636b436f6e74726f6c6c65723a20696e73756666696369656e746040820152652064656c617960d01b606082015260800190565b6020808252602f908201527f54696d656c6f636b436f6e74726f6c6c65723a206f7065726174696f6e20616c60408201526e1c9958591e481cd8da19591d5b1959608a1b606082015260800190565b6020808252602a908201527f54696d656c6f636b436f6e74726f6c6c65723a206f7065726174696f6e206973604082015269206e6f7420726561647960b01b606082015260800190565b60208082526031908201527f54696d656c6f636b436f6e74726f6c6c65723a206f7065726174696f6e2063616040820152701b9b9bdd0818994818d85b98d95b1b1959607a1b606082015260800190565b6020808252602b908201527f54696d656c6f636b436f6e74726f6c6c65723a2063616c6c6572206d7573742060408201526a62652074696d656c6f636b60a81b606082015260800190565b60208082526033908201527f54696d656c6f636b436f6e74726f6c6c65723a20756e6465726c79696e6720746040820152721c985b9cd858dd1a5bdb881c995d995c9d1959606a1b606082015260800190565b918252602082015260400190565b6000808335601e1984360301811261190a578283fd5b83018035915067ffffffffffffffff821115611924578283fd5b60200191503681900382131561114b57600080fdfe456e756d657261626c655365743a20696e646578206f7574206f6620626f756e6473416363657373436f6e74726f6c3a2073656e646572206d75737420626520616e2061646d696e20746f206772616e74416363657373436f6e74726f6c3a2073656e646572206d75737420626520616e2061646d696e20746f207265766f6b65b09aa5aeb3702cfd50b6b62bc4532604938f21248a27a1d5ca736082b6819cc1416363657373436f6e74726f6c3a2063616e206f6e6c792072656e6f756e636520726f6c657320666f722073656c66a2646970667358221220dc73c40a2a848c0b3b446abe2d8636dde72858263dca6435994c6e112676ece664736f6c634300070600335f58e3a2316349923ce3780f8d587db2d72378aed66a8261c916544fa6846ca5b09aa5aeb3702cfd50b6b62bc4532604938f21248a27a1d5ca736082b6819cc1d8aa0f3194971a2a116679f7c2090f6939c8d4e01a2a8d7e41d55e5351469e63",
  "linkReferences": {},
  "deployedLinkReferences": {}
}